:020000040800F2
:1020000020360120E1220008E9220008EB22000826
:10201000ED220008EF220008F12200080000000075
:102020000000000000000000000000003D22000849
:10203000F52200080000000081220008D5BA01083E
:10204000FB220008FB220008FB220008FB220008FC
:10205000FB220008FB220008FB220008FB220008EC
:10206000FB220008FB220008FB220008FB220008DC
:10207000FB220008FB220008FB220008FB220008CC
:10208000FB220008FB220008FB220008452900086B
:102090002529000835290008FB220008FB2200083A
:1020A000FB220008FB220008FB220008FB2200089C
:1020B000FB220008FB220008FB220008FB2200088C
:1020C000FB220008FB220008FB220008FB2200087C
:1020D000FB220008FB220008FB220008FB2200086C
:1020E000FB220008FB220008FB220008FB2200085C
:1020F000FB220008FB220008FB2200080000000071
:10210000FB22000800000000FB220008FB22000860
:10211000E52C0008FB220008FB220008FB22000837
:10212000FB220008FB220008FB220008FB2200081B
:10213000FB220008FB220008FB220008752900088A
:102140005529000865290008FB220008FB22000829
:1021500000F002F800F063F80AA090E8000C824456
:102160008344AAF10107DA4501D100F058F8AFF233
:10217000090EBAE80F0013F0010F18BFFB1A43F065
:102180000103184750BB010070BB01000A444FF027
:10219000000C10F8013B13F0070408BF10F8014BC6
:1021A0001D1108BF10F8015B641E05D010F8016B0B
:1021B000641E01F8016BF9D113F0080F1EBF10F86F
:1021C000014BAD1C0C1B09D16D1E58BF01F801CB92
:1021D000FAD505E014F8016B01F8016B6D1EF9D515
:1021E0009142D6D37047000000230024002500262A
:1021F000103A28BF78C1FBD8520728BF30C148BF6A
:102200000B6070471FB59DE8030000F097FA00F0DF
:10221000A5F91FBD10B5002016F03FFC10BD00F061
:10222000E1FA1146FFF7EEFF17F0F2FF00F019FB9D
:1022300003B4FFF7EFFF03BC00F020FB204B19684D
:102240000868B0E8F00F80F30988BFF36F8F4FF094
:10225000000080F311884EF00D0E70470000000062
:1022600006480068006880F3088862B661B6BFF36C
:102270004F8FBFF36F8F00DF00BF00BF08ED00E09E
:10228000EFF30980BFF36F8F0D4B1A6820E9F00F51
:10229000106008B54FF0BF0080F3118819F0D0FB33
:1022A0004FF0000080F31188BDE808401968086805
:1022B000B0E8F00F80F30988BFF36F8F704700BF5D
:1022C00050080020EFF311804FF0BF0181F3118817
:1022D000704780F311887047EFF305807047000066
:1022E0000948804709480047FEE7FEE7FEE7FEE7AA
:1022F000FEE7FEE7FEE7FEE7FEE7FEE704480549E6
:10230000054A064B70470000652C00085121000863
:1023100020F6002020360120201601202016012062
:10232000014A00F093B900004809002030B5054685
:102330000B462A4613F8014B12F8010B08B1A042D4
:10234000F8D01CB1002802D06D1CF1E7284630BD42
:1023500010B5431C02E010F8011B71B18107FAD1DE
:102360004FF0013202C88C1A8C4314EAC211F9D022
:10237000C01A0A0603D0C01E10BDC01A10BD0A0440
:1023800001D0801E10BD0902FCD0401E10BD421EAF
:1023900012F8013F002BFBD111F8013B002B02F892
:1023A000013BF9D17047032A40F2308010F0030C52
:1023B00000F0158011F8013BBCF1020F624498BF98
:1023C00011F801CB00F8013B38BF11F8013BA2F135
:1023D000040298BF00F801CB38BF00F8013B11F0B0
:1023E000030300F05581083AC0F0088051F8043B1F
:1023F000083A51F804CBA0E80810F5E7121D5CBFBD
:1024000051F8043B40F8043BAFF30080D20724BFEF
:1024100011F8013B11F801CB48BF11F8012B24BF83
:1024200000F8013B00F801CB48BF00F8012B7047D2
:1024300002F0FF0343EA032242EA024200F002B83C
:102440004FF000020429C0F0128010F0030C00F0DD
:102450001B80CCF1040CBCF1020F18BF00F8012B5B
:10246000A8BF20F8022BA1EB0C0100F00DB85FEA29
:10247000C17C24BF00F8012B00F8012B48BF00F8F5
:10248000012B70474FF0000200B513469446964664
:10249000203922BFA0E80C50A0E80C50B1F1200177
:1024A000BFF4F7AF090728BFA0E80C5048BF0CC025
:1024B0005DF804EB890028BF40F8042B08BF704783
:1024C00048BF20F8022B11F0804F18BF00F8012BF5
:1024D000704700004FF0013C50F8042B51F8043BCA
:1024E0009A4221D1A2EB0C03934313EACC1317D1E8
:1024F00050F8042B51F8043B9A4215D1A2EB0C037F
:10250000934313EACC130BD150F8042B51F8043B3E
:102510009A4209D1A2EB0C03934313EACC13DBD00C
:102520004FF00000704700BFD01A01BAB1FA81F134
:1025300001F0180122FA01F0CB40C1F12001DBB219
:10254000C0B2C01A2CFA01F3D11A914311EAC31197
:10255000E6D17047704770477047000070B5064C71
:102560007C44064D7D4403E0206820448047241DC0
:10257000AC42F9D170BD000090B70100C0B70100B6
:1025800000487047F8F5002070B5064600F0B6F830
:10259000056806F10B0020F00704B4429CBF002040
:1025A00070BD2B466A68BAB11068A04210D304F11E
:1025B000080188423CBF5068586007D35168101921
:1025C00041601168091B016058601460101D70BDE6
:1025D00013465268002AE7D12146284600F09AF8AF
:1025E0000028DED170BD70B50446051F00F086F8E6
:1025F0000068002C14BF446870BD002C18BFAC42AA
:102600003CBF20466468F8D301680A18AA4218BF84
:10261000456003D12A6805461144016028684119C4
:10262000A1421CBF6C6070BD61686960216808448C
:10263000286070BD10B500F065F8006810BD10B5D9
:10264000044600F05FF8046010BD00002DE9F04181
:1026500015460E46040002D12C6804B90BA420468E
:1026600000F0B2F80444207870B12746314638466D
:1026700000F09AF80444207810B1002004F8010B0F
:1026800038462C60BDE8F0810027F9E70000000023
:1026900010B5203AC0F00B80B1E81850203AA0E8FD
:1026A0001850B1E81850A0E81850BFF4F5AF5FEA31
:1026B000027C24BFB1E81850A0E8185044BF18C9E4
:1026C00018C0BDE810405FEA827C24BF51F8043B8B
:1026D00040F8043B08BF7047D20728BF31F8023BDF
:1026E00048BF11F8012B28BF20F8023B48BF00F873
:1026F000012B704700487047C0F500200048704724
:10270000C8F5002000487047C0F5002070477047AA
:102710007047704738B504460A4600206946AFF353
:102720000080002808BF38BD02460099204600F00E
:102730007EF8012038BD012000F099B8F8B5AFF35C
:102740000080054600200C46102000BF0646A81950
:10275000A0420DD9324669460020AFF30080070041
:1027600008BF00F084F80098A04218BF0546C419BD
:10277000FFF7C4FF05600746F01D20F0070046196B
:10278000284600F00AF8B44208BFF8BDA21B314643
:102790003868BDE8F84000F04AB800210160C0E99F
:1027A000011070471020704730B503461D781DB1E9
:1027B0000A4603E0AC4201D1181A30BD12F8014BB1
:1027C000002CF7D15B1CF1E730B503461D783DB115
:1027D0000A4612F8014B1CB1AC42FAD15B1CF5E77A
:1027E000181A30BD7546FFF785FFAE4605006946ED
:1027F000534620F00700854618B020B5FFF77EFD50
:10280000BDE820404FF000064FF000074FF00008F1
:102810004FF0000B21F00701AC46ACE8C009ACE872
:10282000C009ACE8C009ACE8C0098D467047034652
:1028300040688C46002818BF88423CBF0346406869
:10284000F8D318681844884207D00CF1030020F030
:102850000700001D411A521A0146081D0A60FFF7C1
:10286000C2BE0446AFF300802046FFF7E1FC10B57E
:1028700000F010F8BDE8104000F007B8014918203A
:10288000ABBEFEE7260002007047002801D0FFF72C
:10289000F5BF704710B5012805D0002103A000F056
:1028A00021F8012010BD09A1F8E700005349475263
:1028B000544D454D3A204F7574206F662068656110
:1028C00070206D656D6F7279000000003A204865D8
:1028D0006170206D656D6F727920636F72727570B3
:1028E0007465640070B505460C460A2000E06D1C56
:1028F00000F011F835B128780028F8D102E0641C06
:1029000000F009F814B120780028F8D1BDE8704033
:102910000A20AFF3008008B569468DF80000032057
:10292000ABBE08BD10B50021014812F001FD10BD7D
:102930008C09002010B50121014812F0F9FC10BDEE
:102940008C09002010B5024812F022FD10BD0000D5
:102950008C09002010B50021014812F0E9FC10BDDF
:10296000A409002010B50121014812F0E1FC10BDBE
:10297000A409002010B5024812F00AFD10BD0000A5
:10298000A409002070B504460D46204616F00EFD41
:10299000204617F0E7FC2946204616F00FFC0649B2
:1029A00051F82400022116F0C6FD034951F8240015
:1029B000012116F0C0FD70BD50D701080146CA17AD
:1029C00001EB92729210A1EB820292B9642091FB0A
:1029D000F0F200FB121050B94FF4C87091FBF0F206
:1029E00000FB121008B9012070470020FCE701200D
:1029F000FAE70020F8E7000070B500260024002563
:102A000018F04CFB06463F48B6FBF0F43E48008801
:102A1000A04246D03C490C8040F2B2750EE02846F8
:102A2000FFF7CCFF30B1B4F5B77F02D3A4F5B7748C
:102A300002E006E0A4F26D14681C85B2B4F5B67F1E
:102A4000EDD800BF314805800088314988800025D5
:102A500016E02E480088FFF7B1FF30B1012D04D1F8
:102A60001D2C01D31D3C09E00CE02A48405DA0422A
:102A700003D82848405D241A00E003E0681C85B2B2
:102A80001C2CE6D200BF681C2149096860F39951EB
:102A90001F480160601C1E49096860F355411C48CD
:102AA00001601848B6FBF0F100FB11644FF461605F
:102AB000B4FBF0F11648006861F310301449086067
:102AC0004FF46160B4FBF0F100FB11403C21B0FB1E
:102AD000F1F10F48006861F38B100D4908604FF465
:102AE0006160B4FBF0F100FB11403C21B0FBF1F25E
:102AF00001FB12010648006861F305000449086003
:102B0000002070BD80510100FE030020FC03002066
:102B1000F403002000D801082DE9F05F06460F46B7
:102B200090469946DDE90AAB002440F2B270864235
:102B300003DB40F63300864202DD0120BDE8F09F52
:102B400040F2B2750AE02846FFF738FF10B11F487F
:102B5000044401E01E480444681C85B2B542F2DB1F
:102B6000781EC7B2002510E01A48405D40F2A3214C
:102B7000484304EBC0143046FFF720FF18B1012D85
:102B800001D115480444681C85B2BD42ECDBA8F1B4
:102B9000010040F2A321484304EBC014C9EB4910E3
:102BA000C0EB092004EB0014CAEB0A1004EB80040C
:102BB0005C4417F05BFC18F093FA204618F078FAA2
:102BC000204618F075FA0020B8E700000085E20101
:102BD0008033E10100D80108805101001CB540F2AA
:102BE0001B7018F00BFA40F21C7018F007FA17F07F
:102BF0003DFC0B2016F0A6FA45F65A2188422FD04C
:102C000016F0D6FA4FF4006018F052F94FF4006055
:102C100018F05EF94FF4807018F020FA40F60F00BB
:102C200018F0ECF918F076FA18F05AFA012018F0BA
:102C30004FFA18F055FA47F6FF7018F05BFA18F0E3
:102C40004FFA0B20009003461B220521019040F211
:102C5000E570FFF761FF45F65A210B2016F08EFA5A
:102C60001CBD000010B51848006840F0010016496E
:102C700008600846406815490840134948600846FE
:102C8000006813490840104908600846006820F4AD
:102C900080200860084640680E4908400A4948609C
:102CA0000020C862084600680B49084006490860D1
:102CB0004FF47F00886018F04FFB084CA4F25114C9
:102CC0000748046010BD0000001002400C00FFE047
:102CD000FFFFF6FEFFFF00DFFFFFF6EA51210008CD
:102CE00008ED00E010B5024815F0C8FD10BD000069
:102CF000DC09002070B504460D46204618F01EFC85
:102D00002946204618F074FB204618F0BDFC044903
:102D100051F8240040F2053118F07FFC70BD00002E
:102D2000CCD7010810B504464021094817F012F825
:102D30002146084818F044FA00BF8021054818F0E1
:102D40006DFA0028F9D14021014817F005F810BDAF
:102D5000000801400030014010B5044640210948F8
:102D600016F0FAFF2146084818F02AFA00BF802121
:102D7000054818F053FA0028F9D14021014816F00F
:102D8000EBFF10BD000801400030014030B50246A5
:102D900002230878302802DB0878462801DD00206D
:102DA00030BD4878302802DB4878462801DD002015
:102DB000F6E70020107012E00878402802DA087860
:102DC0003038C4B20878402802DD08783738C4B2F9
:102DD000491C10789D0004FA05F52843107018006E
:102DE000A3F10105EBB2E7D10120D9E770B50346A5
:102DF0000C464FF6FF7111E013F8010B414000251E
:102E00000AE001F0010020B149104AF201004140FE
:102E100000E04910681CC5B2082DF2DB2000A4F1C7
:102E20000104E9D11088884201D1002070BD1180D1
:102E30004FF0FF30FAE7000030B50446A4480088A0
:102E4000C0F38510A2490968C1F30431C1EB011137
:102E500000EB810504EB840000EBC4009D4901EB0D
:102E60004000B0F90200A8420EDC04EB840000EB45
:102E7000C40001EB4000B0F90400A84204DD0021C9
:102E8000204608F011FE30BD04EB840000EBC400C6
:102E9000904901EB4000B0F90400A8420EDC04EBBD
:102EA000840000EBC40001EB4000B0F90600A8422A
:102EB00004DD0121204608F0F7FDE4E704EB84007F
:102EC00000EBC400834901EB4000B0F90600A842C2
:102ED0000EDC04EB840000EBC40001EB4000B0F911
:102EE0000800A84204DD0221204608F0DDFDCAE703
:102EF00004EB840000EBC400764901EB4000B0F91C
:102F00000800A8420EDC04EB840000EBC40001EBD7
:102F10004000B0F90A00A84204DD0321204608F071
:102F2000C3FDB0E704EB840000EBC400694901EB8A
:102F30004000B0F90A00A8420EDC04EB840000EB6C
:102F4000C40001EB4000B0F90C00A84204DD0421EC
:102F5000204608F0A9FD96E704EB840000EBC400CE
:102F60005C4901EB4000B0F90C00A8420EDC04EB18
:102F7000840000EBC40001EB4000B0F90E00A84251
:102F800004DD0521204608F08FFD7CE704EB84007A
:102F900000EBC4004F4901EB4000B0F90E00A8421D
:102FA0000EDC04EB840000EBC40001EB4000B0F940
:102FB0001000A84204DD0621204608F075FD62E7F6
:102FC00004EB840000EBC400424901EB4000B0F97F
:102FD0001000A8420EDC04EB840000EBC40001EBFF
:102FE0004000B0F91200A84204DD0721204608F095
:102FF0005BFD48E704EB840000EBC400354901EBBE
:103000004000B0F91200A8420EDC04EB840000EB93
:10301000C40001EB4000B0F91400A84204DD08210F
:10302000204608F041FD2EE704EB840000EBC400CD
:10303000284901EB4000B0F91400A8420EDC04EB73
:10304000840000EBC40001EB4000B0F91600A84278
:1030500004DD0921204608F027FD14E704EB840075
:1030600000EBC4001B4901EB4000B0F91600A84278
:103070000EDC04EB840000EBC40001EB4000B0F96F
:103080001800A84204DD0A21204608F00DFDFAE6EA
:1030900004EB840000EBC4000E4901EB4000B0F9E2
:1030A0001800A84202DCB5F5B46F0ADB04EB84001B
:1030B00000EBC400074901EB4000B0F90200A84250
:1030C00004DD0B21204608F0EFFCDCE60020DAE608
:1030D000F4030020C80100202DE9F74F81B0054618
:1030E000174600244FF00108029E50E005EBC40093
:1030F000407800F03F0915F8340000F0070ABAF1F3
:10310000030F02D0BAF1040F02D14FF0040807E018
:10311000BAF1020F02D14FF0020801E04FF00108AE
:1031200015F8340000F0080008281BD105EBC40096
:1031300040680090009818B9002004B0BDE8F08FF6
:103140004FF0000B09E0002231460098FFF7C4FF62
:1031500006460BF1010000F0FF0BCB45F3DBB01C82
:1031600086B211E0B9F1010F0BDD05EBC400406838
:1031700038B14FEA480000FB09F0801C304486B2A9
:1031800002E006EB480086B2601CC4B200BF15F82E
:1031900034000028AAD107B13C803046CDE730B5D5
:1031A00002460B4602240EE01878A500284100F0E4
:1031B0000F010A2903DA01F13000107002E001F179
:1031C00037001070521C2000A4F10105ECB2EBD1C5
:1031D00030BD000012490978124A12681170124974
:1031E0000978012905D1114909780E4A12685170F0
:1031F00006E00D49097819B900210A4A1268517090
:103200000B490978074A126891700A490978054AFA
:103210001268D17008490978024A12681171704722
:10322000A0030020A8040020EE020020B603002026
:10323000EF020020B4030020B703002030B508B12E
:10324000094C2060084C246844B1074C2468217064
:10325000054C24686260044C24686370024C246846
:103260000834014D2C6030BD4409002038B50546B6
:103270000C4604F1090168460AF0F8F804F10A0165
:103280000DF101000AF0F2F804F10B010DF102005A
:103290000AF0ECF804F10C010DF103000AF0E6F875
:1032A0009DF800009DF8011008449DF802100844A4
:1032B0009DF80310084400F00F0008B1002038BD4D
:1032C00004F1090008F0FAF9C0F30B00288001208E
:1032D000F5E70000F0B587B005460E461746BDF885
:1032E000180065F304000690BDF8180020F02000D7
:1032F0000690BDF8180066F38B100690BDF8180014
:1033000067F30F30069000240AE05748006830F851
:103310001400BDF81810884200D105E0601CC4B24A
:1033200052480078A042F0DC00BF50480078A0422C
:1033300001D107B0F0BD0AE04B480168601C31F8CC
:1033400010004949096821F81400601CC4B24748BC
:103350000078A042F0DC45488078401E43498870E0
:1033600008460078401E08700846807848700020A3
:1033700005900490BDF8180020F020002030069041
:10338000022304AA99023A4800680FF093FDBDF8A1
:1033900010004AF2A551884209D008460490022341
:1033A00004AA9902324800680FF020FF07E00223C8
:1033B00005AA40F602012E4800680FF07BFD2D495A
:1033C00003C9CDE90101BDF81800ADF80A00BDF848
:1033D0001410284609F01AFF0390BDF8140000EB02
:1033E0004000800000F6040081B20C2301AA2048AE
:1033F00000680FF0FBFEBDF81400401C80B2059081
:10340000BDF814001C494880BDF814000880BDF8C0
:103410001400B0F5FA6F01D100200590BDF814003A
:1034200016494881164840894989884211D1144972
:10343000488908F0BDFF12484089401C1049488166
:10344000022301F10A0246F2CE51094800680FF04A
:10345000CDFE022305AA40F60201054800680FF0E0
:10346000C5FE00BF65E70000D0030020DF07002095
:1034700000040020F4030020D8070020C00700202B
:10348000CC0700200A7802F01F02032A09D00A782C
:1034900002F01F02042A04D00A7802F01F02042A54
:1034A00018D10A88120B12B90022827106E00A882C
:1034B0000123B3EB123F01D1012282710A7802F09D
:1034C0001F020E32C2710A78C2F34012C2F1010229
:1034D000027266E10A7802F01F02062A09D00A7811
:1034E00002F01F02072A04D00A7802F01F02082AFD
:1034F00012D10A880123B3EB123F01D1022282715B
:103500000A7802F01F020B32C2710A78C2F340122D
:10351000C2F10102027244E10A7802F01F02092A94
:1035200015D10A88120B12B90422827106E00A88AA
:103530000123B3EB123F01D1032282711022C27129
:103540000A78C2F34012C2F10102027229E10A783C
:1035500002F01F021A2A04D00A7802F01F021C2A65
:103560000AD1052282711022C2710A78C2F3401278
:10357000C2F10102027214E10A7802F01F021B2A52
:103580000AD1052282712022C2710A78C2F3401248
:10359000C2F10102027204E10A7802F01F02172A46
:1035A0000AD1062282711022C2710A78C2F3401237
:1035B000C2F101020272F4E00A7802F01F020F2A3F
:1035C00019D10A880723B3EB123F02D1042282717A
:1035D00006E00A880623B3EB123F01D1062282716E
:1035E0000A88C2F38512C2710A78C2F34012C2F18E
:1035F00001020272D5E00A7802F01F02012A15D1F9
:103600000A88120B12B90022827106E00A8801238F
:10361000B3EB123F01D1012282710022C2710A78FC
:10362000C2F34012C2F101020272BAE00A7802F05B
:103630001F021D2A0AD1022282711022C2710A7849
:10364000C2F34012C2F101020272AAE00A7802F04B
:103650001F021E2A04D00A7802F01F021F2A0DD171
:10366000032282710A7802F01F02921CC2710A784A
:10367000C2F34012C2F10102027292E00A7802F033
:103680001F02122A0AD1052282711022C2710A7801
:10369000C2F34012C2F10102027282E00A7802F023
:1036A0001F02112A0DD1062282710A88C2F38512E7
:1036B0002032C2710A78C2F34012C2F101020272D2
:1036C0006FE00A7802F01F02102A15D10A88012340
:1036D000B3EB123F02D10022827104E00A88120B80
:1036E0000AB9012282710022C2710A78C2F3401223
:1036F000C2F10102027254E00A7802F01F02142A99
:103700000AD1042282710022C2710A78C2F34012E7
:10371000C2F10102027244E00A7802F01F02162A86
:103720000AD1052282710022C2710A78C2F34012C6
:10373000C2F10102027234E00A7802F01F02152A77
:103740000AD1062282710022C2710A78C2F34012A5
:10375000C2F10102027224E00A7802F01F020E2A6E
:103760000DD1002282710A88C2F385122032C27103
:103770000A78C2F34012C2F10102027211E00A7823
:1037800002F01F020D2A0CD1012282710A88C2F3B5
:1037900085122032C2710A78C2F34012C2F10102CE
:1037A0000272704701B5694648780A7800EB02203A
:1037B00080B208BD2DE9F041FB48007808B9BDE8AA
:1037C000F081002498E0012600270521F7480068D1
:1037D00014F003F90546F6480068408A06FA04F139
:1037E000084000B101270C2C06D1F24800782028AF
:1037F00001D1002700E00127EF4830F81400C0F3A2
:103800000020B8423CD106FA04F0EC49098808408F
:1038100000286FD1E84A32F81420C2F34222511C2A
:10382000E54A12F814201432D0B200220DF060FBE9
:10383000E14810F814001430012101FA00F0E049C9
:1038400009680843DE49086006FA04F0DB49098884
:103850000843DA490880D84810F8140014301E28AC
:1038600003D1287840F080002870D34810F8140065
:1038700014301F283ED1687840F08000687039E02D
:1038800006FA04F0CD490988084098B3CA4A32F8CC
:103890001420C2F34222511CC74A12F814201432D9
:1038A000D0B20022FFF716FDC34810F81400143000
:1038B00001218140C24800688843C149086006FA76
:1038C00004F0BE4909888143BC480180BA4810F819
:1038D000140014301E2803D1287800F07F002870CF
:1038E000B54810F8140014301F2803D1687800F090
:1038F0007F006870601CC4B20D2CFFF664AF00201E
:10390000B0490870B04800680088B049098888420A
:1039100017DDAF480068007800F0010020B90222EE
:10392000002101200DF0E4FAA9480068006820F0A9
:103930000100401CA649096808600220A1490870DE
:1039400012E0A3480068007800F0010020B10222D4
:1039500000210120FFF7BEFC9D480068006820F0B0
:1039600001009B49096808609748006800889949E8
:103970000988884217DA964800680078C0F340004A
:1039800020B90122002110460DF0B2FA90480068DB
:10399000006820F00200801C8D4909680860012041
:1039A0008849087012E08A4800680078C0F3400037
:1039B00020B1012200211046FFF78CFC84480068EA
:1039C000006820F0020082490968086000208249EE
:1039D00008704870887081480068008880490988AC
:1039E000884217DD7A4800680078C0F3800020B96B
:1039F0000222002103200DF07BFA75480068006860
:103A000020F00400001D7249096808600220724914
:103A1000087012E06E4800680078C0F3800020B1A2
:103A2000022200210320FFF755FC69480068006866
:103A300020F004006649096808606848006800884A
:103A400068490988884217DA614800680078C0F33D
:103A5000401020B90122002103200DF049FA5C48F2
:103A60000068006820F0200020305949096808608B
:103A700001205949087012E0554800680078C0F3E9
:103A8000401020B1012200210320FFF723FC504801
:103A90000068006820F020004D49096808604F4820
:103AA0000068808A50490988884215DD48480068C6
:103AB0000088C0F3002020B90222002106200DF06A
:103AC00017FA43480068006820F4807000F58070A1
:103AD0003F490968086012E03D4800680088C0F36B
:103AE000002020B1022200210620FFF7F3FB384816
:103AF0000068006820F480703549096808603B4818
:103B00000078002874D13548006840883449098815
:103B1000884217DD2E4800680078C0F3C00020B945
:103B20000222002104200DF0E3F929480068006812
:103B300020F008000830264909680860022026495C
:103B4000487012E0224800680078C0F3C00020B13D
:103B5000022200210420FFF7BDFB1D480068006819
:103B600020F008001A49096808601C48006880882D
:103B70001B49098888423CDD154800680078C0F37D
:103B8000001020B90222002105200DF0B1F91048E3
:103B90000068006820F0100010300D4909680860C6
:103BA00002200D49887037E0B8030020AC030020E4
:103BB00000040020BA030020AE010020B807002056
:103BC000BC030020F0070020A40300207A0100209D
:103BD000BC07002078010020E8070020C003002077
:103BE000740100207201002076010020F002002004
:103BF000A5E1FE4800680078C0F3001020B1022261
:103C000000210520FFF766FBF8480068006820F0F7
:103C10001000F64909680860F54800684088F549D1
:103C20000988884217DAF14800680078C0F38010EC
:103C300020B90122002104200DF05AF9EB48006858
:103C4000006820F040004030E84909680860012021
:103C5000E949487012E0E54800680078C0F3801038
:103C600020B1012200210420FFF734FBDF48006867
:103C7000006820F04000DD4909680860DC48006801
:103C80008088DC490988884217DAD84800680078BB
:103C9000C0F3C01020B90122002105200DF028F941
:103CA000D2480068006820F080008030CF49096861
:103CB00008600120D049887012E0CC480068007884
:103CC000C0F3C01020B1012200210520FFF702FB44
:103CD000C6480068006820F08000C4490968086090
:103CE000C3480068008841F28831884218DABF482A
:103CF00000680088C0F3403020B9002211460A2035
:103D00000DF0F6F8B9480068006820F4005000F59E
:103D10000050B649096808600320B749087012E0EE
:103D2000B24800680088C0F3403020B1002211463C
:103D30000A20FFF7CFFAAD480068006820F4005071
:103D4000AA4909680860AA480068408841F2883199
:103D5000884218DAA54800680088C0F3803020B98E
:103D6000002211460B200DF0C3F8A048006800683F
:103D700020F4804000F580409C49096808600320D9
:103D80009D49487012E0994800680088C0F380306F
:103D900020B1002211460B20FFF79CFA93480068DF
:103DA000006820F4804091490968086090480068E4
:103DB000808841F28831884218DA8C48006800888F
:103DC000C0F3C03020B9002211460C200DF090F84D
:103DD00086480068006820F4004000F500408349F0
:103DE0000968086003208449887012E07F480068F1
:103DF0000088C0F3C03020B1002211460C20FFF72C
:103E000069FA7A480068006820F400407749096838
:103E10000860764800680088C0F34030E8B1734815
:103E200000680088C0F38030B8B17048006800882E
:103E3000C0F3C03088B171480078F8B901206F49EB
:103E40000870E0206C49C87102206D490870082292
:103E500000211A200DF04CF810E068480078012885
:103E60000CD1002065490870082200211A20FFF7B4
:103E700031FA00206049C871614908705C480068E7
:103E8000C08A60490988884215DD58480068008862
:103E9000C0F3402020B90222002107200DF028F8AD
:103EA00052480068006820F4007000F500704F4927
:103EB0000968086012E04D4800680088C0F340209F
:103EC00020B1022200210720FFF704FA47480068CA
:103ED000006820F40070454909680860444800689B
:103EE000008B48490988884215DD404800680088F1
:103EF000C0F3802020B90222002108200CF0F8FF36
:103F00003A480068006820F4806000F58060374916
:103F1000096808604EE0354800680088C0F38020DA
:103F200020B1022200210820FFF7D4F92F480068B1
:103F3000006820F480602D49096808603AE02C4848
:103F40000068008841F2883188421BDA27480068FF
:103F50000088C0F3403068BB24480068006820F443
:103F6000005000F50050214909680860E02022490E
:103F7000C871022022490870082200211A200CF082
:103F8000B7FF17E0194800680088C0F3403088B1D7
:103F900016480068006820F4005014490968086059
:103FA000082200211A20FFF795F900201249C87154
:103FB0001349087000201049C870134800880A216E
:103FC00090FBF1F00A490968C988884229DA074854
:103FD00000680088C0F3C02020B902220021092017
:103FE0000CF086FF0148006800680FE0BC07002065
:103FF000C003002072010020E8070020F107002024
:10400000F2070020760100207C01002020F40060EF
:1040100000F50060FB49096808600220FA49C87091
:1040200015E0F84800680088C0F3C02020B10222E3
:1040300000210920FFF74EF9F2480068006820F4DB
:104040000060F049096808600020EF49C870EF4837
:1040500000880A2190FBF1F0ED490968C98888427F
:1040600018DDE84800680088C0F3003020B901225C
:10407000002109200CF03CFFE2480068006820F4B1
:10408000805000F58050DF49096808600120DE4952
:10409000C87015E0DB4800680088C0F3003020B12C
:1040A000012200210920FFF715F9D64800680068B1
:1040B00020F48050D349096808600020D249C870B4
:1040C0000521D448006813F088FC06460124002529
:1040D00048E0705D01280FD1CF480068204028B922
:1040E000681CC1B206220F200CF002FFCA4800680B
:1040F0002043C94908600EE0C7480068204028B145
:10410000681CC1B206220F20FFF7E4F8C24800681D
:10411000A043C1490860C14800684069204078B99F
:10412000BF480068204028B9681CC1B207220F2090
:104130000CF0DEFEBA4800682043B94908600EE082
:10414000B7480068204028B1681CC1B207220F2080
:10415000FFF7C0F8B2480068A043B14908606400A6
:10416000681CC5B2AF488078A842B2DCAE4800688F
:10417000B0F92600AD490988884218DDA1480068D9
:104180000068C0F3004038B90222002110200CF072
:10419000AFFE0220A64908709A480068006820F423
:1041A000803000F5803097490968086015E095482F
:1041B00000680068C0F3004038B1022200211020DE
:1041C000FFF788F800209A4908708E480068006858
:1041D00020F480308B490968086093480068B0F982
:1041E00026009449098809B288421FDA8E4800687F
:1041F000B0F926009049884218DD824800680068BE
:10420000C0F3404038B90122002110200CF070FEAC
:104210000120874908707B480068006820F400305E
:1042200000F5003077490968086015E075480068B6
:104230000068C0F3404038B1012200211020FFF790
:1042400049F800207A4908706E480068006820F438
:1042500000306C490968086073480068B0F90400D0
:1042600010F10F0F02DB6F484078A8B9654800686D
:104270000068C0F3C04020B90022114613200CF0A2
:1042800037FE60480068006820F4002000F5002038
:104290005C490968086012E05A4800680068C0F389
:1042A000C04020B1002211461320FFF713F85548F3
:1042B0000068006820F400205249096808605F48DF
:1042C0000078012856D15848006800885C49098860
:1042D000884224DA80205B4908704A4800680068F8
:1042E000C0F3804070B90022114612200CF000FE8D
:1042F00044480068006820F4802000F5802041498F
:10430000096808605048007898BB50480068007CF5
:1043100020F0200020304D4909680874B9E0424877
:10432000006801884648008800F5FA70814220DD67
:1043300046480068007C20F0200044490968087461
:104340000020404908702F4800680068C0F3804092
:1043500038B1002211461220FEF7BCFF1E203A4958
:10436000087028480068006820F480202549096802
:1043700008608EE03148007802286CD1344800880B
:1043800008BB32480068007C20F0200020302F4914
:104390000968087480202B4908701A480068006872
:1043A000C0F3804020B90022114612200CF0A0FD7D
:1043B00014480068006820F4802000F5802011492E
:1043C0000968086065E021480068007C20F0200052
:1043D0001E490968087400201A49087009480068D5
:1043E0000068C0F3804020B1002211461220FEF781
:1043F00071FF04480068006820F4802001490968C2
:10440000086046E0BC070020E80700207E0100208D
:10441000C0030020A8030020F8070020A407002004
:10442000000800209C070020A40300208001002039
:10443000F307002082010020ACF4FFFFF30200200C
:1044400084010020F4070020D7030020000400208E
:10445000D4030020FFE76E480068007C20F02000B5
:104460006B490968087400206A4908706A48006846
:104470000068C0F3804020B1002211461220FEF7F0
:1044800029FF65480068006820F4802062490968B7
:1044900008606248007858B961480078A0B90622DF
:1044A000002113200CF024FD01205D4908700BE071
:1044B0005B480078012807D1062200211320FEF76F
:1044C00009FF00205649087056480068B8B9564898
:1044D000006856490968084088B95548006853493A
:1044E0000968084058B95348008840B952480078D4
:1044F00028B95248007810B94948007818B103200B
:104500000CF0C8FD02E000200CF0C4FD4548006836
:104510004B49084018B101204A49087002E00020C8
:10452000484908703F48007800F0030018B10120A6
:104530004449487002E00020424948703A48006807
:104540003A49096808403A490968384A12681140EE
:10455000084318B101203B49887002E00020394926
:1045600088703048006800F0604018B1012035497B
:10457000C87002E000203349C8702A4800683249F8
:10458000084018B101202F49087102E000202D4990
:1045900008712C4800782B494978084429498978C2
:1045A00008442849C978084426490979084400285C
:1045B00003DD01202349487102E0002021494871B0
:1045C00000241FE0214830F81400000B002817DDFC
:1045D0001E4830F814000121C1EB10301949085C65
:1045E00038B1C4F10D00C1B2094800680EF0D2FB29
:1045F00006E0C4F10D00C1B2054800680EF0C2FB30
:10460000601CC4B2052CDDDB00BFFFF7D8B800008A
:1046100000040020F4070020BC0700202C0000202C
:10462000F5070020BC030020F8070020B408002094
:1046300000080020B8070020F1070020F60700203E
:10464000FCFF000CE207002000007303AE01002015
:104650002DE9F0470746884691460024A2460020EF
:10466000A9F80000B8F1000F22D1012F01D0032FCB
:1046700047D12E48FDF76CFEC6B206F11600C5B252
:10468000284616F09BFA044614B90020BDE8F087CE
:1046900029462046FDF7D4FE254801682160808820
:1046A000A0803246214904F11300FDF77CFE28E08A
:1046B0002048FDF74DFEC6B24046FDF749FE00F02A
:1046C000FF0A06F113005044C01CC5B2284616F07C
:1046D00075FA04460CB90020D8E729462046FDF7B4
:1046E000AFFE1348016821608088A08032461149DE
:1046F00004F11300FDF757FE414604F11300FDF7E6
:1047000046FE0120E0802772A4F8095006F113004C
:1047100050440219E91E2046FEF768FB0D21681E71
:104720002152A9F800502046B0E7000017D8010830
:104730000CD8010826D8010830E0FEF75DF91848CA
:10474000026818480168184800680EF049FE1748CA
:1047500000680FF02AFF1648007870B91348006807
:104760000FF004F81348007860B90120114908706F
:104770000D2111480DF0ECFE04E000220D210E4841
:104780000DF018FE0948006810F0FCFC07480068AE
:1047900007F0B4FC4FF4FA7017F078F8CDE700009A
:1047A000A8030020BC080020A40700202C0400203F
:1047B00015090020160900205801002010B50446F4
:1047C000207E617E0844C0EBC000616801EB4000C0
:1047D00081685F4800680930814210D15D480078E7
:1047E00001280CD15A480068407A5B4908705B4840
:1047F00000680EF0CDFC002056490870A7E0207E2E
:10480000617E0844C0EBC000616801EB4000406875
:104810004F490968884213D14E48007801280FD1CA
:104820004F4800784F4948434F49096808634C494D
:104830004A4800680EF0ACFC00204649087086E04B
:10484000207E617E0844C0EBC000616801EB40003F
:1048500041683F480068C01D814219D13D48007839
:10486000012815D13A480068C079122803DD1220CA
:1048700037490968C87136480068C0793B490870F3
:10488000364800680EF084FC0020324908705EE073
:10489000207E617E0844C0EBC000616801EB4000EF
:1048A0008068334988420BD12A480078012807D113
:1048B0002A4800680EF06CFC00202649087046E08B
:1048C000207E617E0844C0EBC000616801EB4000BF
:1048D0008068284988420BD11E480078012807D1FA
:1048E0001E4800680EF054FC00201A4908702EE0A3
:1048F000207E617E0844C0EBC000616801EB40008F
:1049000080681D4988420BD112480078012807D1E0
:10491000124800680EF03CFC00200E49087016E0BA
:10492000207E617E0844C0EBC000616801EB40005E
:104930008068124988420AD106480078012806D1C9
:10494000064800680EF024FC00200249087010BDE3
:10495000A804002028040020EA020020000400200F
:10496000F90200208051010034000020FE020020E6
:104970006A0100206C0100206E01002070010020FF
:104980007CB504462448007858BB207C032841D0DD
:104990002248808822490968088020480068C0F3BE
:1049A00083501F49096848801C480068C0F3444090
:1049B0001B490968888019480068C0F30430184909
:1049C0000968C88015480088C0F385101449096833
:1049D00008811248007800F03F00114909684881B9
:1049E00018E00F480068807A0D490968097A0C4D73
:1049F000CDE900102D68AB79094D2D682A79084D55
:104A00002D68A978064D2D682888FEF785F80020C6
:104A1000014908707CBD000028040020F403002038
:104A2000A804002070B50446AD4800680078052849
:104A300003DD0120AA4909680870A9480068407888
:104A40000C2803DD0120A64909684870A4480068C5
:104A5000007818B90520A24909680870A0480068C4
:104A6000407818B90C209E49096848709C48006835
:104A700000789C4908709A48006840789A49087004
:104A8000207E617E0844C0EBC000616801EB4000FD
:104A9000416893480068801C814222D19348007885
:104AA00001281ED10020914908708D4B1B68DA78CF
:104AB0008B4B1B6899788A4B1B681B785B1ED8B29E
:104AC00007F02EF9864800680078401E00EB80024F
:104AD00002EBC000864A02EB4001864800680EF0F7
:104AE00057FB207E617E0844C0EBC000616801EB8B
:104AF000400041687A480068801D81422ED17B4881
:104B0000007801282AD1002078490870744D2D685A
:104B1000EB79734D2D68AA79714D2D686D786D1EF6
:104B2000E9B26F4D2D682D786D1EE8B207F0C8FC14
:104B30006B4800680078401E00EB800202EBC0006A
:104B40006B4A02EB4000801C654A12685278521E84
:104B500000EB4201674800680EF01AFB207E617E80
:104B60000844C0EBC000616801EB400081685C480C
:104B700000680A3081422BD15C480078012827D197
:104B800000205A490870564B1B689A7A544B1B6890
:104B90005B785B1ED9B2524B1B681B785B1ED8B288
:104BA00007F0EAF94E4800684078451E05EBD570DD
:104BB00042104B4800680078401E00EB400002EBBA
:104BC00040004D4A81184B4800680EF0E1FA86E03B
:104BD000207C032805D1207C0328F8D1607E0028A2
:104BE0007DD13F4800680578681E00EB800101EB2D
:104BF000C0003F4931F8100086B2002238480168F1
:104C0000891C304607F08AFB052D00D1002505EBF5
:104C1000850000EBC500364931F81060701E86B281
:104C200000222F480168091D304607F077FB012854
:104C300007D00C202A49096808711F2028490968F3
:104C40004871274800684578254800680078401E6C
:104C500000EB800101EBC000254901EB4000801C06
:104C6000691E30F8110086B200221D480168891DB6
:104C7000304606F033FF0C2D00D10025184800689F
:104C80000078401E00EB800101EBC000184901EBE9
:104C90004000801C30F81560701E86B2002210485B
:104CA00001680831304606F019FF012807D01720A7
:104CB0000B49096808723B20094909684872084A8B
:104CC00012685278521ED1B2054A12681278521EEA
:104CD000D0B206F0E9FE02490968887200BF70BDD3
:104CE000A8040020AA070020AB0700202804002009
:104CF000C801002000040020000300202DE9F0413D
:104D000005460E461746012F0FD100240AE006EB98
:104D1000440006F0D3FC05EB8401134A126850549A
:104D2000601CC4B2142CF2DB1CE0002007E0202140
:104D300005EB80020C4B1B689954411CC8B2142827
:104D4000F5DB00200CE0315C0A2901D1BDE8F081DF
:104D5000315C05EB8002044B1B689954411CC8B2BE
:104D60001428F0DB00BFF1E79C03002010B53648A3
:104D7000007800B910BD354A1268C2F34441334A85
:104D80001268C2F3835007F089F984B23048B0F951
:104D90000000A0420ADC2E48B0F91A00A04205DD4E
:104DA0000020FEF749F82B4908704AE02848B0F97E
:104DB0001A00A0420ADC2648B0F93400A04205DD02
:104DC0000120FEF739F8234908703AE02048B0F98D
:104DD0003400A0420ADC1E48B0F94E00A04205DDB6
:104DE0000220FEF729F81B4908702AE01848B0F99C
:104DF0004E00A0420ADC1648B0F96800A04205DD6A
:104E00000320FEF719F8134908701AE01048B0F9AA
:104E10006800A04205DCB4F5B77F09DBB4F5B77FC5
:104E200006DD0B48B0F90000A04207DD012C05DBD0
:104E30000420FEF701F80749087002E00020054948
:104E4000087000BF96E70000EE020020F403002087
:104E5000C8010020B60300202DE9F04105460E46AA
:104E60000027EC1D0A20884908706078012864D169
:104E700005F11308404606F0A5FB401C10B90020C0
:104E8000BDE8F0818148006808B90020F8E780A1FA
:104E90007E480068FDF71EFB18B97F487F4908600F
:104EA00015E07FA179480068FDF714FB18B97E482A
:104EB0007A4908600BE07DA174480068FDF70AFBA1
:104EC00018B97C487549086001E00020D8E77A48A5
:104ED000006808B90020D3E7784977480068FDF7F3
:104EE000F9FA002801DC0020CAE77548006808B913
:104EF0000020C5E773A172480068FDF7EBFAA8B976
:104F000001207249087040F216407149088032460B
:104F100000210120FFF79CFB074600206D49087027
:104F200001206D49088014F093FE05E032466B497C
:104F30000120FFF78DFB0746A4E06078022803D12B
:104F4000624800780128F7D06078032857D15F487D
:104F50000078012853D105F21342810205F11300B4
:104F6000FDF744FF80BB20895B49098888421FD137
:104F700005F113015848008807F0E2FA012058496A
:104F80000870324600210320FFF762FB074600202D
:104F900050490870A08850490988884202D11620DB
:104FA0004B4908804C480088401C4B49088069E008
:104FB00048480078401C47490870084600780A288D
:104FC00003DD06F061FD5DE006E032464549032061
:104FD000FFF73EFB074655E03E480078401C3D4940
:104FE0000870084600780A2802DD06F04DFD49E009
:104FF00032463D490120FFF72BFB074642E060782F
:1050000004282AD131480078012826D13248008866
:10501000401EA188884235D12F480088401E810259
:1050200005F113021D480068FDF7E0FE18BB14F0FF
:1050300083FD0020254908701848006816498842F9
:1050400020D145F65A21152014F098F8A188162091
:1050500014F094F80CF046F914E06078052811D1AA
:105060001C480078401C1B490870084600780A2834
:1050700002DD06F009FD05E032461C490120FFF77C
:10508000E7FA07463846FBE64C08002034080020C3
:10509000436F64650000000000000808400800201D
:1050A00048544D4C0000000000500408466F6E74D8
:1050B00000000000000004083808002013D8010890
:1050C0003C08002055706772616465004508002047
:1050D000480800204A0800204608002079D8010826
:1050E0004B08002061D801083FD8010851D80108B9
:1050F00003B59DB000201C901D984078412841F0D8
:1051000047811D98007840287ED1FE4800681B909A
:105110001B9800880E9018F0CDF8FB490F9017F0FF
:10512000B3FF10901B9840880E9018F0C3F8F64912
:105130000F9017F0A9FF11901B9880880E9018F01F
:10514000B9F8F1490F9017F09FFF12901B98C08893
:105150000E9018F0AFF8ED490F9017F095FF1390EF
:105160001B9880680E9018F0A5F8E7490F9017F08B
:105170008BFF14901B98408A0E9018F09BF8E24920
:105180000F9017F081FF15901B98808A0E9018F0F1
:1051900091F8DD490F9017F077FF16901B98C08AA1
:1051A0000E9018F087F8D8490F9017F06DFF179000
:1051B0001B98C08B0E9018F07DF8D3490F9017F014
:1051C00063FF18901B98C0680E9018F073F8CE49D2
:1051D0000F9017F059FF199000201A90CC480078D2
:1051E00001287DD10020CA49087013200F900020AB
:1051F0000E900EA81E99FDF7C9FD9DF83800FF28F6
:1052000005D10F98401C00E018E1C0B20F900F9834
:10521000C0000C9015F0D2FC0D900D98002866D0BF
:105220000D9830300C900123BA4A19460D98FEF7BC
:1052300005F89DF83800FF2808D1012300221946FF
:105240001046FDF7FBFF0D9838300C900123092123
:1052500000200C9AFDF7F2FF012315AA042100207B
:10526000FDF7ECFF012316AA04210020FDF7E6FF5D
:10527000012317AA04210020FDF7E0FF00231A46AE
:1052800019461846FDF7DAFF012310AA0421002071
:10529000FDF7D4FF012311AA04210020FDF7CEFF62
:1052A000012312AA04210020FDF7C8FF012313AA3D
:1052B00004210020FDF7C2FF0123002219461046F9
:1052C000FDF7BCFF012314AA04210020FDF7B6FF5F
:1052D00000231A4601211846FDF7B0FF002300E025
:1052E00012E01A4619461846FDF7A8FF00BF002332
:1052F0001A4619460D9809F039F81C900D9816F0C9
:1053000069FA00200D9098E0802015F057FC0F906E
:105310000F9830300E900F9800287DD001237D4AE1
:1053200019460F98FDF78AFF0123092100200E9AE4
:10533000FDF784FF012315AA04210020FDF77EFF5D
:105340007548007860B9012316AA04210020FDF7F2
:1053500075FF012317AA04210020FDF76FFF0BE062
:105360008123002204211046FDF768FF81230022DB
:1053700004211046FDF762FF00231A46194618461D
:10538000FDF75CFF012310AA04210020FDF756FF62
:105390006148007860B9012311AA04210020FDF7BB
:1053A0004DFF012312AA04210020FDF747FF0BE067
:1053B0008123002204211046FDF740FF81230022B3
:1053C00004211046FDF73AFF012313AA042100200F
:1053D000FDF734FF0523002201211046FDF72EFFC3
:1053E000012314AA04210020FDF728FF012319AA94
:1053F00004210020FDF722FF012318AA0421002028
:10540000FDF71CFF01231AAA04210020FDF716FF57
:1054100000231A46194600E002E01846FDF70EFF89
:1054200000231A4619460F9808F0A0FF1C900F9809
:1054300016F0D0F900200F9000BF00BF1D98007833
:10544000412871D101213548006812F0C6FA1B903D
:1054500003213248006812F0C0FA1A9006212F4842
:10546000006812F0BAFA199008212C48006812F06E
:10547000B4FA18902A488078800000EB400015901C
:1054800015F09CFB179027480068B0F900001490B5
:1054900017F0F8FE1C49159017F0F6FD1690002045
:1054A000159068E015991898405C022849D1159923
:1054B0001B9830F81100139017F0FCFE124914905D
:1054C00017F0E2FD159A179941F8220015991A98DC
:1054D00030F81100139017F0EDFE0B49149017F0FF
:1054E000D3FD0F498A7815990A44179941F822008B
:1054F0001599199830F81100139017F0DBFE024946
:10550000149012E0C00300200000C84200002041B7
:105510004408002031090020F0020020A8030020E8
:105520009C070020A4030020E6E017F0ADFDFE4933
:105530008A780223159903FB0212179941F8220079
:1055400015E000221599179840F821200021F6480F
:10555000827815980244179840F82210F248827811
:105560000223159803FB0202179840F822101598A1
:10557000401CC0B21590EC4881781598814291DCAE
:10558000EA480078012857D1482015F017FB1590FC
:105590001598E8B30123E64A19461598FDF74EFE23
:1055A000012316AA04210020FDF748FEDE4880787A
:1055B00003461490159A203209210020FDF73EFE83
:1055C00000231A4619461846FDF738FE0123042128
:1055D0000020179AFDF732FE0123002219461046DB
:1055E000FDF72CFED0488178179800EB810001234D
:1055F0000246042114900020FDF720FE00231A46E5
:1056000001211846FDF71AFE00231A46194600E04C
:1056100002E01846FDF712FE00231A4619461598B7
:1056200008F0A4FE1C90159816F0D4F8179816F000
:10563000D1F8002015905EE0482015F0BFFA1590D3
:105640001598E8B30123BA4A19461598FDF7F6FDF7
:10565000012316AA04210020FDF7F0FDB24880784E
:1056600003461490159A203209210020FDF7E6FD2B
:1056700000231A4619461846FDF7E0FD01230421D0
:105680000020179AFDF7DAFD0223002201211046BF
:10569000FDF7D4FDA4488178179800EB8100012321
:1056A0000246042114900020FDF7C8FD9E48807832
:1056B0004100179800EB810001230246042100E01D
:1056C00009E014900020FDF7B9FD00231A461946A1
:1056D0001846FDF7B3FD00231A461946159808F041
:1056E00045FE1C90159816F075F8179816F072F88C
:1056F0000020159000BF00BF1D98007842287DD182
:105700001A20109000200F900FA81E99FDF73EFB65
:105710009DF83C00FF2803D11098401CC0B21090A7
:105720001098C0000D9015F049FA0E900E980028C0
:1057300065D080480068B0F90000079017F0A2FD1E
:105740007D49089017F0A0FC11907A480068B0F9E4
:105750000A00079017F096FD7849089017F094FC1E
:10576000129074480068B0F90400079017F08AFDA1
:105770007249089017F088FC13906E480068B0F9E1
:105780000000079017F07EFD6B49089017F07CFC35
:1057900014906B48008817F08DFD079065480068ED
:1057A000007B039017F086FD6649049017F0CAFD50
:1057B0006549059017F068FC0690079917F0C2FD3F
:1057C0000890129801460790089817F05DFC159014
:1057D00015985E49089017F081FE01D25B4815903C
:1057E0005748008817F066FD089052480068007B13
:1057F000059017F05FFD5449069001E029E11BE197
:1058000017F042FC0790089917F09CFD1690494844
:105810000068B0F92600079017F034FD464908905B
:1058200017F032FC17904A48006800680A21B0FB64
:10583000F1F0089017F03EFD19904FF07E5018904F
:1058400000201A903B480068B0F90200079017F05A
:1058500019FD3A49089017F017FC1B900B213D48A1
:10586000006812F0BAF80D900D980088079017F0B4
:1058700021FD3249089017F007FC09900D984088E7
:10588000079017F017FD2D49089017F0FDFB0A90BF
:105890000D988088079017F00DFD2849089017F0A3
:1058A000F3FB0B900D98C088079017F003FD234978
:1058B000089017F0E9FB0C9001231D4A19460E9839
:1058C000FDF7BCFC9DF83C00FF2805D10123002218
:1058D00019461046FDF7B2FC012311AA042100204D
:1058E000FDF7ACFC012312AA04210020FDF7A6FC61
:1058F0000123002219461046FDF7A0FC012313AA3C
:1059000004210020FDF79AFC042300220121104607
:10591000FDF794FC012309AA04210020FDF78EFC69
:1059200001230AAA042117E09C0700204408002054
:1059300031090020A40300200000C84200002041DB
:10594000680100200000704200401C460000B44482
:10595000C4030020AC0300200020FDF76FFC0123EE
:105960000BAA04210020FDF769FC01230CAA0421E5
:105970000020FDF763FC0E23002201211046FDF7F5
:105980005DFC012314AA04210020FDF757FC01232C
:1059900015AA04210020FDF751FC012316AA0421B9
:1059A0000020FDF74BFC012318AA04210020FDF77D
:1059B00045FC012317AA04210020FDF73FFC012329
:1059C00018AA04210020FDF739FC012319AA04219B
:1059D0000020FDF733FC01231BAA04210020FDF762
:1059E0002DFC01231AAA04210020FDF727FC012326
:1059F0001AAA04210020FDF721FC01231AAA042180
:105A00000020FDF71BFC01231AAA04210020FDF74A
:105A100015FC01231AAA04210020FDF70FFC012325
:105A20001AAA04210020FDF709FC00231A46194692
:105A30001846FDF703FC00BF00231A4619460E98CE
:105A400008F094FC1C900E9815F0C4FE00200E90F7
:105A500000BF1D980078E22875D10B21FE48006830
:105A600011F0BBFF1B90FD480021016041600181E6
:105A70000020119015E0FA491198085C00280CDD0F
:105A80001198085C401EF549085C401CC1B2F44AFC
:105A90001198105C401EF14A11541198401CC0B27C
:105AA000119011980A28E6DB00201A9011900CE062
:105AB000EA491198085C002803DD1A98401CC0B21E
:105AC0001A901198401CC0B2119011980A28EFDB6F
:105AD0000020199018901A988000119015F06EF817
:105AE0001990199810B900201FB000BD1A988000B5
:105AF000014611901998FCF7C5FC1A988000119086
:105B000015F05CF81890189808B90020ECE71A987E
:105B10008000014611901898FCF7B4FC1A98119077
:105B200015F04CF81790179808B90020DCE71A997F
:105B30001798FCF785FC0020169001201590149012
:105B40000020119030E0EDE11498159022E0002043
:105B5000109010E0C2491098095C1598814206D156
:105B6000119A1799159888540120169006E01098FC
:105B7000401CC0B2109010980A28EBDB1698012840
:105B800004D11598401CC0B2149006E01598401C32
:105B9000C0B2159015980A28D9DD00BF00201690D4
:105BA0001198401CC0B211901A9911988842CBDB11
:105BB0000020119048E0002010903EE011991798C5
:105BC000415CA74A1098105C814232D110991B9811
:105BD00030F811000D9017F06DFBA2490E9017F0F0
:105BE00053FA0F901199199850F8210001460E9020
:105BF0000F9817F0DBF9119A199941F822009A4889
:105C00000168109851F820000D9017F053FB95494A
:105C10000E9017F039FA0F901199189850F821004A
:105C200001460E900F9817F0C1F9119A189941F892
:105C300022001098401CC0B2109010980A28BDDBBA
:105C40001198401CC0B211901A9911988842B2DB89
:105C50000020139013A81E99FDF798F88348007848
:105C600001287DD19DF84C00FF283FD1402014F041
:105C7000A5FF12901298002837D001237C4A1946BC
:105C80001298FDF7DBFA129A1832092100201A9BAC
:105C9000FDF7D4FA00231A4619461846FDF7CEFA46
:105CA000012304210020199AFDF7C8FA01230022DC
:105CB00019461046FDF7C2FA012304210020189A64
:105CC000FDF7BCFA00231A4601211846FDF7B6FA83
:105CD00000231A4619461846FDF7B0FA00231A4663
:105CE0001946129808F042FB1C900CE1002011901C
:105CF00010901B980088069017F0DCFA594907901D
:105D000017F0C2F90C901B984088069017F0D2FA51
:105D10005449079017F0B8F90D901B9880880690A9
:105D200017F0C8FA4F49079017F0AEF90E901B987C
:105D3000C088069017F0BEFA4A49079017F0A4F9F8
:105D40000F90494800680068069017F0B3FA45497B
:105D5000079017F099F9089043480068406800E000
:105D600099E0069017F0A6FA3E49079017F08CF9D3
:105D700009903D4800688068069017F09BFA394901
:105D8000079017F081F90A9037480068C0680690BC
:105D900017F090FA3349079017F076F90B9000202E
:105DA00007902BE02E490798085C9DF84C1088421C
:105DB00020D1BDF8440017F07DFA0CA90590079892
:105DC00051F8200001460490059817F0EFF806906E
:105DD00017F038FA80B21190109817F06BFA05900E
:105DE000089801460490059817F0E0F8069017F01F
:105DF00029FA10900798401CC0B2079007980A280B
:105E0000D0DB302014F0DAFE1290129890B39DF897
:105E10004C0005283EDA9DF84C0000283ADD0123AD
:105E2000134A19461298FDF709FA012311AA042111
:105E30000020FDF703FA0123002219461046FDF762
:105E4000FDF9012310AA04210020FDF7F7F9002332
:105E50001A46012118460EE0AC03002034F500205C
:105E60002709002000002041C4030020440800202E
:105E7000310900200EE0FDF7E1F900231A4619462A
:105E80001846FDF7DBF900231A461946129808F068
:105E90006DFA1C9037E0402014F090FE129012989A
:105EA00088B30123FE4A19461298FDF7C7F9129AE2
:105EB0001832092100201A9BFDF7C0F900231A4669
:105EC00019461846FDF7BAF9012304210020199A52
:105ED000FDF7B4F90123002219461046FDF7AEF98B
:105EE000012304210020189AFDF7A8F900231A467F
:105EF00019461846FDF7A2F900231A4619461298CA
:105F000008F034FA1C90179815F064FC199815F0F5
:105F100061FC189815F05EFC129815F05BFC0020EF
:105F2000129000BF1D980078432876D10021DD48EB
:105F3000006811F052FD1B900121DA48006811F051
:105F40004CFD1A900321D748006811F046FD1990C6
:105F50000621D448006811F040FD18900821D1486E
:105F6000006811F03AFD1790CF4880780001159035
:105F700014F024FE16900020159072E015991798E1
:105F8000405C03284AD115991B9830F811001390F2
:105F900017F090F9C549149017F076F8DDE915214E
:105FA00041F8220015991A9830F81100139017F053
:105FB00081F9BE49149017F067F8BB498A781599A2
:105FC0000A44169941F822001599199830F81100E1
:105FD000139017F06FF9B549149017F055F8B249BE
:105FE0008A780223159903FB0212169941F82200C0
:105FF0001599189830F81100139017F05BF9AB4918
:10600000149017F041F8A8498A780323159903FBE7
:106010000212169941F822001FE0E3E00022DDE9B8
:10602000151040F8212000219F48827815980244DD
:10603000169840F822109C4882780223159803FB9A
:106040000202169840F82210974882780323159888
:1060500003FB0202169840F822101598401CC0B2AB
:106060001590914881781598814287DC9048007896
:1060700001284FD1402014F0A1FD15901598C8B308
:106080000123874A19461598FDF7D8F88648807885
:1060900003461490159A183209210020FDF7CEF816
:1060A00000231A4619461846FDF7C8F801230421B3
:1060B0000020169AFDF7C2F87B488178169800EB0D
:1060C000810001230246042114900020FDF7B6F858
:1060D00000231A4601211846FDF7B0F800231A469E
:1060E00001211846FDF7AAF800231A46194618465A
:1060F000FDF7A4F800231A461946159808F036F95A
:106100001C90159815F066FB00201590169815F058
:1061100061FB66E0482014F051FD15901598E8B336
:1061200001235F4A19461598FDF788F85E48807884
:1061300003461490159A183209210020FDF77EF8C5
:1061400000231A4619461846FDF778F80123042162
:106150000020169AFDF772F853488178169800EBE4
:10616000810001230246042114900020FDF766F807
:106170000223002201211046FDF760F84A4880788A
:106180004100169800EB810001230246042114907F
:106190000020FDF753F84448807800E011E000EB60
:1061A0004001169800EB810001230246042114905F
:1061B0000020FDF743F800231A4619461846FDF75C
:1061C0003DF800231A461946159808F0CFF81C90A0
:1061D000159815F0FFFA00201590169815F0FAFAA8
:1061E00000BF00BF1D980078E12845F0E6817020CF
:1061F00014F0E4FC1B901B98002867D02D48006821
:1062000090F826000D9017F055F828490E9016F0DA
:106210003BFF0F902748006890F828000E9017F079
:1062200049F810902448008817F044F80D9023484E
:106230000068007E0B9017F03DF80C900D9917F058
:1062400081F81F490E9016F01FFF11901A48008820
:1062500017F030F80D9019480068007E0B9017F089
:1062600029F80C900D9917F06DF815490E9016F05D
:106270000BFF12901348008817F01CF813900D487C
:106280000068007B0D9017F015F808490E9016F085
:10629000FBFE149005481590094817900A4816E02F
:1062A00031090020A80300209C0700200000C842FC
:1062B00044080020A40300208C010020A407002033
:1062C00000002041680100200000C04152E0189009
:1062D000002019901A900123FC4A19461B98FCF7DC
:1062E000ADFF01230FAA04210020FCF7A7FF012323
:1062F00010AA04210020FCF7A1FF012311AA042108
:106300000020FCF79BFF012312AA04210020FCF7C8
:1063100095FF012313AA04210020FCF78FFF01231E
:1063200014AA04210020FCF789FF012315AA0421E7
:106330000020FCF783FF012317AA04210020FCF7AB
:106340007DFF012318AA04210020FCF777FF012319
:1063500019AA04210020FCF771FF01231AAA0421C5
:106360000020FCF76BFF00231A4619461846FCF77D
:1063700065FF00BF00231A4619461B9807F0F6FF79
:106380001C901B9815F026FA00201B9005F015B9FB
:106390001D98407843287DD11D980078402859D118
:1063A00007201B9000201A9019901AA81E99FCF73C
:1063B000EDFC9DF86800FF2803D11B98401CC0B27B
:1063C0001B901B98C000179014F0F8FB18901898B9
:1063D00098B30123BD4A19461898FCF72FFF9DF882
:1063E0006800FF2805D10123002219461046FCF75A
:1063F00025FF0123002219461046FCF71FFF012349
:1064000019AA19460020FCF719FF0123002219469A
:106410001046FCF713FF0123AD4A19460020FCF794
:106420000DFF00231A4601211846FCF707FF002341
:106430001A4619461846FCF701FF00231A4619466A
:10644000189807F093FF1C90189815F0C3F90020D6
:1064500018909BE71D98007841287DD1482014F0C2
:10646000ADFB1B9014219B48006811F0B6FA1A90FE
:1064700015219848006811F0B0FA19900921954843
:10648000006811F0AAFA189000201790082191488E
:10649000006800E0A7E211F0A0FA16900020159025
:1064A0002FE0DDE91510405C02281CD115991A98DF
:1064B000415C894A1598115415991998415C874A8D
:1064C0001598115415991898405C032190FBF1F22E
:1064D00001FB1200C1B2824A159811541798401C52
:1064E000C0B2179009E020217B4A159811547B4ACD
:1064F000159811547A4A159811541598401CC0B239
:1065000015907848817815988142CADC1B98E0B3D1
:1065100001236E4A19461B98FCF790FE714880785B
:10652000034615901B9A183209210020FCF786FEBD
:1065300000231A4619461846FCF780FE0123664AD6
:1065400019460020FCF77AFE0123644A1946002010
:10655000FCF774FE012300E037E0634A194600208F
:10656000FCF76CFE1D98807810280FD11E9868B13A
:1065700000231A4601211846FCF760FE00231A4644
:1065800001211846FCF75AFE0CE011E0012300221D
:1065900019461046FCF752FE0123514A19460020C5
:1065A000FCF74CFE00231A4619461846FCF746FE37
:1065B00000231A4619461B9807F0D8FE1C901B981A
:1065C00015F008F900201B90E0E61D98007842289D
:1065D0005DD1302014F0F2FA1B9000201A9043484D
:1065E0000078012820D14248007810B900201A9084
:1065F0001AE03F480078042802D101201A9013E0E5
:106600003B480078032802D102201A900CE0384859
:106610000078022802D103201A9005E0344800785F
:10662000012801D104201A901B9818B30123274A8E
:1066300019461B98FCF702FE01232E4A194600203A
:10664000FCF7FCFD01232C4A19460020FCF7F6FD5F
:1066500001232A4A19460020FCF7F0FD01231AAA5B
:1066600019460020FCF7EAFD00231A461946184691
:10667000FCF7E4FD00231A4619461B9807F076FE46
:106680001C901B9815F0A6F800201B907EE61D9824
:10669000007843287ED114210E48006811F09DF93E
:1066A0001A9005210B48006811F097F919901521EF
:1066B0000848006811F091F9189008210548006811
:1066C00011F08BF917900020169037E03109002067
:1066D000F2070020A80300203EF500205CF5002012
:1066E0007AF500209C07002098F50020EE0200209B
:1066F000B6030020A0030020ED020020EF020020DE
:10670000DDE91610405C03280CD116991A98415CFB
:10671000FE4A1698115416991998415CFC4A16982D
:10672000115407E00121F94A169811540021F84A42
:10673000169811541698401CC0B21690F5488178EE
:1067400016988142DCDC1D98807810283FD11E9875
:10675000E0B3402014F032FA1B901B98A8B3012339
:10676000ED4A19461B98FCF769FDEA488078034614
:1067700016901B9A183209210020FCF75FFD0023B8
:106780001A4619461846FCF759FD0123E04A1946F6
:10679000002000E056E0FCF751FD0123DB4A1946DA
:1067A0000020FCF74BFD00231A4601211846FCF798
:1067B00045FD00231A4601211846FCF73FFD002342
:1067C0001A4619461846FCF739FD2EE0FFE730203F
:1067D00014F0F4F91B901B9838B30123CE4A1946E4
:1067E0001B98FCF72BFDCB488078034616901B9A2C
:1067F000183209210020FCF721FD00231A46194612
:106800001846FCF71BFD0123C04A19460020FCF77F
:1068100015FD00231A4601211846FCF70FFD002341
:106820001A4619461846FCF709FD00231A46194670
:106830001B9807F09BFD1C901B9814F0CBFF0020C9
:106840001B90A3E51D9800784428FAD01D98007885
:106850004A2832D1282014F0B1F91B901B98F8B1C6
:106860000123AD4A19461B98FCF7E8FC01230022DE
:1068700019461046FCF7E2FC0123A8480268521CA6
:1068800019460020FCF7DAFC00231A4601211846BD
:10689000FCF7D4FC00231A4619461846FCF7CEFC38
:1068A00000231A4619461B9807F060FD1C901B98A0
:1068B00014F090FF00201B9068E51D980078E128F7
:1068C00024D1182014F07AF91B901B9888B1012369
:1068D000914A19461B98FCF7B1FC00231A46012186
:1068E0001846FCF7ABFC00231A4619461846FCF77D
:1068F000A5FC00231A4619461B9807F037FD1C908B
:106900001B9814F067FF00201B903FE51D9800784E
:10691000E22896D100201B9081480021016041604F
:1069200001810020189015E07E491898085C002825
:106930000CDD1898085C401E7949085C401CC1B207
:10694000784A1898105C401E754A11541898401CDB
:10695000C0B2189018980A28E6DB00201A90189008
:106960000CE06F491898085C002803DD1A98401C59
:10697000C0B21A901898401CC0B2189018980A28F3
:10698000EFDB282014F01AF919901998F0B10123BF
:10699000614A19461998FCF751FCDDE919231832B0
:1069A00009210020FCF74AFC00231A461946184624
:1069B000FCF744FC01231BAA19460020FCF73EFC0F
:1069C00000231A4619461846FCF738FC00231A46DD
:1069D0001946199807F0CAFC1C90199814F0FAFE91
:1069E00000201990D2E41D984078442867D11D9862
:1069F000007840287ED114201B9000201A901AA8FD
:106A00001E99FCF7C3F99DF86800FF2803D11B9875
:106A1000401CC0B21B904448006800F4000018B14C
:106A2000E1204249487102E00020404948711B982A
:106A3000C000189014F0C2F819901998F0B301230F
:106A4000354A19461998FCF7F9FB9DF86800FF28AC
:106A500005D10123002219461046FCF7EFFB012364
:106A6000002219461046FCF7E9FB01232F4A19467C
:106A70000020FCF7E3FB2E48007870B901232B4A75
:106A8000521C19460020FCF7D9FB0123274A921C0F
:106A900019460020FCF7D2FB0BE0812300220121E4
:106AA0001046FCF7CBFB8123002201211046FCF7A6
:106AB000C5FB01231D4AD21C194601E060E0EEE34C
:106AC0000020FCF7BBFB0123002219461046FCF70F
:106AD000B5FB0123154A121D19460020FCF7AEFB39
:106AE0000123124A521D19460020FCF7A7FB03237D
:106AF000002200E051E001211046FCF79FFB01233A
:106B00000A4A921D1946002014E000003EF50020BC
:106B10005CF500209C070020310900203400002093
:106B200034F5002027090020BC030020E8070020DE
:106B3000F0020020FCF782FB0123FE4A19460020E8
:106B4000FCF77CFB00231A4601211846FCF776FB74
:106B500000231A4601211846FCF770FB00231A4651
:106B600001211846FCF76AFB00231A46012118464A
:106B7000FCF764FB00231A4619461846FCF75EFB37
:106B800000231A461946199807F0F0FB1C90199833
:106B900014F020FE002019905BE41D980078412835
:106BA0007ED10521E448006810F017FF1B900821F2
:106BB000E148006810F011FF1A90402013F0FEFF2A
:106BC00018900020199007E0002114AA1998115478
:106BD0001998401CC0B2199019980C28F4DB0020B9
:106BE000199020E0DDE91910405C022806D11999BE
:106BF0001B98415CD14A1998115403E00022CF49F7
:106C000019980A540121199801FA00F0CC49096831
:106C10008968084018B9012114AA199811541998C3
:106C2000401CC0B21990C748817819988142D9DCBC
:106C30001898B0B30123C44A19461898FCF7FEFA15
:106C4000C048807803461390189A18320921002012
:106C5000FCF7F4FA00231A4619461846FCF7EEFA38
:106C60000123B64A19460020FCF7E8FA0123002266
:106C700019461046FCF7E2FA012314AA194600202F
:106C8000FCF7DCFA1D988078102807D11E9828B1EF
:106C900000231A4601211846FCF7D0FA002301E030
:106CA00012E004E01A4619461846FCF7C7FA00231A
:106CB0001A461946189807F059FB1C90189814F0BA
:106CC00089FD002018907FE41D98007842287DD12E
:106CD00000201A909D48006800F0005010B1032079
:106CE0001A9001E000201A9000201990974800683F
:106CF00000F4802010B18020199001E0002019904C
:106D0000002018909148006800F4403010B18020B5
:106D1000189001E00020189000201790169008208D
:106D200013F04CFF1790179810B90020FEF7DCBE47
:106D300000211798016041601798001D16900521E9
:106D40008348006810F049FE15900020149014E06C
:106D5000DDE91410405C00F0800018B103221499A2
:106D600017984254DDE91410405C00F007021698B1
:106D700042541498401CC0B2149014980428E7DBC5
:106D80001D98807810283FD11E98E8B311201490E8
:106D90000020139013A81E99FBF7F8FF9DF84C00F4
:106DA000FF2803D11498401CC0B214901498C0005E
:106DB000129013F003FF1B900123634A19461B989E
:106DC000FCF73CFA9DF84C00FF2800E011E105D1EA
:106DD0000123002219461046FCF730FA01235D4AD0
:106DE00019460020FCF72AFA012300221946104612
:106DF000FCF724FA01231AAA19460020FCF71EFA10
:106E000004230022012100E048E01046FCF716FAB6
:106E1000012319460020179AFCF710FA0123179A4C
:106E2000521C19460020FCF709FA0123179A921CFC
:106E300019460020FCF702FA0123179AD21C1946C2
:106E40000020FCF7FBF90123434A19460020FCF718
:106E5000F5F90323002201211046FCF7EFF9012385
:106E600019AA19460020FCF7E9F901230022194666
:106E70001046FCF7E3F9012318AA19460020FCF795
:106E8000DDF900231A4601211846FCF7D7F9002343
:106E90001A4619461846FCF7D1F99AE0A02013F0DB
:106EA0008DFE1B901B98E8B30123274A19461B98B7
:106EB000FCF7C4F90123274A19460020FCF7BEF964
:106EC0000123002219461046FCF7B8F901231AAA3B
:106ED00019460020FCF7B2F90423002201211046D4
:106EE000FCF7ACF9012319460020179AFCF7A6F924
:106EF0000123179A521C19460020FCF79FF9012321
:106F0000179A921C19460020FCF798F90123179A4A
:106F1000D21C19460020FCF791F901230E4A1946AC
:106F2000002000E055E0FCF789F908230022012148
:106F3000104613E0EF070020A80300203EF50020D4
:106F4000BC0800209C07002031090020BC03002061
:106F5000AC030020F007002032090020FCF76EF996
:106F6000012319AA19460020FCF768F90123002221
:106F700019461046FCF762F90123FE4A1946002023
:106F8000FCF75CF90423002201211046FCF756F9B6
:106F9000012319460020169AFCF750F90123169A8E
:106FA000521C19460020FCF749F90123169A921C3D
:106FB00019460020FCF742F90123169AD21C194603
:106FC0000020FCF73BF900231A4619461846FCF747
:106FD00035F900231A4619461B9807F0C7F91C908B
:106FE000179814F0F7FB1B9814F0F4FB00201B908B
:106FF00027E41D98007843287ED1402013F0DEFD61
:107000001B900521DC48006810F0E7FC1A9008216D
:10701000D948006810F0E1FC19900020159007E0B5
:10702000002116AA159811541598401CC0B215904D
:1070300015980C28F4DB0020159020E0159919987C
:10704000405C032806D115991A98415CCB4A1598E3
:10705000115403E00021C94A1598115401211598D3
:1070600001FA00F0C64909688968084018B9012189
:1070700016AA159811541598401CC0B21590C14815
:10708000817815988142D9DC1B98B0B30123BE4AA0
:1070900019461B98FCF7D2F8BA4880780346159039
:1070A0001B9A183209210020FCF7C8F800231A4661
:1070B00019461846FCF7C2F80123B04A19460020C9
:1070C000FCF7BCF800231A4601211846FCF7B6F875
:1070D000012316AA19460020FCF7B0F81D98807805
:1070E000102807D11E9828B100231A4601211846FE
:1070F000FCF7A4F8002301E012E004E01A46194668
:107100001846FCF79BF800231A4619461B9807F00F
:107110002DF91C901B9814F05DFB00201B9061E47E
:107120001D9800784428FAD01D9800784A2870D11C
:10713000782013F043FD1B901B98E8B30123924A7B
:1071400019461B98FCF77AF80123904A194600204B
:10715000FCF774F801238D4A19460020FCF76EF8FD
:1071600001238A4A19460020FCF768F80123874A60
:1071700019460020FCF762F80123844A19460020D2
:10718000FCF75CF80123814A19460020FCF756F809
:1071900001237E4A19460020FCF750F801237B4A60
:1071A00019460020FCF74AF804231B9A6032092193
:1071B0000020FCF743F800E01DE00423744A01219D
:1071C0000020FCF73BF800231A4619461846FCF746
:1071D00035F801236F4A19460020FCF72FF80123E8
:1071E0006D4A19460020FCF729F800231A46194673
:1071F0001846FCF723F800231A4619461B9807F097
:10720000B5F81C901B9814F0E5FA00201B90C3E41D
:10721000FFE71D980078E12876D100201B905F4899
:10722000007801283CD1282013F0C8FC1B900020D6
:1072300018900FE05A480068807C80F0FF00189991
:10724000084100F0010119AA189811541898401C1F
:10725000C0B2189018980828ECDB1B98F0B10123F5
:10726000494A19461B98FBF7E9FF08231B9A183275
:1072700009210020FBF7E2FF00231A4619461846B1
:10728000FBF7DCFF012319AA19460020FBF7D6FF04
:1072900000231A4619461846FBF7D0FF68E0FAE1CA
:1072A000382013F08BFC1B903E48006800F44030FF
:1072B00018B101208DF8640002E000208DF8640010
:1072C00000208DF865003748006800F4801018B180
:1072D00001208DF8660002E000208DF8660031483C
:1072E000006800F4800018B101208DF8670002E00A
:1072F00000208DF867002B48006800F4001020B1D2
:1073000001208DF8680003E05AE000208DF8680045
:107310001B9860B301231C4A19461B98FBF78EFF8C
:10732000012319AA19460020FBF788FF01230DF15C
:10733000650219460020FBF781FF01230DF166026B
:1073400019460020FBF77AFF01230DF16702194669
:107350000020FBF773FF01231AAA19460020FBF750
:107360006DFF00231A4619461846FBF767FF00BF5A
:10737000002319E0F3070020A80300203EF50020B9
:10738000BC0800209C0700203109002032090020A1
:107390003E090020360900203A0900204408002058
:1073A00000040020BC0300201A4619461B9806F072
:1073B000DDFF1C901B9814F00DFA00201B9082E456
:1073C0001D980078E228FAD1FA4800210160416056
:1073D00001810020119015E0F7491198085C002800
:1073E0000CDD1198085C401EF249085C401CC1B2DB
:1073F000F14A1198105C401EEE4A11541198401C3D
:10740000C0B2119011980A28E6DB00201B90119061
:107410000CE0E8491198085C002803DD1B98401C2B
:10742000C0B21B901198401CC0B2119011980A284C
:10743000EFDB00201A9019901B98119013F0BEFBFF
:107440001A901A9808B9002070E4DDE91A01FAF7D9
:10745000F7FF1B98119013F0B1FB1990199808B918
:10746000002063E41B991998FAF7EAFF1B98119022
:1074700013F0A4FB1890189808B9002056E41B9943
:107480001898FAF7DDFF002017900120169015904C
:10749000002011902FE01598169022E00020109007
:1074A00010E0C5491098095C1698814206D1119ADE
:1074B0001899169888540120179006E01098401CDF
:1074C000C0B2109010980A28EBDB1798012804D15D
:1074D0001698401CC0B2159006E01698401CC0B229
:1074E000169016980A28D9DD00BF00201790119831
:1074F000401CC0B211901B9911988842CBDB05212A
:10750000AE48006810F069FA1490002011902AE04B
:107510000020109020E011991898415CA64A10981C
:10752000105C814214D110991498405C00F007005F
:1075300018B1802211991A98425410991498405CFD
:1075400000F08000802803D1032211991998425439
:107550001098401CC0B2109010980A28DBDB1198DC
:10756000401CC0B211901B9911988842D0DB0020BA
:10757000139013A81E99FBF709FC91480078012885
:1075800042D19DF84C00FF2876D1402013F016FB25
:1075900012901298B8B301238A4A19461298FBF741
:1075A0004DFE129A1832092100201B9BFBF746FE64
:1075B00000231A4619461846FBF740FE01231946D8
:1075C00000201A9AFBF73AFE012319460020199A67
:1075D000FBF734FE00231A4601211846FBF72EFE66
:1075E00000231A4601211846FBF728FE00231A46FD
:1075F00019461846FBF722FE00231A461946129830
:1076000006F0B4FE1C9037E0402013F0D7FA129039
:10761000129888B301236B4A19461298FBF70EFEA5
:10762000129A1832092100201B9BFBF707FE00234A
:107630001A4619461846FBF701FE01231946002099
:107640001A9AFBF7FBFD012319460020199AFBF754
:10765000F5FD00231A4601211846FBF7EFFD002334
:107660001A4619461846FBF7E9FD00231A46194643
:10767000129806F07BFE1C90189814F0ABF819983D
:1076800014F0A8F81A9814F0A5F8129814F0A2F8BB
:1076900000201290ACE41D984078452879D11E98BE
:1076A000B0BB1D9880781F2804D100204649096886
:1076B00008709DE41D988078102804D1012042496B
:1076C0000968087094E41D988078112804D102207C
:1076D0003D49096808708BE41D988078202809D1FD
:1076E0001D98C078002201461B903848006810F0B1
:1076F000B3FD7DE41D9880782F28CBD11D98C078EC
:10770000012201461B903148006810F0A5FD6FE48E
:10771000FFE71BA81E99FBF739FB1E99891C1AA8C5
:10772000FBF734FB1D980078412833D19DF86C009D
:10773000102804D1012024490968087053E09DF8FD
:107740006C001F2804D100201F49096808704AE016
:107750009DF86C00112804D102201B4909680870AB
:1077600041E09DF86C00202807D100229DF86810A8
:107770001648006810F070FD35E09DF86C002F2869
:1077800031D101229DF868101048006810F064FDA6
:1077900029E029E01D980078432824D19DF86C0049
:1077A000202815D100229DF868100848006810F0C4
:1077B00053FD18E034F5002027090020AC03002019
:1077C000440800203109002034000020BC080020BB
:1077D0009DF86C002F2806D101229DF86810FE4804
:1077E000006810F039FD9AE41D98407846287DD154
:1077F0001D98007840287DD1F848008815F05AFD82
:10780000F749149015F040FC1690F648008815F0E2
:1078100051FDF349149015F037FC1790F248008899
:1078200015F048FDEE49149015F02EFC1890EF4825
:10783000008815F03FFDEA49149015F025FC1990D9
:10784000EB48008815F036FDE549149015F01CFC56
:107850001A90E848008815F02DFD1B90482013F081
:10786000ADF915901598A8B3012316AA042115980F
:10787000FBF7E4FC012317AA04210020FBF7DEFC40
:10788000012318AA04210020FBF7D8FC012319AA20
:1078900004210020FBF7D2FC01231AAA04210020B6
:1078A000FBF7CCFC0123002219461046FBF7C6FC6F
:1078B00001231BAA04210020FBF7C0FC00231A4669
:1078C00001211846FBF7BAFC00231A461946184650
:1078D000FBF7B4FC00231A461946159806F046FD3E
:1078E0001C90159813F076FF002001E012E301E0F0
:1078F000159014E41D980078412852D1302013F0DF
:107900005DF915901598E0B3BB48008815F0D2FCDE
:10791000BA49149015F0B8FB1690B948007815F0E4
:10792000C9FC1790B748007815F0C4FC1890B64809
:107930001990B648008815F0BDFC1A90012316AACC
:1079400004211598FBF77AFC012317AA04210020D3
:10795000FBF774FC012318AA04210020FBF76EFC3E
:10796000012319AA04210020FBF768FC01231AAAAD
:1079700004210020FBF762FC00231A461946184632
:1079800000E001E0FBF75AFC00231A46194615985F
:1079900006F0ECFC1C90159813F01CFF00201590CD
:1079A00035E41D98007842287ED19948008815F06A
:1079B00081FC8B49019015F067FB03909548008886
:1079C00015F078FC8649019015F05EFB04904FF0AD
:1079D0007E5005909048008815F06CFC06908F480A
:1079E000008815F067FC7E49019015F04DFB07906B
:1079F0008B48008815F05EFC7949019015F044FB36
:107A000008908848008815F055FC7549019015F0DC
:107A10003BFB09908448008800B215F033FC7049A4
:107A2000019015F031FB0A908048007815F042FC77
:107A30000B907F48007815F03DFC0C907D48007855
:107A400015F038FC0D907C48007815F033FC0E9052
:107A50007A48007815F02EFC0F907848007810B91D
:107A60000020109002E04FF07E5010907448008883
:107A700015F020FC5A49019015F006FB1190714851
:107A8000008815F017FC12906F48007815F012FC72
:107A900013906E48008815F00DFC5149019015F0C7
:107AA000F3FA14906A4800E01CE1007815F002FC3B
:107AB00015906848007815F0FDFB16906648008820
:107AC00015F0F8FB4649019015F0DEFA179063486F
:107AD000007815F0EFFB18906148007815F0EAFB8C
