:020000040800F2
:10200000E8C300200123000809230008E13B000881
:102010000D2300080F230008112300080000000012
:102020000000000000000000000000005D22000829
:102030001523000800000000A1220008C591020835
:102040001B2300081B2300081B2300081B23000878
:102050001B2300081B2300081B2300081B23000868
:102060001B2300081B2300081B2300081B23000858
:102070001B2300081B2300081B2300081B23000848
:102080001B2300081B2300081B230008693B0008D2
:10209000493B0008593B00081B2300081B2300088C
:1020A0001B2300081B2300081B2300081B23000818
:1020B0006D3F00081B2300081B2300081B2300089A
:1020C0001B2300081B2300081B2300081B230008F8
:1020D0001B2300084D4000081B2300085D4000083A
:1020E0001B2300081B2300081B2300081B230008D8
:1020F0001B2300081B2300081B230008000000000E
:102100001B230008000000001B2300081B230008FD
:102110003D4000081B2300081B2300081B23000868
:102120001B2300081B2300081B2300081B23000897
:102130001B2300081B2300081B230008993B0008F1
:10214000793B0008893B00081B2300081B2300087B
:1021500000F002F800F073F80AA090E8000C824446
:102160008344AAF10107DA4501D100F068F8AFF223
:10217000090EBAE80F0013F0010F18BFFB1A43F065
:102180000103184724950200449502000A444FF0C9
:10219000000C10F8013B13F0070408BF10F8014BC6
:1021A0001D1108BF10F8015B641E05D010F8016B0B
:1021B000641E01F8016BF9D113F0080F1EBF10F86F
:1021C000014BAD1C0C1B09D16D1E58BF01F801CB92
:1021D000FAD505E014F8016B01F8016B6D1EF9D515
:1021E0009142D6D37047000000230024002500262A
:1021F000103A28BF78C1FBD8520728BF30C148BF6A
:102200000B607047662928F09683782900F00C81CE
:10221000002070471FB59DE8030000F0F1FE00F0BC
:10222000CFFE04000020002127F060F9E06000F0FC
:102230002BFB1FBD10B5002024F06DF810BD01F080
:1022400027F81146FFF7E6FF25F042FD01F05FF8A1
:1022500003B4FFF7EFFF03BC01F066F8204B1968E9
:102260000868B0E8F00F80F30988BFF36F8F4FF074
:10227000000080F311884EF00D0E70470000000042
:1022800006480068006880F3088862B661B6BFF34C
:102290004F8FBFF36F8F00DF00BF00BF08ED00E07E
:1022A000EFF30980BFF36F8F0D4B1A6820E9F00F31
:1022B000106008B54FF0BF0080F3118826F038FF9A
:1022C0004FF0000080F31188BDE8084019680868E5
:1022D000B0E8F00F80F30988BFF36F8F704700BF3D
:1022E00078100020EFF311804FF0BF0181F31188C7
:1022F000704780F311887047EFF305807047000046
:102300000948804709480047FEE7FEE7FEE7FEE789
:10231000FEE7FEE7FEE7FEE7FEE7FEE704480549C5
:10232000054A064B70470000ED3E000851210008A9
:10233000E8830020E8C30020E8A30020E8A30020F1
:10234000B2F120030AD5C2F1200301FA02F120FA0A
:1023500003F300FA02F041EA0301704700FA03F1C7
:102360004FF00000704710B54C1084EA530404D5B8
:102370004042C1F1000138BF491E1B4204D5524200
:10238000C3F1000338BF5B1E00F0EAFA14F0804F7F
:1023900004D04042C1F1000138BF491E14F0004F83
:1023A00004D05242C3F1000338BF5B1E10BD0000D1
:1023B0000FB41CB5074B06AA7B44694600900598EC
:1023C00000F0BBFD0020694600F0CAFD1CBC5DF8B2
:1023D00014FB0000A50B000070B504468569006879
:1023E000C10601D5302600E02026C00707D070BD09
:1023F000D4E9012130469047206A401C20626D1EBE
:10240000F6D570BD70B5044685690078C00707D160
:1024100070BDD4E9012120209047206A401C206231
:102420006D1EF6D570BD000070B504460D46214600
:102430001068AFF300802188090502D50F4A7A445D
:1024400002E00E4A7A440E32002104F1240305E032
:1024500000F00F060009965D5E54491C0028F7D174
:1024600020780023000704D5702D02D009B1022383
:1024700011322046BDE8704000F0F4BA1E88020018
:102480002DE9F0474FF0000A89460446C0F820A025
:102490002046E1688847002876D0252806D0D4E970
:1024A00001219047206A401C2062F1E7E168204644
:1024B00000258847C4F81CA006460027C4F818A0C9
:1024C0002A2E09D0304624F02DF938B304EB8708C2
:1024D000303EC8F8186019E059F8041B204604EB98
:1024E00087029161E1688847012F064618D1E069AB
:1024F000002820DA25F020051DE0D8F8180000EBB0
:10250000800006EB40003038C8F818002046E1682B
:102510008847064624F006F90028EED1012F0AD09C
:102520002E2E08D12046E16888477F1C0646022FE0
:1025300045F02005C4DBA069002803DA404245F0DD
:102540000105A061E80701D025F01005B6B1A6F19C
:102550004100192802D8203645F400654A46314624
:10256000204625604D46FFF74DFE58B1012806D0A4
:10257000ED1D25F0070000F1080989E704E005F1E9
:10258000040985E730468AE7206ABDE8F087000045
:10259000014A00F0EBBC00007811002030B5054680
:1025A0000B462A4613F8014B12F8010B08B1A04262
:1025B000F8D01CB1002802D06D1CF1E7284630BDD0
:1025C00040EA010310B59B070FD1042A0DD310C8B0
:1025D00008C9121F9C42F8D020BA19BA884201D902
:1025E000012010BD4FF0FF3010BD1AB1D30703D04A
:1025F000521C07E0002010BD10F8013B11F8014B00
:102600001B1B07D110F8013B11F8014B1B1B01D11B
:10261000921EF1D1184610BD10B5431C02E010F80F
:10262000011B71B18107FAD14FF0013202C88C1A37
:102630008C4314EAC211F9D0C01A0A0603D0C01E96
:1026400010BDC01A10BD0A0401D0801E10BD0902C1
:10265000FCD0401E10BD421E12F8013F002BFBD1E2
:1026600011F8013B002B02F8013BF9D17047032A16
:1026700040F2308010F0030C00F0158011F8013B9F
:10268000BCF1020F624498BF11F801CB00F8013B86
:1026900038BF11F8013BA2F1040298BF00F801CB4A
:1026A00038BF00F8013B11F0030300F02580083A21
:1026B000C0F0088051F8043B083A51F804CBA0E878
:1026C0000810F5E7121D5CBF51F8043B40F8043BCD
:1026D000AFF30080D20724BF11F8013B11F801CB02
:1026E00048BF11F8012B24BF00F8013B00F801CBD3
:1026F00048BF00F8012B704710B5203AC0F00B809E
:10270000B1E81850203AA0E81850B1E81850A0E8F5
:102710001850BFF4F5AF5FEA027C24BFB1E818504F
:10272000A0E8185044BF18C918C0BDE810405FEABF
:10273000827C24BF51F8043B40F8043B08BF70473B
:10274000D20728BF31F8023B48BF11F8012B28BF40
:1027500020F8023B48BF00F8012B704702F0FF034E
:1027600043EA032242EA024200F002B84FF00002BC
:102770000429C0F0128010F0030C00F01B80CCF193
:10278000040CBCF1020F18BF00F8012BA8BF20F801
:10279000022BA1EB0C0100F00DB85FEAC17C24BF55
:1027A00000F8012B00F8012B48BF00F8012B7047FF
:1027B0004FF0000200B5134694469646203922BFDA
:1027C000A0E80C50A0E80C50B1F12001BFF4F7AF25
:1027D000090728BFA0E80C5048BF0CC05DF804EB07
:1027E000890028BF40F8042B08BF704748BF20F875
:1027F000022B11F0804F18BF00F8012B704700002A
:102800004FF0013C50F8042B51F8043B9A4221D17F
:10281000A2EB0C03934313EACC1317D150F8042B0B
:1028200051F8043B9A4215D1A2EB0C03934313EAEF
:10283000CC130BD150F8042B51F8043B9A4209D128
:10284000A2EB0C03934313EACC13DBD04FF0000050
:10285000704700BFD01A01BAB1FA81F101F0180136
:1028600022FA01F0CB40C1F12001DBB2C0B2C01AA4
:102870002CFA01F3D11A914311EAC311E6D1704742
:10288000704770477047000070B5064C7C44064D99
:102890007D4403E0206820448047241DAC42F9D1E8
:1028A00070BD0000548E0200888E02000048704700
:1028B000C083002070B5064600F07EFB056806F177
:1028C0000B0020F00704B4429CBF002070BD2B46D3
:1028D0006A68BAB11068A04210D304F108018842B6
:1028E0003CBF5068586007D35168101941601168A7
:1028F000091B016058601460101D70BD13465268BA
:10290000002AE7D12146284600F066FB0028DED1E8
:1029100070BD70B50446051F00F04EFB0068002C2A
:1029200014BF446870BD002C18BFAC423CBF2046A9
:102930006468F8D301680A18AA4218BF456003D139
:102940002A6805461144016028684119A1421CBF4C
:102950006C6070BD6168696021680844286070BD62
:1029600053EA020C00F069802DE9F04B4FF00006AD
:10297000002B1FBFB3FA83F503FA05F424FA05F61A
:102980005E4012BF1643B2FA82F502FA05F4C5F1B1
:1029900020051EBF22FA05FC44EA0C04203556EA45
:1029A000044C4FEA144418BF641C4FF000084FF069
:1029B0000009904271EB030C39D3002919BFB1FA19
:1029C00081F701FA07F6B0FA80F700FA07F6C7F1C7
:1029D00020071EBF20FA07FC46EA0C062037B6FB8C
:1029E000F4FCA7EB0507103F07F01F0BCBF1200607
:1029F0000CFA0BFB2CFA06F644BFB3460026202F38
:102A0000A4BF5E464FF0000B5BEA060C08BF4FF018
:102A1000010B19EB0B09ABFB027C48EB0608C01B52
:102A200006FB02CC0BFB03CC71EB0C01C1E70B46A0
:102A3000024641464846BDE8F08B13B54FF0000012
:102A40004FF00001AFF30080BDE81C40704710B5A7
:102A500000F0BAFA006810BD10B5044600F0B4FAF0
:102A6000046010BD2DE9F0470D4699469246044694
:102A700000F124080168880604D5E06921F01001FE
:102A8000216000E00120A84201DD471B00E0002793
:102A9000A1697A1902EB0900081AA0612078C00622
:102AA00002D42046FFF798FC002608E0D4E9012173
:102AB0001AF806009047206A401C761C20624E459A
:102AC000F4DB2078C0060AD52046FFF785FC06E037
:102AD000D4E9012130209047206A401C2062381E32
:102AE000A7F10107F4DC07E0D4E9012118F805009B
:102AF0009047206A401C2062281EA5F10105F3DCE6
:102B00002046FFF77FFC2078000602D50220BDE8B2
:102B1000F0870120FBE770472DE9FF4F0C461E466A
:102B20004FF0FF378BB0D2E90001DDF860800A90EA
:102B30008A46C1F30A5505B93D46002108464FF0C3
:102B40000000BAF1000F00F4400005DA00EB80004D
:102B50004FF4400101EA50004FEA9059B9F1010FDA
:102B600000DDB9460A9850EA4A000ED044F61050EB
:102B7000A5F2FF3545432F14B8F1000F1ED0754262
:102B8000291E1EDDC9F100021CE0B8F1010F4FF053
:102B9000000001D0302103E0F24305E02154401C45
:102BA000B042FBDB30460022002121540B99C1F8D2
:102BB0000880C1E900200FB0BDE8F08FBD1B6D1C7F
:102BC000DEE74A4600DA694206A800F0D5FA06AB0D
:102BD00093E8070003AB83E8070050460A9900F02A
:102BE000F7FB8DE80700A0F500501F380090039810
:102BF000002D09DD42F21F014A46084403A9039053
:102C0000684600F056FE08E0A0F500504A461F381E
:102C100003A90390684600F060FE8DE807000004F9
:102C2000000C03D04FF0FF30410800E01046B8F12F
:102C3000000F03D00022009215461EE0751E05D439
:102C400000F014FA303262556D1EF9D5B3460122F8
:102C5000084302D000227F1C04E02078302801D1F4
:102C600000227F1E002A099786D01DE0112D07DA69
:102C700000F0FCF9303262556D1C50EA0102F5D1CA
:102C8000084302D00098C8B10EE00021681E05E09C
:102C9000235C625C63542254401E491C8142F7DB72
:102CA000AB46A81B401E0990002004F80B000B98AF
:102CB000099AC0F80880C0E9002B7CE711264FF084
:102CC000000859E72DE9F04F88460446D21D22F04E
:102CD000070191B0D1E90001CDE90A0123F0EEFA34
:102CE00002460B98C00F01D02D2007E02068810715
:102CF00001D52B2002E0202101EAC000032A09901F
:102D000001D0072A05DB03464146204600F0F4F9CE
:102D10000BE12078800601D5E06900E00620B8F1DB
:102D2000650F814606D0B8F1660F18D0B8F1670F6D
:102D300070D131E00020B9F1110F009001DB1123B7
:102D400001E009F101030AAA01A90CA8FFF7E4FEBA
:102D5000DDE90C70002609F10105834647E00120FA
:102D60004B4600904FF000470AAA01A90CA8FFF7B4
:102D7000D3FEDDE90DB00C995D46002610B909F1CE
:102D800001000D18B9EB050003D4C0F1FF3609F1BD
:102D90000105A5EB09002BE0B9F1010F01DA4FF0B5
:102DA00001090020B9F1110F0090484601DD1123FF
:102DB00000E003460AAA01A90CA8FFF7ADFEDDE971
:102DC0000C704D4600268346207800070AD4AB4598
:102DD00000DA5D4601A8012D04DD411911F8011C3E
:102DE000302907D04F4502DA17F1040F04DA012029
:102DF00082460FE06D1EEEE7002F02DCED1B3E4425
:102E000003E0781CA84200DD7D1CB81B00F1010A1C
:102E10004FF000472078000703D4AA4501DB4FF0AC
:102E2000FF3A0021B7F1004F0DF143088DF8431030
:102E300024D002202B23002F01DA7F422D230A21E8
:102E4000021EA0F1010000DC5FB197FBF1FC97FBD3
:102E5000F1F201FB1C7C17460CF1300C08F801CD97
:102E6000EEE7A8F1010003702188090501D545218D
:102E700000E06521A0F1010800F8011C09980FA9E4
:102E8000A1EB0807FF1D00B10120411901EBEA7019
:102E9000A1693844081A401EA0612078C00602D4F7
:102EA0002046FFF799FA099828B1D4E90121904703
:102EB000206A401C20622078C00622D52046FFF7F9
:102EC0008BFA1EE0002E04DBB34502DD01A8805D15
:102ED00000E03020D4E901219047206A401C2062A4
:102EE000761CAAF101005FEA000A0AD100F068F836
:102EF000C0680168405CD4E901219047206A401C09
:102F00002062281EA5F10105DCDC07E0D4E90121DF
:102F100018F8010B9047206A401C2062381EA7F168
:102F20000107F3DC2046FFF76DFA032011B043E6FA
:102F300001694A1C02610878704700B58FB0CDE97D
:102F400001310021059105497944CDE9031011466D
:102F50006846FFF795FA0FB000BD0000E5FFFFFFE0
:102F60000A6802F8010B0A60704700002DE9F04181
:102F700015460E46040002D12C6804B90BA4204665
:102F800000F078F90444207870B12746314638467D
:102F900000F060F90444207810B1002004F8010B1F
:102FA00038462C60BDE8F0810027F9E700000000FA
:102FB00000487047888300200048704790830020B5
:102FC00000487047A883002000487047888300208D
:102FD000704770477047704738B504460A4600206E
:102FE0006946AFF30080002808BF38BD024600994B
:102FF000204600F072F9012038BD012000F08DB9A3
:10300000F8B5AFF30080054600200C46102000BF45
:103010000646A819A0420DD9324669460020AFF3F2
:103020000080070008BF00F078F90098A04218BFA0
:103030000546C419FFF7C0FF05600746F01D20F0E4
:1030400007004619284600F00AF8B44208BFF8BD48
:10305000A21B31463868BDE8F84000F03EB90021B7
:103060000160C0E9011070471020704730B5B0F121
:103070000A024FEA900E71F100034EEA817EB0EB36
:103080000E0061EB91014FEA101E4EEA017E10EB3B
:103090000E0041EB11114FEA102E4EEA016E10EBBB
:1030A0000E0041EB11214FEA104E4EEA014E10EB9B
:1030B0000E0041EB1141401841F100014FEAD000F0
:1030C00040EA41704FEAD10110EB80054FEA8104DC
:1030D00044EA907444EB01046D1944EB0404521B60
:1030E000A3414FF0000348BF0A3200D530BD401C59
:1030F00041F1000130BD00002DE9F0411F460446BA
:1031000003260168072A01F4006004DB08B116A554
:1031100005E016A503E008B115A500E015A521F00E
:1031200010002060A069C01EA0610FB1401EA06108
:103130002046FFF751F94FB1D4E9012138469047B5
:10314000206A401C2062C01C206206E0206AFAE768
:10315000D4E9012115F8010B9047761EF8D22046DC
:10316000FFF750F9BDE8F0814E414E006E616E00F0
:10317000494E4600696E66002DE9F04781461646C5
:103180008AB0334878440DC88DE80D003048784443
:10319000801C03AC0DC884E80D0041F69B30084448
:1031A000372190FBF1F290FBF1F5A5F1800501FBD1
:1031B00012041B3C02D56442012000E00020DFF82D
:1031C00090A080460027FA44AAF1BE0A0DE0E0076D
:1031D00009D03246684607EB47010AEB810100F04F
:1031E0007CFB8DE8070064107F1C002CEFD1184F8A
:1031F0007F44AC3F18E0E80714D007EB04100DF152
:10320000180A90E80E008AE80E00C068F04201D16A
:1032100098190890324606A903A800F05EFB03AB9C
:1032200083E807006D10641C002DE4D13246694626
:10323000B8F1000F03A802D000F03BFB01E000F062
:103240004CFBC9E90001C9F808200AB0BDE8F087C5
:10325000BC7B020030B503461D781DB10A4603E071
:10326000AC4201D1181A30BD12F8014B002CF7D135
:103270005B1CF1E730B503461D783DB10A4612F8F4
:10328000014B1CB1AC42FAD15B1CF5E7181A30BDFA
:103290007546FFF78DFEAE4605006946534620F0A1
:1032A0000700854618B020B5FFF738F8BDE8204084
:1032B0004FF000064FF000074FF000084FF0000BF2
:1032C00021F00701AC46ACE8C009ACE8C009ACE8A5
:1032D000C009ACE8C0098D467047034640688C467B
:1032E000002818BF88423CBF03464068F8D31868DE
:1032F0001844884207D00CF1030020F00700001D9D
:10330000411A521A0146081D0A60FFF702BB044623
:10331000AFF300802046FEF79BFF10B500F010F8D9
:10332000BDE8104000F007B801491820ABBEFEE729
:10333000260002007047002801D0FFF7F5BF704754
:1033400010B5012805D0002103A000F021F80120CC
:1033500010BD09A1F8E7000053494752544D454DAF
:103360003A204F7574206F662068656170206D6526
:103370006D6F7279000000003A2048656170206D21
:10338000656D6F727920636F727275707465640019
:1033900070B505460C460A2000E06D1C00F011F8DF
:1033A00035B128780028F8D102E0641C00F009F853
:1033B00014B120780028F8D1BDE870400A20AFF39E
:1033C000008008B569468DF800000320ABBE08BD3B
:1033D0005FEA400C08BF91F0000F4FEA8C234FEAE0
:1033E000C12243EA51514FEA1C5018BF00F5F0408A
:1033F0004FEA300018BF41F000415FEA6C5C00F01A
:103400002980BCF1FF3F08BF40F080407047130C9B
:1034100006BF12044FF0100C4FF0000C130E04BF47
:1034200012020CF1080C130F04BF12010CF1040C72
:10343000930F04BF92000CF1020CD30F04BF520093
:103440000CF1010C11464FF00002A0F11F00A0EB9F
:103450000C00704711F0004F08BF704731F0004179
:103460003FF4D5AF0B0C06BF09044FF0100C4FF022
:10347000000C0B0E04BF09020CF1080C0B0F04BF6B
:1034800009010CF1040C8B0F04BF89000CF1020C34
:10349000CB0F04BF49000CF1010CCCF12003A0EBD1
:1034A0000C0022FA03F302FA0CF241EA030100F1E4
:1034B0000100704720F07F4C80EA030023F07F4733
:1034C000ACEB070303F57C5300F0004003F1FF036E
:1034D0002DE980494FEA154B09B44FEA144325EA18
:1034E0000B4E24EA03480FF2042606EB1327490883
:1034F0003E785FEA320203FB0667C7F5000707FB69
:1035000006F64FEA54374FEAD64606F1020607FBA5
:10351000066CCCF1005C4FEA1C472CEA074C07FB19
:1035200006F40CFB06F504EB15464FEA961634BF7D
:1035300000204FF000404FEAD13706FB07FC4FEA6E
:103540001C4C0CFB0BF7D21B03FB0CF761EB0701C8
:103550000CFB0EF7B0EB074072EB17420CFB08F7C1
:1035600034BFA2EB0742B2EB074261EB17414FEACF
:103570000C444FEA910706FB07FC4FEA1C4C0CFB7E
:103580000BF7B0EBC74072EB573203FB0CF734BFBD
:10359000A2EBC742B2EBC74261EB57310CFB0EF70F
:1035A000B0EBC70072EB57720CFB08F734BFA2EB0D
:1035B000C702B2EBC70261EB5771039F4FEA81610B
:1035C00041EA921104EBCC044FEAD1374FEA826210
:1035D00006FB07FC42EA90124FEA80604FEA1C4C5F
:1035E0000CFB0BF7D21B03FB0CF761EB07010CFB89
:1035F0000EF7B0EB074072EB17420CFB08F734BF35
:10360000A2EB0742B2EB074261EB17414FEA8C5540
:103610004FEA910704EB9C2406FB07FC4FEA1C4C85
:103620000CFB0BF7B0EBC74072EB573203FB0CF708
:1036300034BFA2EBC742B2EBC74261EB57310CFB80
:103640000EF7B0EBC70072EB57720CFB08F734BFF4
:10365000A2EBC702B2EBC70261EB577115EB4C2529
:103660004FEA816141EA92114FEA82624FEAD13713
:1036700042EA901206FB07FC44F100044FEA806026
:103680004FEA1C4C0CFB0BF7D21B03FB0CF761EB56
:1036900007010CFB0EF7B0EB074072EB17420CFB77
:1036A00008F734BFA2EB0742B2EB074261EB1741C8
:1036B00015EB1C154FEA813141EA92414FEA823203
:1036C00042EA90424FEA80304FEA0C7644F100041F
:1036D00048EA03434EEA0B484FF0000EB2EB080CE9
:1036E00071EB030724BF624639464EEB0E0E4FF0D6
:1036F000000B0018524149414BEB0B0BB2EB080C8D
:1037000071EB03077BF1000B24BF624639464EEB99
:103710000E0E4FF0000B0018524149414BEB0B0BC2
:10372000B2EB080C71EB03077BF1000B24BF624680
:1037300039464EEB0E0E51EA020718BF46F001065D
:1037400016EB0E7655F1000254F1000103D5BDE8E9
:103750008901BDE80088BDE88901BDE80048B619C7
:10376000524141EB0101A3F10103704780807F7E4C
:103770007D7C7B7A797877767675747372717170E7
:103780006F6E6E6D6C6C6B6A6A6968686766666599
:103790006464636362616160605F5F5E5E5D5D5C27
:1037A0005C5B5B5A5A595958585757565655555598
:1037B0005454535352525251515050504F4F4F4EF8
:1037C0004E4D4D4D4C4C4C4B4B4B4A4A4A49494946
:1037D0004848484747474746464645454544444488
:1037E000444343434342424242414141002B26D499
:1037F000770021D01CB54FEA370703B44FF0100013
:103800004FF010014FF000000FBCBDE810400BF16D
:10381000010BBBF1010F08BF5FEA170722BF12F1CE
:10382000010211F101014FF0004143F1000300F0EA
:10383000004043EA00007047F9D35708DAE746EA48
:10384000064613F1400F4FEA16461FDD13F1200F15
:10385000DFBF16430A46002120335B42C8D0C3F1C4
:10386000200746EA064602FA07F74FEA164646EAF6
:103870000706C3F1200722FA03F201FA07F721FA3B
:1038800003F14FF0000342EA0702B1E746EA0206FD
:1038900046EA06464FEA164646EA0106BCBF46EA35
:1038A0000646360C4FF000034FF000024FF00001C7
:1038B0009EE72DE9C048934630B491E8380007C828
:1038C00031EA400C48BF34EA430C03D5FFF7F2FD60
:1038D000FFF78CFFF0BCBDE800882DE9C048934697
:1038E00030B491E8380007C810F0804F08BF13F0DB
:1038F000804F03D100F005F8FFF778FFF0BCBDE87A
:10390000008820F07F4780EA030023F07F4C07EB1C
:103910000C03A3F57C5300F00040A3F1FE0392F0EA
:10392000000F00F0B38095F0000F00F077802DE9D4
:1039300001494FEA11404FEA144621EA004800FBD2
:1039400006FC24EA064708FB06F607FB08F800FB1E
:1039500007F718EB06484CEB164C4FEA124B18EBE6
:1039600007484FEA15464CEB174022EA0B4E0BFB7B
:1039700006FC25EA06470EFB06F607FB0EFE0BFBD0
:1039800007F71EEB064E4CEB164C4FF000061EEBF5
:10399000074E4CEB174B18EB0B0840F1000018EBEF
:1039A0000E0B58EB000840F100008F1A4FF0000199
:1039B0003CBFC943661B14BFB5EB040C00213CBFE0
:1039C000C943F61B4FEA17444EEA8E0E27EA044518
:1039D0004FEA1C4704FB07622CEA074C05FB07F77C
:1039E0000CFB05F604FB0CFC16EB074642EB1742FA
:1039F00016EB0C4642EB1C421BEB060658EB020290
:103A0000414146EA9E0601D5BDE80189B6195241F9
:103A100041EB0101A3F10103BDE801894FEA14451F
:103A20004FEA114724EA054621EA074C05FB07F453
:103A300006FB07F70CFB06F105FB0CFC11EB07413D
:103A400044EB17444FEA124711EB0C4144EB1C4482
:103A500022EA074C05FB07F206FB07F70CFB06F60C
:103A600005FB0CFC16EB074642EB174216EB0C4627
:103A700042EB1C456A1854F1000148BF7047B61963
:103A8000524141EB0101A3F10103704795F0000F92
:103A900037D04FEA11424FEA144721EA024624EA9E
:103AA000074C02FB07F106FB07F70CFB06F402FBD1
:103AB0000CFC14EB074441EB17414FEA154714EB9C
:103AC0000C4441EB1C4125EA074C02FB07F506FBC1
:103AD00007F70CFB06F602FB0CFC16EB074645EB62
:103AE000174516EB0C4645EB1C42121951F100012B
:103AF00048BF7047B619524141EB0101A3F10103E0
:103B000070474FEA14454FEA114724EA054621EA77
:103B1000074C05FB07F106FB07F70CFB06F24FF01D
:103B2000000605FB0CFC12EB074241EB174112EBC0
:103B30000C4251EB1C4148BF7047921841EB010108
:103B4000A3F101037047000010B50021014818F0EF
:103B50005BFF10BDCC11002010B50121014818F009
:103B600053FF10BDCC11002010B5024818F07CFFA7
:103B700010BD0000CC11002010B50021014818F044
:103B800043FF10BDE411002010B50121014818F0D9
:103B90003BFF10BDE411002010B5024818F064FF8F
:103BA00010BD0000E411002070B504460D4620460B
:103BB00023F0B6F8204624F0FFF82946204622F0EC
:103BC000B7FF064951F82400022123F06EF903499A
:103BD00051F82400012123F068F970BD4CAA0208B5
:103BE00010B512F017FF10BD0146CA1701EB927213
:103BF0009210A1EB820292B9642091FBF0F200FBDB
:103C0000121050B94FF4C87091FBF0F200FB121083
:103C100008B9012070470020FCE70120FAE70020E6
:103C2000F8E7000070B500260024002524F048FDC8
:103C300006465548B6FBF0F454480088A04246D0EA
:103C400052490C8040F2B2750EE02846FFF7CCFFD7
:103C500030B1B4F5B77F02D3A4F5B77402E006E043
:103C6000A4F26D14681C85B2B4F5B67FEDD800BF20
:103C700047480580008847498880002516E0444869
:103C80000088FFF7B1FF30B1012D04D11D2C01D305
:103C90001D3C09E00CE04048405DA04203D83E488E
:103CA000405D241A00E003E0681C85B21C2CE6D2BB
:103CB00000BF681C3749096860F3995135480160B5
:103CC000601C3449096860F35541324801602E4850
:103CD000B6FBF0F100FB11644FF46160B4FBF0F14E
:103CE0002C48006861F310302A4908604FF4616085
:103CF000B4FBF0F100FB11403C21B0FBF1F1254891
:103D0000006861F38B10234908604FF46160B4FBD5
:103D1000F0F100FB11403C21B0FBF1F201FB12017C
:103D20001C48006861F305001A490860084681884C
:103D30001A48006861F31F50184908601548006868
:103D4000810D1648006861F313401449086011485A
:103D50000068410C1148006861F3CF200F490860EA
:103D60000C480068010B0D48006861F38A100B498C
:103D7000086008480068810D0848006861F3134036
:103D800006490860002070BD8051010066050020D2
:103D9000640500205805002004AB020860050020DF
:103DA0002DE9F05F06460F4690469946DDE90AABDD
:103DB000002440F2B270864203DB40F633008642B4
:103DC00002DD0120BDE8F09F40F2B2750AE028460E
:103DD000FFF70AFF10B11F48044401E01E480444E5
:103DE000681C85B2B542F2DB781EC7B2002510E030
:103DF0001A48405D40F2A321484304EBC01430460A
:103E0000FFF7F2FE18B1012D01D115480444681CDA
:103E100085B2BD42ECDBA8F1010040F2A32148438A
:103E200004EBC014C9EB4910C0EB092004EB0014EB
:103E3000CAEB0A1004EB80045C4424F041F824F03F
:103E400061FC204624F046FC204624F043FC002080
:103E5000B8E700000085E2018033E10104AB02080D
:103E6000805101001CB540F21B7024F0D9FB40F2D8
:103E70001C7024F0D5FB24F023F8142022F01CFE43
:103E800045F65A2188422FD022F04CFE4FF40060B4
:103E900024F020FB4FF4006024F02CFB4FF48070E2
:103EA00024F0EEFB40F60F0024F0BAFB24F044FCB3
:103EB00024F028FC012024F01DFC24F023FC47F60C
:103EC000FF7024F029FC24F01DFC0B200090034619
:103ED00013220C21019040F2E670FFF761FF45F6D6
:103EE0005A21142022F004FE1CBD000010B5184811
:103EF000006840F00100164908600846406815490E
:103F000008401349486008460068134908401049B2
:103F100008600846006820F4802008600846406871
:103F20000E4908400A4948600020C86208460068F7
:103F30000B490840064908604FF47F00886024F070
:103F400021FD084CA4F251140748046010BD000084
:103F5000001002400C00FFE0FFFFF6FEFFFF00DF55
:103F6000FFFFF6EA5121000808ED00E010B501213D
:103F7000880724F0F6FD012852D10121800724F0A2
:103F8000EDFD28480088401C264908802648006826
:103F900013F07EF923480088642190FBF1F201FBC5
:103FA000120000283CD121480068401C1F490860CD
:103FB000002007F089F91B4800884FF47A7190FBC4
:103FC000F1F201FB1200F0B900201649088007F059
:103FD0004BF817480068401C1549086008F0F0F9D4
:103FE0000CF000FD0CF01AF800F012F912F072FA61
:103FF00012F0D0FA0F480088012804D10E4800883A
:10400000401C0D4908800A4800683C21B0FBF1F2D1
:1040100001FB120020B90648006808B106F034FA26
:1040200010BD0000AC0F00202C000020400F00202D
:10403000B00F00207E0000207C00002010B5024858
:1040400022F026F810BD00005C12002010B50248D6
:1040500022F01EF810BD00007412002010B50248B6
:1040600022F016F810BD00008C12002070B5044636
:104070000D46204624F07AFE2946204624F0D0FD45
:10408000204624F019FF044951F8240040F205317C
:1040900024F0DBFE70BD0000D0AA020810B5044673
:1040A00040210C4823F0BCFB0B4824F079FB0A4864
:1040B00024F07BFB2146084824F098FB00BF8021B8
:1040C000054824F0C1FB0028F9D14021014823F024
:1040D000A9FB10BD000801400030014010B50446A6
:1040E00040210C4823F09EFB0B4824F059FB0A4862
:1040F00024F05BFB2146084824F078FB00BF8021B8
:10410000054824F0A1FB0028F9D14021014823F003
:1041100089FB10BD000801400030014010B5024687
:104120000B460AB9002010BD5BBB0C2092FBF0F4DB
:1041300000FB1420C1B211B9501EC2B20C210C20D8
:1041400092FBF0F007281AD2DFE800F004070A0D0E
:104150001013160041F01000E5E741F02000E2E7FF
:1041600041F03000DFE741F04000DCE741F0500073
:10417000D9E741F06000D6E741F07000D3E7FF20B7
:10418000D1E7012B01D11046CDE700BFCBE70146B7
:10419000302905DB392903DCA1F13000C0B27047BA
:1041A000412905DB462903DCA1F13700C0B2F6E75F
:1041B000612905DB662903DCA1F15700C0B2EEE7F7
:1041C0000020ECE770B503460C464FF6FF7111E096
:1041D00013F8010B414000250AE001F0010020B175
:1041E00049104AF20100414000E04910681CC5B284
:1041F000082DF2DB2000A4F10104E9D110888842E7
:1042000001D1002070BD11804FF0FF30FAE70000AF
:10421000002066E0C0EBC001334A02EB8101897ADD
:10422000C1F3001189B3C0EBC00102EB8101897AAF
:10423000C1F3401149BBC0EBC00102EB8101897A97
:10424000C1F3801109BBC0EBC00102EB8101C98839
:1042500000291ADD00EB4001244A02EBC101897DEF
:1042600001F00F01032910D02149095C01290CD16B
:10427000C0EBC0011C4A02EB8101C988491EC0EB9A
:10428000C002194B03EB8202D180C0EBC001164A79
:1042900002EB8101098B02290CDDC0EBC00102EBAE
:1042A0008101098B491EC0EBC0020F4B03EB820258
:1042B000118314E0C0EBC0010B4A02EB8101098BB2
:1042C00002290CD10621C0EBC002074B03EB82028E
:1042D00091820121C0EBC00203EB82021183411CD9
:1042E000C8B2322896DB7047C4250020AC7C002081
:1042F0003C2B002030B50446B6480088C0F385103A
:10430000B4490968C1F30431C1EB011100EB810527
:1043100004EB840000EBC400AF4901EB4000B0F9AE
:104320000200A84211DC04EB840000EBC40001EBA6
:104330004000B0F90400A84207DD0020A74908703A
:104340000021204603F032FC30BD04EB840000EB7A
:10435000C400A14901EB4000B0F90400A84211DCFF
:1043600004EB840000EBC40001EB4000B0F9060050
:10437000A84207DD0120994908700121204603F079
:1043800015FCE1E704EB840000EBC400924901EB6B
:104390004000B0F90600A84211DC04EB840000EBF9
:1043A000C40001EB4000B0F90800A84207DD02207C
:1043B0008A4908700221204603F0F8FBC4E704EBA9
:1043C000840000EBC400844901EB4000B0F9080010
:1043D000A84211DC04EB840000EBC40001EB4000B8
:1043E000B0F90A00A84207DD03207C4908700321C8
:1043F000204603F0DBFBA7E704EB840000EBC400DE
:10440000754901EB4000B0F90A00A84211DC04EB49
:10441000840000EBC40001EB4000B0F90C00A8429E
:1044200007DD04206D4908700421204603F0BEFB1F
:104430008AE704EB840000EBC400674901EB40000D
:10444000B0F90C00A84211DC04EB840000EBC400BE
:1044500001EB4000B0F90E00A84207DD05205F49DE
:1044600008700521204603F0A1FB6DE704EB8400F2
:1044700000EBC400584901EB4000B0F90E00A8421F
:1044800011DC04EB840000EBC40001EB4000B0F948
:104490001000A84207DD062050490870062120467A
:1044A00003F084FB50E704EB840000EBC4004A49AE
:1044B00001EB4000B0F91000A84211DC04EB8400CD
:1044C00000EBC40001EB4000B0F91200A84207DD88
:1044D0000720424908700721204603F067FB33E7B5
:1044E00004EB840000EBC4003B4901EB4000B0F951
:1044F0001200A84211DC04EB840000EBC40001EBC5
:104500004000B0F91400A84207DD082033490870C4
:104510000821204603F04AFB16E704EB840000EB79
:10452000C4002D4901EB4000B0F91400A84211DC91
:1045300004EB840000EBC40001EB4000B0F916006E
:10454000A84207DD0920254908700921204603F00B
:104550002DFBF9E604EB840000EBC4001E4901EBDF
:104560004000B0F91600A84211DC04EB840000EB17
:10457000C40001EB4000B0F91800A84207DD0A2092
:10458000164908700A21204603F010FBDCE604EB14
:10459000840000EBC400104901EB4000B0F91800A2
:1045A000A84202DCB5F5B46F0ADB04EB840000EB33
:1045B000C400094901EB4000B0F90200A84207DD40
:1045C0000B20064908700B21204603F0EFFABBE6EA
:1045D0000020B9E6580500201A010020A80F00208D
:1045E0000146302905DB392903DCA1F13000C0B2D6
:1045F0007047412905DB5A2903DCA1F13700C0B21D
:10460000F6E7612905DB7A2903DCA1F15700C0B286
:10461000EEE70020ECE7000010B502460020012381
:104620009340034C2488234003B1084610BD00008A
:10463000E20E002010B5044669480078082802DC24
:104640006748007810B9012065490870644800780F
:1046500009306449087062480078401E6249087059
:104660006248097800EB011061490860207E617E94
:104670000844C0EBC000616801EB40004068584945
:10468000884207D15B480078012867D1002059494A
:10469000087063E0207E617E0844C0EBC000616862
:1046A00001EB40004168544800680830814222D143
:1046B0004FF4FA72C82150480068083007F06EFEC7
:1046C0004C480078012849D14C4908704A48006894
:1046D00000894B49444A127821F822000846424A90
:1046E000127800EB82014748006814F05BFE00205E
:1046F0004049087032E0207E617E0844C0EBC00073
:10470000616801EB400041683B4800680A30814223
:1047100024D14FF44872C821374800680A3007F0A6
:104720003DFE34480078012818D102203349087032
:1047300031480068418932482B4A127800EB8200E8
:1047400041802F48284A127800EB8200811C2D48B6
:10475000006814F027FE002026490870207C0328FA
:104760003CD0234800680078234909680870204835
:10477000006840782049096848701D4800688088B2
:104780001D49096848801A480068C0881A490968A4
:10479000888017480068008917490968C88014484C
:1047A0000068408914490968A1F8110010480068A0
:1047B00080891149096808810D480068C0890E493F
:1047C00009684881104800880B490968A1F80D0064
:1047D0000E48008808490968A1F80F0010BD0000C4
:1047E000D3060020930E0020940E0020C423002046
:1047F000A4060020AC0500209C060020920E00209C
:10480000F802002078050020DC0F0020DA0F0020DD
:1048100010B50446207E617E0844C0EBC00061688C
:1048200001EB4000406830490968884219D141F2E3
:104830007C5241F268012C4800680A3007F0AEFD56
:104840002A48007801283ED1274800680088284976
:1048500008802848006814F0A5FD0020234908704E
:1048600031E0207E617E0844C0EBC000616801EB4E
:10487000400041681C480068801C814223D141F2FD
:104880007C5241F2680118480068801C07F086FDE0
:1048900016480078012816D1134800684088164948
:1048A00008800846008812490988884203DA1048BF
:1048B00000881149088010490E48006814F072FD04
:1048C00000200A490870207C03280CD000200749EA
:1048D000087007480088044909680880064800886D
:1048E00001490968488010BD9C060020AC050020E5
:1048F00018030020780500201A0300202DE9F05F3E
:104900008346324800783249096808703148007897
:10491000012805D1304800782D490968487006E023
:104920002C48007818B900202949096848702B489C
:10493000007827490968887029480078244909685F
:10494000C870284800782249096808712048006822
:10495000441D25490968488925F028FE0646234953
:1049600025F0DAFC60602248008825F01FFE8146B1
:104970001D490968888925F019FE82461D4925F0E0
:104980005DFE80461C4925F0C7FC0746494625F0D8
:1049900055FE0646616825F0BFFCA0600C48006823
:1049A00000F10D051549A06825F014FE08D20F4945
:1049B000A06825F043FE064625F0C0FD288002E0F1
:1049C0004FF461502880BDE8F09F0000A403002050
:1049D0009C0600205C030020B60300205D0300203D
:1049E0005E000020B7030020A80300200000204143
:1049F000B80000200000704200401C460000B44493
:104A000030B5034600222B4C2468A4782CB9294CDD
:104A10002468E478274D2D68AC70264C2468A4786F
:104A2000244D2D68ED78AC4203DD0124214D2D6825
:104A3000AC70002100200DE01F4C245C002C07DD31
:104A40004C1CE1B21B4C2468A4788C4200D103E0DA
:104A5000441CE0B23228EFDB00BF322800D130BD69
:104A6000164C246834F81040124D2D68AC80134C5D
:104A7000E46954F820400F4D2D68C5F80640104CED
:104A8000246824880B4D2D686C810A4C2468648945
:104A9000084D2D68AD886C430A2594FBF5F4094D4B
:104AA00045F820402C4654F82040024D2D68EC601B
:104AB00000BFD4E79C0600201C8200203418002090
:104AC000A8030020AC24002070B50546052D00DDAC
:104AD000052500240DE0C4EB4410074901EB8000DC
:104AE0004088002803DD611CC8B20CF005FC601C86
:104AF000C4B2AC42EFDB70BD741800202DE9F04F5A
:104B000089B081468A4693461D46002700200890BA
:104B1000BDF81C0069F30400ADF81C00BDF81C00D2
:104B200020F02000ADF81C00BDF81C006AF38B10CB
:104B3000ADF81C00BDF81C006BF30F30ADF81C0085
:104B4000A8B2ADF81E0047488078642802DD4FF017
:104B5000640802E0434890F802800026002415E033
:104B60004148006850F824000799884202D1781C17
:104B7000C7B209E03C48006850F824003A49096887
:104B800041F82600701CC6B2601CC4B24445E7DB85
:104B900017B909B0BDE8F08F32488078C01B3149A1
:104BA0008870084680780870084680784870BDF89C
:104BB0001C0020F020002030ADF81C0000200490E4
:104BC00005900690294903C9CDE90401079880B2F0
:104BD000ADF816000695264AD2E900109268CDE994
:104BE0000202019101204FF4FA6301AAC102009070
:104BF0002048006813F026FA0890BDF8200000EB6A
:104C00004000800000F6040081B20C2304AA194879
:104C1000006814F0E5FBBDF82000401C80B208904D
:104C2000BDF82000B0F5FA6F01DB002008900223E8
:104C300008AA40F602010F48006814F0D1FB0948A9
:104C4000807850B90C48007820F020000A4908709C
:104C50000846007840F008000870002007490870F6
:104C600000BF96E7050F0020CC0300205805002068
:104C700070AB020878050020510F0020440F00207F
:104C800010B503460A461046FFF781FA0446184657
:104C9000FFF77DFA44EA0010C0B210BD10B502461D
:104CA0000B460020002104E0545C0444A0B24C1CDC
:104CB000A1B29942F8DBC143491C88B210BD000083
:104CC0001A4909680978042904DC1849096809782F
:104CD000012903D10121154A12681170134909688D
:104CE0000978491E01EB8101114A32F821100F4A5F
:104CF000126851800D4909680978491E01EB81014C
:104D00000B4A02EB81014988084A126891800749E1
:104D100009680978491E01EB8101054A02EB81010E
:104D20008968024A1268C2F8061070479C06002083
:104D3000808200202DE9F04FA3B0FE48007810B922
:104D400023B0BDE8F08F0024B8E001250026FA4822
:104D50000068408A05FA04F1084000B10126F748CE
:104D600030F81400C0F3C110022834D105FA04F061
:104D7000F3490988084068B3F04B13F8143003F086
:104D80007F03F04FFA5CED4B33F81430C3F342214C
:104D9000EA4B13F8143003F07F0303F114000023EF
:104DA000FFF7ACFEE54810F8140000F07F00E6497C
:104DB000095C01208840E54AD2E9003223EA00007C
:104DC0000021E24A03C205FA04F0DD490988814363
:104DD000DB48018070E0D94830F81400C0F3C110FE
:104DE000B04234D105FA04F0D549098808400028BA
:104DF00061D1D24B13F8143003F07F03D14FFA5C2A
:104E0000CE4B33F81430C3F34221CC4B13F814309B
:104E100003F07F0303F11400002311F039FAC748AF
:104E200010F8140000F07F00C749095C0120884099
:104E3000C64AD2E9003218431146C44A03C205FAF1
:104E400004F0BF4909880843BD49088033E005FAEA
:104E500004F0BB490988084068B3B84B13F8143014
:104E600003F07F03B74FFA5CB44B33F81430C3F34D
:104E70004221B24B13F8143003F07F0303F1140006
:104E80000023FFF73BFEAD4810F8140000F07F0050
:104E9000AD49095C01208840AC4AD2E9003223EADE
:104EA00000000021A94A03C205FA04F0A4490988B8
:104EB0008143A348018000BF601CC4B20C2CFFF6E4
:104EC00044AF0020A2490870A24800680088A249A7
:104ED000098888421ADDA14800680068012108405D
:104EE00028B9002302221946012011F0D1F901222C
:104EF0009A480068D0E9001062F30001974A1268EE
:104F0000C2E900100220924908701EE09148006832
:104F10000188914800880A38814216DA8F48006873
:104F2000006801210840012804D10023022219460B
:104F3000FFF7E4FD002289480068D0E9001062F321
:104F40000001864A1268C2E900108548007878B1ED
:104F500084480078D8B9012082490870E02082494D
:104F6000C8710023082219461A2011F091F90EE0A9
:104F70007C48007801280AD100207A4908707A49D3
:104F8000C8710023082219461A20FFF7B7FD002038
:104F90007549087048708870C87074480068008847
:104FA00073490988884212DD6C4800680078C0F3B4
:104FB000401040B901226948016803C962F34510F5
:104FC000664A126803C202206749087019E0674800
:104FD0000068018866480088C838814211DA5F4855
:104FE00000680078C0F3401001280AD100225B4815
:104FF0000068D0E9001062F34511584A1268C2E90E
:1050000000105A480068808859490988884212DD92
:10501000524800680078C0F3C01040B901224F48E0
:10502000016803C962F3C7104C4A126803C2022028
:105030004D49887017E04D48006881884C480088C9
:10504000C83881420FDA454800680078C0F3C010C4
:10505000012808D100224148016803C962F3C71042
:105060003E4A126803C241480068408840490988A6
:10507000884214DD394800680078C0F3801050B9C8
:10508000012236480068D0E9001062F38611334AE5
:105090001268C2E9001002203349487019E0334811
:1050A0000068418832480088C838814211DA2B48AC
:1050B00000680078C0F3801001280AD10022274838
:1050C0000068D0E9001062F38611244A1268C2E930
:1050D000001026480068808A26490988884215DD24
:1050E0001E4800680088C0F3C02028B900230222AF
:1050F0000121062011F0CCF801221848016803C9EB
:1051000062F3CB20154A126803C238E013480068E6
:105110000088C0F3C020012805D10023022201210C
:105120000620FFF7EBFC00220C48016803C962F37C
:10513000CB2021E0B80300207805002000010020EA
:10514000E20E0020260F0020320F0020C0030020B6
:10515000100F0020A8030020CA000020E40E002049
:10516000D80F0020240F0020080F0020C8030020C3
:10517000C4000020C6000020FE4A126803C2FE4898
:105180000068C08AFD490988884215DDF948006831
:105190000088C0F3003028B90023022211460620FF
:1051A00011F076F80122F348016803C962F30C306C
:1051B000F04A126803C217E0EE4800680088C0F3A6
:1051C0000030012805D10023022211460620FFF7F6
:1051D00095FC0022E7480068D0E9001062F30C312A
:1051E000E44A1268C2E90010E3480068008BE34912
:1051F0000988884217DDDF4800680088C0F3403026
:1052000028B9002302220321062011F041F80122CF
:10521000D8480068D0E9001062F34D31D54A1268D1
:10522000C2E9001017E0D34800680088C0F340309E
:10523000012805D10023022203210620FFF75EFC8E
:105240000022CC480068D0E9001062F34D31C94A11
:105250001268C2E90010CA48007800287ED1C94807
:10526000007828B90120C74908700220C649087093
:10527000C64800680088C649098888421ADABD48CD
:1052800000680078C0F3400028B900230A221946BC
:10529000132010F0FDFF0122B6480068D0E900108D
:1052A00062F34101B34A1268C2E900100120B94912
:1052B00008701DE0B54800680188B54800880A30CC
:1052C000814215DDAB4800680078C0F3400001283A
:1052D00005D100230A2219461320FFF70FFC0022F4
:1052E000A448016803C962F34100A24A126803C2DC
:1052F000A04800680078C0F38000012804D1002392
:105300000A221946FFF7FAFB00229A480068D0E902
:10531000001062F38201974A1268C2E900109548B2
:1053200000680088C0F3C030012805D100230122A5
:1053300019460920FFF7E2FB00228E480068D0E9F9
:10534000001062F3CF318B4A1268C2E9001089481D
:1053500000680088C0F38030012800E090E005D1AB
:105360000023022219460920FFF7C8FB00228148CA
:105370000068D0E9001062F38E317E4A1268C2E9FB
:1053800000107C4800680088C0F3002001280AD182
:10539000002278480068D0E9001062F30821754ABD
:1053A0001268C2E90010734800680088C0F340200A
:1053B00001280AD100226F480068D0E9001062F38A
:1053C00049216C4A1268C2E900106A4800680088E6
:1053D000C0F3802001280AD1002266480068D0E985
:1053E000001062F38A21634A1268C2E90010614822
:1053F00000680068C0F30040012805D100231A4668
:1054000019460A20FFF77AFB00225A480068D0E9C3
:10541000001062F31041574A1268C2E90010554863
:1054200000680068C0F34040012805D100231A46F7
:1054300019460B20FFF762FB00224E480068D0E9B6
:10544000001062F351414B4A1268C2E9001049480A
:1054500000680068C0F38040012805D100231A4687
:1054600019460C20FFF74AFB002242480068D0E9A9
:10547000001062F392413F4A1268C2E90010C9E28B
:1054800040480078012804D100203E4908703E4978
:105490000870384800680078C0F34000012805D142
:1054A00000230A2219461320FFF728FB0022314867
:1054B0000068D0E9001062F341012E4A1268C2E987
:1054C00000103248006800883349098888421ADA97
:1054D000284800680078C0F3800028B900230A2219
:1054E0001946012010F0D4FE012222480068D0E9BC
:1054F000001062F382011F4A1268C2E90010012005
:10550000244908701EE0214800680188224800886C
:105510000A30814216DD174800680078C0F3800029
:10552000012804D100230A221946FFF7E7FA0022D6
:1055300010480068D0E9001062F382010D4A126839
:10554000C2E900100C480068008841F288318842A6
:1055500035DA1248007800F0040004282FD10548FD
:1055600000680068C0F30040E0B900231A461946FD
:105570000A2015E0E40E0020C8030020C600002029
:10558000B5030020110F0020120F0020A8030020F7
:10559000C8000020100F0020520200206A030020E3
:1055A00010F076FE0122FD48016803C962F3104045
:1055B000FA4A126803C20320F949087017E0F74855
:1055C00000680068C0F30040012805D100231A4696
:1055D00019460A20FFF792FA0022F0480068D0E945
:1055E000001062F31041ED4A1268C2E90010ED4864
:1055F00000680088EC490988884220DAE74800689A
:105600000068C0F30040D0B9E848007800F004001A
:10561000042814D1E14800680088C0F3002050B984
:105620000122DE480068D0E9001062F30821DB4A5D
:105630001268C2E900100120D949087019E0D94860
:1056400000680188D8480088C830814211DDD348FD
:1056500000680088C0F3002001280AD10022CF484A
:105660000068D0E9001062F30821CC4A1268C2E950
:105670000010CC480068408841F28831884220DA26
:10568000CA48007800F0020002281AD1C348006816
:105690000068C0F3404028B900231A4619460B2081
:1056A00010F0F6FD0122BD480068D0E9001062F359
:1056B0005141BA4A1268C2E900100320B849487043
:1056C00015E0B64800680068C0F34040012805D1E5
:1056D00000231A4619460B20FFF710FA0022AF48A4
:1056E000016803C962F35140AC4A126803C2AD4875
:1056F00000684088AC490988884220DAA7480068D9
:105700000068C0F34040D0B9A848007800F002001B
:10571000022814D1A14800680088C0F3402050B985
:1057200001229E480068D0E9001062F349219B4A9B
:105730001268C2E9001001209949487019E099489F
:105740000068418898480088C830814211DD93483C
:1057500000680088C0F3402001280AD100228F4849
:105760000068D0E9001062F349218C4A1268C2E94E
:1057700000108C480068808841F2883188421FDA26
:105780008A48007800F00100D0B1844800680068C1
:10579000C0F3804028B900231A4619460C2010F0A7
:1057A00077FD01227D480068D0E9001062F3924144
:1057B0007A4A1268C2E9001003207949887015E01E
:1057C000764800680068C0F38040012805D10023B6
:1057D0001A4619460C20FFF791F900226F4801681C
:1057E00003C962F392406D4A126803C26D480068B3
:1057F00080886D49098888421FDA68480068006817
:10580000C0F38040C8B96948007800F00100A0B139
:10581000624800680088C0F3802050B901225F48C8
:105820000068D0E9001062F38A215C4A1268C2E97C
:10583000001001205A49887019E05A480068818890
:1058400059480088C830814211DD544800680088FA
:10585000C0F3802001280AD1002250480068D0E916
:10586000001062F38A214D4A1268C2E9001000203C
:105870004B49C8704D48007800F00700F0B34C4821
:1058800000880A2190FBF1F046490968C9888842DE
:105890001ADA02204249C870404800680088C0F304
:1058A000803028B9002302221946092010F0F0FCAC
:1058B00001223A480068D0E9001062F38E31374A7D
:1058C0001268C2E9001022E0394800880A2190FBE2
:1058D000F1F0401F33490968C988884217DD2F4815
:1058E00000680088C0F38030012805D1002302221F
:1058F00019460920FFF702F9002200E05CE0274882
:10590000016803C962F38E30244A126803C2294831
:1059100000880A2190FBF1F022490968C988884271
:105920001ADD01201E49C8701C4800680088C0F3B9
:10593000C03028B9002301221946092010F0A8FC24
:10594000012216480068D0E9001062F3CF31134AF3
:105950001268C2E900105DE0164800880A2190FB39
:10596000F1F0401D0F490968C988884252DC0B4894
:1059700000680088C0F3C030012805D1002301224F
:1059800019460920FFF7BAF800220448016803C944
:1059900062F3CF30014A126803C23BE0E40E0020FC
:1059A000080F0020C8030020C20000206A03002066
:1059B000CC000020CE000020F84800680088C0F32A
:1059C0008030012805D10023022219460920FFF763
:1059D00095F80022F148016803C962F38E30EF4A5E
:1059E000126803C2ED4800680088C0F3C030012887
:1059F00005D10023012219460920FFF77FF8002274
:105A0000E6480068D0E9001062F3CF31E34A12683B
:105A1000C2E900100521E24800681EF0B1FD07460A
:105A20000921DF4800681EF0ABFD06460124DD4871
:105A3000007888BB00257FE0705D032190FBF1F2C8
:105A400001FB1200012806D1D748007800F00100C0
:105A500008B164006EE0705D032190FBF1F201FB80
:105A60001200022807D1D048007800F00200022876
:105A700001D164005EE0705D032190FBF1F201FB57
:105A8000120050B9705D40B1C748007800F00400C2
:105A9000042802D164004DE053E0785D00F001007D
:105AA00080B1C2480068204030B9681CC1B20023F0
:105AB00006220F2010F0ECFBBC4800682043BB49D5
:105AC00008600FE0B9480068204030B1681CC1B2DE
:105AD000002306220F20FFF711F8B4480068A04306
:105AE000B2490860B24800684069204080B9B148B6
:105AF0000068204030B9681CC1B2002307220F2083
:105B000010F0C6FBAB4800682043AA4908600FE0CC
:105B1000A8480068204030B1681CC1B200230722A9
:105B20000F20FEF7EBFFA3480068A043A1490860DF
:105B3000640000BF681CC5B29F488078A8423FF748
:105B40007BAF9E480068B0F926009D4909888842CD
:105B50001ADD924800680068C0F3406040B9002335
:105B600002221946102010F093FB802095490870FE
:105B700001228A480068D0E9001062F35961874A1F
:105B80001268C2E9001024E08C480068B0F92610C1
:105B90008B480088A0F5967081421ADA7F48006829
:105BA0000068C0F34060012808D100230222194692
:105BB0001020FEF7A3FF00208249087000227748DA
:105BC0000068D0E9001062F35961744A1268C2E9B2
:105BD00000107A480068B0F926007B49098809B2AC
:105BE00088421FDA75480068B0F926007749884274
:105BF00018DD6A4800680068C0F3006040B90023FF
:105C000001221946102010F043FB80206D490870D6
:105C100001226248016803C962F318605F4A126892
:105C200003C225E065480068B0F926106648008880
:105C300000B200F5967081421ADD5848006800688D
:105C4000C0F30060012808D100230122194610206A
:105C5000FEF754FF00205B49087000224F4800689F
:105C6000D0E9001062F318614C4A1268C2E90010D2
:105C700052480068B0F92B0010F10F0F15DA4748B1
:105C800000680078C0F3001028B900231A461946AE
:105C9000132010F0FDFA01224048016803C962F3A5
:105CA00004103E4A126803C21DE044480068B0F97F
:105CB0002B00002817DB394800680078C0F300107B
:105CC000012805D100231A4619461320FEF716FFB6
:105CD000002232480068D0E9001062F304112F4A14
:105CE0001268C2E900103A48007860B93948007873
:105CF000B0B9002306221946132010F0C9FA01207A
:105D0000344908700CE033480078012808D100239A
:105D1000062219461320FEF7F1FE00202D490870D7
:105D200000210291019100202B490870FEE32A48CE
:105D30000078402871DA294827490978405C002812
:105D40006CDD2748C06824490978405C00F00100F8
:105D500018B3214802780124002520462946FCF783
:105D6000EFFA204B0CCB104019400023584059400B
:105D7000084351D11848007800EB40001A4901EB64
:105D8000C000C07D7B2831D0134803785B1C0522FE
:105D90000E20029910F07CFA30E040E0E40E002082
:105DA000AC030020110F0020BE030020180F0020BC
:105DB0007C0E0020200F0020680E0020A803002089
:105DC000D0000020130F0020D2000020ACF4FFFF11
:105DD00058000020150F0020E00E00201C8200203B
:105DE00034180020980E0020AC7C0020FE48037878
:105DF0005B1C05221220029910F04AFAFA48027838
:105E00000126002730463946FCF79AFAF74B0CCBAF
:105E100010431943F54A03C244E015E2C8E1F248D1
:105E200002784FF001084FF0000940464946FCF760
:105E300087FAEE4B0CCB10401940002358405940D4
:105E400008432FD0E848007800EB4000E84901EB18
:105E5000C000C07D7B2808D0E34803785B1C052286
:105E60000E200299FEF74AFE07E0DF4803785B1C2C
:105E7000052212200299FEF741FEDB4802784FF01E
:105E8000010A4FF0000B50465946FCF759FA0A46F2
:105E9000C143D043D54AD2E9003219401040D34A19
:105EA000C2E90010D348C068CF490978405C00F0CF
:105EB000400040283FD1CC48027801210020CDE9A4
:105EC000030108460399FCF73BFACB4B0CCB10407F
:105ED000194000235840594008436FD1C248007808
:105EE00000EB4000C24901EBC000C07D7B2808D018
:105EF000BD4803785B1C04220E20029910F0C8F9FB
:105F000007E0B94803785B1C04221D20029910F0B9
:105F1000BFF9B548027801210020CDE90501084606
:105F20000599FCF70DFAB44AD2E90032184311433F
:105F3000B14A03C242E0AC48027801210020CDE919
:105F4000070108460799FCF7FBF9AB4B0CCB104057
:105F5000194000235840594008432FD0A2480078E8
:105F600000EB4000A24901EBC000C07D7B2808D0B7
:105F70009D4803785B1C04220E200299FEF7BEFDAB
:105F800007E0994803785B1C04221D200299FEF764
:105F9000B5FD9548027801210020CDE909010846A8
:105FA0000999FCF7CDF90A46C143D043924AD2E998
:105FB000003219401040904AC2E900108D48C06874
:105FC00089490978405C00F0080008282DD18648EE
:105FD000027801210020CDE90B0108460B99FCF75E
:105FE000AFF9864AD2E900321840114000235840E8
:105FF0005940084347D17C4803785B1C09220E2096
:10600000029910F045F97848027801210020CDE985
:106010000D0108460D99FCF793F9784AD2E9003250
:1060200018431143754A03C22DE06F4802780121DD
:106030000020CDE90F0108460F99FCF781F96F4B5D
:106040000CCB1040194000235840594008431AD047
:10605000654803785B1C09220E200299FEF74EFD6D
:106060006148027801210020CDE91101084611990B
:10607000FCF766F9614AD2E9003223EA000022EA1D
:1060800001015E4A03C25B48C06857490978405C19
:1060900000F08000802829D1534802780121002097
:1060A000CDE9130108461399FCF74AF9544B0CCB80
:1060B00010401940002358405940084345D14A48F0
:1060C00003785B1C06220E20029910F0E1F8464886
:1060D000027801200021CDE91510FCF731F9484B79
:1060E0000CCB10431943464A03C22EE03E480278C7
:1060F00001210020CDE9170108461799FCF720F986
:106100003F4B0CCB104019400023584059400843E6
:106110001BD0354803785B1C06220E200299FEF73F
:10612000EDFC3148027801210020CDE91901084633
:106130001999FCF705F90A46C143D043304B0CCB03
:10614000114018402E4AC2E900102E48264909780D
:10615000405C01282DD12448027801210020CDE99E
:106160001B0108461B99FCF7EBF8274AD2E90032DD
:1061700018401140002358405940084318D11A488C
:10618000027801210020CDE91D0108461D99FCF788
:10619000D7F81D4AD2E90032184311431A4A03C204
:1061A000114803785B1C07220E20029910F070F84A
:1061B000F4E114480C490978405C0128F8DD0A48EC
:1061C000027801210020CDE91F0108461F99FCF744
:1061D000B7F80D4AD2E90032184011400023584068
:1061E00059400843E4D011E0E00E0020980E002052
:1061F000AC7C002034180020A00E0020A80E002047
:10620000B00E00201C820020B80E0020F848027852
:1062100001210020CDE9210108462199FCF790F8E1
:106220000A46C143D043F34AD2E900321940104034
:10623000F04AC2E90010EE4803785B1C07220E20EA
:106240000299FEF75BFCA9E1E94800784028AFDB42
:10625000E948E7490978405C0028A9DDE748C068BB
:10626000E3490978405C00F0010080B3E048007821
:106270004038012101FA00F0E1490968084028BBD3
:10628000DB48007800EB4000DE4901EBC000C07D38
:106290007B2808D0D64803785B1C05220E20029983
:1062A0000FF0F6FF07E0D24803785B1C05221220AE
:1062B00002990FF0EDFFCE4800784038012101FA35
:1062C00000F0CF4909680843CD4908602FE0FFE797
:1062D000C74800784038012101FA00F0C849096830
:1062E000084020B3C248007800EB4000C54901EBEC
:1062F000C000C07D7B2808D0BD4803785B1C052208
:106300000E200299FEF7FAFB07E0B94803785B1C00
:10631000052212200299FEF7F1FBB54800784038BB
:1063200001218140B64800688843B5490860B348F8
:10633000C068AF490978405C00F04000402830D187
:10634000AB4800784038012101FA00F0AE490968F5
:10635000084028BBA648007800EB4000A94901EBA3
:10636000C000C07D7B2808D0A14803785B1C0422B4
:106370000E2002990FF08CFF07E09D4803785B1C0C
:1063800004221D2002990FF083FF994800784038BD
:10639000012101FA00F09C49096808439A49086004
:1063A0002EE0934800784038012101FA00F0964928
:1063B0000968084020B38E48007800EB40009149FE
:1063C00001EBC000C07D7B2808D0894803785B1CA6
:1063D00004220E200299FEF791FB07E0844803781F
:1063E0005B1C04221D200299FEF788FB8048007880
:1063F0004038012181408448006888438249086010
:106400007E48C0687A490978405C00F00800082896
:106410001DD1774800784038012101FA00F07B490E
:106420000968084078BB724803785B1C09220E207B
:1064300002990FF02DFF6E4800784038012101FAD3
:1064400000F0724909680843704908601BE0684819
:1064500000784038012101FA00F06C4909680840D1
:1064600088B1634803785B1C09220E200299FEF76D
:1064700045FB5F480078403801218140634800684F
:106480008843624908605D48C06859490978405CA2
:1064900000F0800080281DD1554800784038012147
:1064A00001FA00F05A490968084078BB504803785F
:1064B0005B1C06220E2002990FF0EAFE4C48007881
:1064C0004038012101FA00F0514909680843504958
:1064D00008601BE0464800784038012101FA00F0CE
:1064E0004B490968084088B1414803785B1C062283
:1064F0000E200299FEF702FB3D480078403801214A
:106500008140434800688843414908603A48384917
:106510000978405C01281FD13548007840380121B6
:1065200001FA00F03B490968084000E03BE0A8BBE5
:106530002F4800784038012101FA00F035490968F8
:106540000843344908602A4803785B1C07220E2060
:1065500002990FF09DFE21E0274825490978405C0B
:1065600001281BDD224800784038012101FA00F0A3
:1065700028490968084088B11D4800784038012141
:1065800081402448006888432249086018480378FD
:106590005B1C07220E200299FEF7B0FA144800781F
:1065A000401C13490870124800783228FFF6BFAB30
:1065B0000024B3E004EB8400174901EB8000C07BAA
:1065C000A8B11648005D00F0010048B9601CC1B2D6
:1065D0000023042207200FF05BFE032010490870FF
:1065E0000E48005D40F001000C4908552FE019E00D
:1065F000E00E0020B80E00201C820020341800207D
:10660000C00E0020AC7C0020C40E0020C80E00206C
:10661000CC0E0020D00E002080820020D40E00205E
:10662000D80E00209C48005D00F0010048B1601CBD
:10663000C1B2002304220720FEF760FA0020974928
:1066400008709548005D00F0FE009349085504EB82
:106650008400934901EB8000807B90B18E48005DFF
:1066600000F0800030B9601CC1B200230B2207206B
:106670000FF00EFE8848005D40F080008649085506
:1066800011E08548005D00F0800030B1601CC1B2AF
:1066900000230B220720FEF731FA7F48005D00F04F
:1066A0007F007D49085504EB84007D4901EB8000A3
:1066B000407C01281ED17848005D00F0400090B970
:1066C000601CC1B20023072210460FF0E1FD00203C
:1066D00004EB8401724A02EB8101488004EB8401DF
:1066E00002EB810188806C48005D40F040006A49FF
:1066F000085511E06848005D00F0400030B1601CB2
:10670000C1B2002307221046FEF7F8F96248005D87
:1067100000F0BF0060490855601CC4B2042CFFF6AD
:1067200049AF03F0CDFC5F48D0E900105E4B194043
:10673000002041404040014303D001205B490870E4
:1067400002E00020594908705648D0E9001017238C
:106750001940002041404040014303D001205349EB
:10676000487002E000205149487051480068514982
:1067700009680840504909684E4A126811400843A8
:1067800018B101204949887002E00020474988700B
:106790004448D0E900104FF06043194000204140C8
:1067A0004040014303D001204049C87002E000206E
:1067B0003E49C8703B4903C94FF078621040002140
:1067C00048404940084303D001203849087102E09D
:1067D0000020364908713548007834494978084422
:1067E0003249897808443149C97808442F490979E0
:1067F0000844002803DD01202C49487102E00020F4
:106800002A4948712D48007818B10120274988721B
:1068100002E00020254988722248D0E900100823B0
:106820001940002041404040014303D001201F494E
:10683000C87202E000201D49C872002427E02048E9
:1068400030F81400000B002818DD1D4830F8140043
:106850000121C1EB10301549085C38B1C4F10D00BD
:10686000C1B21848006812F0C7F80EE0C4F10D007C
:10687000C1B21448006812F0B7F806E0C4F10D0088
:10688000C1B21048006812F0AFF8601CC4B2092C05
:10689000D5DB00BFFEF754BAD40E0020D80E00207E
:1068A00080820020C0030020E0FF7F0074250020CC
:1068B000180F002034110020200F0020160F002098
:1068C00000010020780500202DE9F04707468846A2
:1068D00091460024A2460020A9F80000B8F1000F5C
:1068E0001BD1012F01D0032F3AD12848FBF794FE8A
:1068F000C6B206F11600C5B2254C29462046FBF764
:1069000035FF2448016821608088A08032461F49F5
:1069100004F11300FBF7ABFE22E01F48FBF77CFEFF
:10692000C6B24046FBF778FE00F0FF0A06F11300FE
:106930005044C01CC5B2164C29462046FBF716FF32
:106940001448016821608088A0803246124904F111
:106950001300FBF78CFE414604F11300FBF77BFEAE
:106960000120E0802772A4F8095006F1130050447A
:106970000219E91E2046FDF725FC0D21681E215253
:10698000A9F800502046BDE8F087000093AB02084C
:10699000E01A002088AB0208A2AB020825E0FDF750
:1069A00041F912480268124801681248006812F062
:1069B0006FFE1148006814F0C6FD1048007848B911
:1069C0000D48006813F0EAF80D48007810B901206E
:1069D0000B4908700848006815F072FE0648006808
:1069E00002F0B6F8C82022F047FBD8E7AC0300203D
:1069F000441100207C0E0020B00500205F11002013
:106A00006011002010B50446207E617E0844C0EB72
:106A1000C000616801EB400081689F480068093050
:106A2000814210D19D48007801280CD19A48006815
:106A3000407A9B4908709B48006812F0B3FC002024
:106A400096490870FAE0207E617E0844C0EBC000E1
:106A5000616801EB400040688F490968884219D19C
:106A6000B92201218C48006807F02CFB8B48007884
:106A70000128E7D18C4800788C4948438C49096843
:106A8000086389498748006812F08CFC002083491C
:106A90000870D3E0207E617E0844C0EBC0006168CE
:106AA00001EB400041687C480068C01D814217D15D
:106AB0001222012178480068C01D07F003FB7748C7
:106AC00000780128BED174480068C07979490870FF
:106AD0007448006812F066FC002070490870ADE050
:106AE000207E617E0844C0EBC000616801EB40007D
:106AF00080687149884213D1642200216648006889
:106B0000C01C05F04BFC6548007801289AD16A4901
:106B10006448006812F046FC0020604908708DE06F
:106B2000207E617E0844C0EBC000616801EB40003C
:106B300080686249884213D1642200215648006867
:106B4000401D05F02BFC55480078012876D15B49A3
:106B50005448006812F026FC0020504908706DE08F
:106B6000207E617E0844C0EBC000616801EB4000FC
:106B700080685349884217D1B422002146480068F2
:106B8000401C07F09FFA45480078012856D142483A
:106B9000006840784A4908804248006812F002FCC8
:106BA00000203E49087049E0207E617E0844C0EB29
:106BB000C000616801EB400080684249884218D1FA
:106BC0004FF416720121344800680C3005F0E6FBE2
:106BD00032480078012831D12F480068808939492E
:106BE00008803048006812F0DDFB00202B49087057
:106BF00024E0207E617E0844C0EBC000616801EBA8
:106C000040004168244800680A30814216D163225E
:106C10000021214800680A3007F054FA1F48007824
:106C2000012808D11C480068807A274908701D484F
:106C3000006812F0B7FB002018490870207C032878
:106C400029D0194800781449096808701C48007850
:106C50001149096848701B4800780F490968887015
:106C6000154800880C490968A1F8030013480088FA
:106C700009490968A1F805000E4800780649096825
:106C8000C871074800780449096848720E480078BE
:106C900001490968887210BD9C060020AC050020DF
:106CA0005803002078050020670300208051010070
:106CB000640000206C030020BA000020BC0000200B
:106CC000BE000020C00000209003002010B5044644
:106CD000207E617E0844C0EBC000616801EB40008B
:106CE00081681E4800680E3081420FD11C48007830
:106CF00001280BD100201A49087001201949087099
:106D00001949164800680E3003F0E2FC207E617ECF
:106D10000844C0EBC000616801EB400041680F48C7
:106D200000681E30814218D10D480078012814D126
:106D300000200B49087002200A49087007480068C3
:106D4000807F002809DD05480068807F192804DA63
:106D500002480068807F0549087010BD9C0600202D
:106D6000AC050020950E0020F30300204211002006
:106D70002DE9F0410446FE4800680078052803DD4F
:106D80000120FB4909680870F948006840780C2820
:106D900003DD0120F64909684870F548006800786D
:106DA00018B90520F24909680870F1480068407870
:106DB00018B90C20EE4909684870ED480068007861
:106DC000EC490870EA4800684078EB490870207E7A
:106DD000617E0844C0EBC000616801EB400041687F
:106DE000E3480068801C814244D1E1480068807813
:106DF0000C2803DD0C20DE4909688870DC48006837
:106E0000807818B90120DA4909688870D848006884
:106E1000C0781F2803DD1F20D5490968C870D448F1
:106E20000068C07818B90120D1490968C870D348F2
:106E3000007801281ED10020D0490870CC4B1B6877
:106E4000DA78CB4B1B689978C94B1B681B785B1EA3
:106E5000D8B201F0E3FAC64800680078401E00EBA3
:106E6000800202EBC000C64A02EB4001C548006840
:106E700012F098FA207E617E0844C0EBC000616881
:106E800001EB40004168BA480068801D81425CD136
:106E9000B74800688079182808DDB548006880790F
:106EA000802803DA1720B24909688871B048006861
:106EB0008079802803DD0020AD4909688871AC48DD
:106EC0000068C0793B2808DDA948006880798028DF
:106ED00003DA3B20A6490968C871A5480068C07953
:106EE000802803DD0020A2490968C871A04D2D68E3
:106EF000EB799F4D2D68AA799D4D2D686D786D1E9B
:106F0000E9B29B4D2D682D786D1EE8B203F088FA2A
:106F10009A480078012818D10020984908709448B0
:106F200000680078401E00EB800202EBC000944A2B
:106F300002EB4000801C8E4A12685278521E00EB11
:106F400042019048006812F02DFA207E617E0844CC
:106F5000C0EBC000616801EB4000816884480068B4
:106F60000A3081422AD185480078012826D10020A4
:106F7000824908707E4B1B689A7A7D4B1B685B7850
:106F80005B1ED9B27A4B1B681B785B1ED8B201F02E
:106F900093FB774800684078451E05EBD57042109A
:106FA000734800680078401E00EB400002EB400090
:106FB000754A81187348006812F0F4F9207E617EEA
:106FC0000844C0EBC000616801EB4000816868487C
:106FD00000680B3081425AD168480078012856D1A8
:106FE00000206649087062480068C07A88B94FF08E
:106FF000FF315F4800680078401E00EB4000634AA4
:1070000002EBC0025A4800684078401E22F8101077
:107010002AE057480068C07A012810D1002154485E
:1070200000680078401E00EB4000584A02EBC002A6
:107030004F4800684078401E22F8101014E04C4879
:107040000068C07A02280FD11421494800680078EE
:10705000401E00EB40004D4A02EBC002444800686D
:107060004078401E22F81010414800680078401E09
:1070700000EB4000454A02EBC0023D480068407802
:10708000401E02EB40013F48006812F08BF9207E61
:10709000617E0844C0EBC000616801EB40004168BC
:1070A000334800680C30814233D1344800780128DD
:1070B0002FD10020314908702D480068B0F90C002C
:1070C000002825DD2A480068808901B22848006828
:1070D0000078401E00EB40002C4A02EBC00224481E
:1070E00000684078401E22F810102148006800789F
:1070F000401E00EB4000254A02EBC0021C4800681D
:107100004078401E02EB40011E48006812F04AF928
:10711000B9E0207C032805D1207C0328F8D1607ECB
:107120000028F5D1124800680578681E00EB800140
:1071300001EBC000124931F8100087B200220C4860
:107140000168891C384602F039F9052D00D1002567
:1071500005EB850000EBC500094931F81070781E79
:1071600087B2002202480168091D384610E000007D
:107170009C060020840E0020850E0020AC05002017
:107180001A010020780500206E03002080020020F4
:1071900002F014F9012807D00C203C490968087155
:1071A0001F203A49096848713848006845783748CF
:1071B00000680078401E00EB800101EBC0003449FC
:1071C00001EB4000801C691E30F8110087B20022DC
:1071D0002E480168891D384600F002FD0C2D00D1B3
:1071E00000252A4800680078401E00EB800101EB72
:1071F000C000274901EB4000801C30F81570781E54
:1072000087B20022214801680831384600F0E8FCC6
:107210001E4A12685278521ED1B21C4A1268127865
:10722000521ED0B200F0C2FC184909688872174893
:1072300000680078401E00EB4000164901EBC001D9
:10724000124800684078401E31F91060002E07DABD
:1072500000200E490968C8720C490968888111E04C
:107260003EB9012009490968C872084909688E8138
:1072700008E0002E06DD022004490968C8720349AF
:1072800009688E8100BFBDE8F08100009C060020E7
:107290001A010020800200207CB50446494800788D
:1072A000002874D1207C032828D04748808847498B
:1072B0000968088044480068C0F38350434909685E
:1072C000488041480068C0F34440404909688880CC
:1072D0003D480068C0F304303C490968C8803A481A
:1072E0000088C0F38510394909680881364800785C
:1072F00000F03F0035490968488161E0207E617EE9
:107300000844C0EBC000616801EB400040682F49B1
:107310000968884216D140F6320240F2E5712B48E6
:10732000006805F03BF80C22012128480068801C09
:1073300005F034F81F22012124480068001D05F0E3
:107340002DF83DE0207E617E0844C0EBC0006168FE
:1073500001EB400041681D480068801D81422FD12B
:107360001722002119480068801D05F017F83B22FC
:10737000002116480068083005F010F83B22002173
:10738000124800680A3005F009F819E0FFE70F48D5
:107390000068807A0D490968097A0C4DCDE9001022
:1073A0002D68AB79094D2D682A79084D2D68A9788B
:1073B000064D2D682888FCF7F3FC00200149087071
:1073C0007CBD0000AC050020580500209C06002074
:1073D0002DE9F041804600BF00BF31480068807849
:1073E000012803DA06202E49096888702C480068B5
:1073F0008078062803DD012029490968887029481A
:10740000806827490968897830F81100244909689B
:1074100088802448006A22490968897850F8210048
:107420001F490968C1F806001D4800688078401EA1
:107430001D4951F820001A490968C1F80A000024C2
:1074400025461848006A16490968897850F82100CD
:10745000642100FB01F60027012008E01149096AB8
:1074600051F820100C1945F10005411CC8B207283D
:10747000F4DB00210846091BA8410ADA22462B4604
:1074800030463946FAF76FFF0646054909680E800F
:1074900003E00020024909680880BDE8F08100008F
:1074A0009C06002034180020008300202049096831
:1074B0000978012903DA04211D4A126811701C4958
:1074C00009680978042903DD0121194A126811703D
:1074D000174909680978491E164A1170017C032969
:1074E00024D01146097801EB8101134A32F92110A9
:1074F0000A2291FBF2F109B20D4A126851800D493E
:10750000097801EB81010C4A02EB81014988084AA4
:10751000126891800749097801EB8101064A02EB64
:1075200081018968024A1268C2F80610704700009B
:107530009C060020D70600208082002070B55648A7
:1075400005785648007800287ED0554A1268C2F364
:107550004441534A1268C2F3835001F09DFA84B249
:107560005048B0F90000A0420CDC4E48B0F91A00B7
:10757000A04207DD00204C490870FCF7BBFE4649DD
:10758000087058E04748B0F91A00A0420CDC4548A2
:10759000B0F93400A04207DD012043490870FCF730
:1075A000A9FE3D49087046E03E48B0F93400A042CB
:1075B0000CDC3C48B0F94E00A04207DD02203A49FD
:1075C0000870FCF797FE3449087034E03548B0F98C
:1075D0004E00A0420CDC3348B0F96800A04207DD41
:1075E000032031490870FCF785FE2B49087022E022
:1075F0002C48B0F96800A04205DCB4F5B77F09DB80
:10760000B4F5B77F06DD2748B0F90000A04209DDD8
:10761000012C07DB042024490870FCF76BFE1E498F
:10762000087008E00520204908700C201F490870E8
:107630000020194908701C480078052813DA1B48F7
:1076400000780C280FDA00E011E01748007800EB12
:107650004000174901EBC0001449097830F81100C7
:107660001449088002E000201249088002E000204E
:10767000094908700848007885420CD00E4805700A
:1076800001200E49087000200D49096881F8230087
:107690000B490968C88070BDB60300205C03002058
:1076A000580500201A010020A70F0020A80F002075
:1076B00080020020A40F0020A90F0020AA0F0020A4
:1076C000640000202DE9F04705460F46904600264D
:1076D000EC1D0A20A0490870607801286CD105F1E2
:1076E0001309484600F076F9401C10B90020BDE8A7
:1076F000F0879A48006808B90020F8E798A19748F1
:107700000068FBF77DF838B90221002001F0D0FDB8
:1077100095489649086019E095A190480068FBF7E4
:107720006FF818B99448914908600FE093A18B480D
:107730000068FBF765F838B992488C490860022167
:10774000002001F0B5FD01E00020D0E78E48006880
:1077500008B90020CBE78D498B480068FBF750F84B
:10776000002801DC0020C2E78948006808B9002031
:10777000BDE788A186480068FBF742F8A8B98748AA
:1077800080F8008040F21640854908803A46002182
:107790000120FFF799F80646002082490870012071
:1077A000814908801FF076FF05E03A467F490120B5
:1077B000FFF78AF80646CDE06078022803D17748C3
:1077C00000780028F7DC607803285CD173480078E3
:1077D000002858DD05F213424FF4806105F11300D3
:1077E000FCF7F0FC90BB20896F49098888421FD1C3
:1077F00005F113016C48008803F044F801206C493E
:1078000008703A4600210320FFF75EF80646002084
:1078100064490870A08864490988884202D116200A
:107820005F49088060480088401C5F49088091E0FB
:107830005C480078401C5B490870084600780A28BC
:1078400005DD00F08BF90020307083E006E03A4659
:1078500058490320FFF738F806467BE05148007886
:10786000401C50490870084600780A2804DD00F0E2
:1078700075F9002030706DE03A464F490120FFF75E
:1078800023F8064666E0607804284CD14348007827
:10789000002848DD44480088401EA188884259D10C
:1078A00041480088401E810205F113022F480068FC
:1078B000FCF788FCB0BB1FF061FE00203749087060
:1078C0002A4800682849884211D145F65A211520D6
:1078D0001FF00EF9A18816201FF00AF900210120DF
:1078E00001F0E6FC01F0CEFA0FF094F832E01F4808
:1078F0000068244988422DD10088304908802148F9
:1079000008302F4908602F482F4908601D48C0885B
:107910001C4908442D4908600021012001F0C8FCE1
:1079200001F0B0FA16E06078052813D11D48007800
:10793000401C1C490870084600780A2804DD00F045
:107940000DF90020307005E03A4621490120FEF78C
:10795000BBFF06463046CAE6CC0F0020B40F00201D
:10796000436F64650000000000000808C00F00209D
:1079700048544D4C0000000000500408466F6E74DF
:107980000000000000000408B80F00208FAB0208C0
:10799000BC0F00205570677261646500C50F002040
:1079A000C80F0020CA0F0020C60F0020F5AB020848
:1079B000CB0F0020DDAB0208BBAB02081C0000208F
:1079C000200000205F03040824000020280000207D
:1079D000CDAB020870B50546002417A12846FAF77A
:1079E000DDFD044614B94FF0FF3070BD14A12846E8
:1079F000FAF7D4FD044615A12046FAF7C9FD14A1F3
:107A00000020FAF7C5FD1449086011A10020FAF71B
:107A1000BFFD0FA10020FAF7BBFD104908600CA1C3
:107A20000020FAF7B5FD0AA10020FAF7B1FD0C49D4
:107A300008600020D9E700004835324330000000DC
:107A4000446174615F547970650000003A2200005F
:107A50003A222C2000000000B40F0020B80F0020B4
:107A6000BC0F0020017E427E1144C1EBC10142687F
:107A700002EB41014A6812498A4206D1114909784C
:107A8000012902D100210F4A1170017E427E11446A
:107A9000C1EBC101426802EB41018A680A490968E9
:107AA0000C318A420AD107490978012906D10021FF
:107AB000044A11700121044A126851737047000092
:107AC0006C0E0020AC0500209C06002070B504461A
:107AD0000E4620480078012807D101223146204671
