:020000040800F2
:1020000000CC00200123000809230008E13B000860
:102010000D2300080F230008112300080000000012
:102020000000000000000000000000005D22000829
:102030001523000800000000A1220008F9AA0208E8
:102040001B2300081B2300081B2300081B23000878
:102050001B2300081B2300081B2300081B23000868
:102060001B2300081B2300081B2300081B23000858
:102070001B2300081B2300081B2300081B23000848
:102080001B2300081B2300081B230008693B0008D2
:10209000493B0008593B00081B2300081B2300088C
:1020A0001B2300081B2300081B2300081B23000818
:1020B0006D3F00081B2300081B2300081B2300089A
:1020C0001B2300081B2300081B2300081B230008F8
:1020D0001B2300084D4000081B2300085D4000083A
:1020E0001B2300081B2300081B2300081B230008D8
:1020F0001B2300081B2300081B230008000000000E
:102100001B230008000000001B2300081B230008FD
:102110003D4000081B2300081B2300081B23000868
:102120001B2300081B2300081B2300081B23000897
:102130001B2300081B2300081B230008993B0008F1
:10214000793B0008893B00081B2300081B2300087B
:1021500000F002F800F073F80AA090E8000C824446
:102160008344AAF10107DA4501D100F068F8AFF223
:10217000090EBAE80F0013F0010F18BFFB1A43F065
:102180000103184748AE020068AE02000A444FF04F
:10219000000C10F8013B13F0070408BF10F8014BC6
:1021A0001D1108BF10F8015B641E05D010F8016B0B
:1021B000641E01F8016BF9D113F0080F1EBF10F86F
:1021C000014BAD1C0C1B09D16D1E58BF01F801CB92
:1021D000FAD505E014F8016B01F8016B6D1EF9D515
:1021E0009142D6D37047000000230024002500262A
:1021F000103A28BF78C1FBD8520728BF30C148BF6A
:102200000B60704766292AF03080782900F00C8135
:10221000002070471FB59DE8030000F0F1FE00F0BC
:10222000CFFE04000020002128F0FAFDE06000F05D
:102230002BFB1FBD10B5002025F007FD10BD01F0E0
:1022400027F81146FFF7E6FF27F0DCF901F05FF809
:1022500003B4FFF7EFFF03BC01F066F8204B1968E9
:102260000868B0E8F00F80F30988BFF36F8F4FF074
:10227000000080F311884EF00D0E70470000000042
:1022800006480068006880F3088862B661B6BFF34C
:102290004F8FBFF36F8F00DF00BF00BF08ED00E07E
:1022A000EFF30980BFF36F8F0D4B1A6820E9F00F31
:1022B000106008B54FF0BF0080F3118828F0D2FB02
:1022C0004FF0000080F31188BDE8084019680868E5
:1022D000B0E8F00F80F30988BFF36F8F704700BF3D
:1022E00024100020EFF311804FF0BF0181F311881B
:1022F000704780F311887047EFF305807047000046
:102300000948804709480047FEE7FEE7FEE7FEE789
:10231000FEE7FEE7FEE7FEE7FEE7FEE704480549C5
:10232000054A064B70470000ED3E000851210008A9
:10233000008C002000CC002000AC002000AC00206D
:10234000B2F120030AD5C2F1200301FA02F120FA0A
:1023500003F300FA02F041EA0301704700FA03F1C7
:102360004FF00000704710B54C1084EA530404D5B8
:102370004042C1F1000138BF491E1B4204D5524200
:10238000C3F1000338BF5B1E00F0EAFA14F0804F7F
:1023900004D04042C1F1000138BF491E14F0004F83
:1023A00004D05242C3F1000338BF5B1E10BD0000D1
:1023B0000FB41CB5074B06AA7B44694600900598EC
:1023C00000F0BBFD0020694600F0CAFD1CBC5DF8B2
:1023D00014FB0000A50B000070B504468569006879
:1023E000C10601D5302600E02026C00707D070BD09
:1023F000D4E9012130469047206A401C20626D1EBE
:10240000F6D570BD70B5044685690078C00707D160
:1024100070BDD4E9012120209047206A401C206231
:102420006D1EF6D570BD000070B504460D46214600
:102430001068AFF300802188090502D50F4A7A445D
:1024400002E00E4A7A440E32002104F1240305E032
:1024500000F00F060009965D5E54491C0028F7D174
:1024600020780023000704D5702D02D009B1022383
:1024700011322046BDE8704000F0F4BA52A10200CB
:102480002DE9F0474FF0000A89460446C0F820A025
:102490002046E1688847002876D0252806D0D4E970
:1024A00001219047206A401C2062F1E7E168204644
:1024B00000258847C4F81CA006460027C4F818A0C9
:1024C0002A2E09D0304625F0C7FD38B304EB870823
:1024D000303EC8F8186019E059F8041B204604EB98
:1024E00087029161E1688847012F064618D1E069AB
:1024F000002820DA25F020051DE0D8F8180000EBB0
:10250000800006EB40003038C8F818002046E1682B
:102510008847064625F0A0FD0028EED1012F0AD0FD
:102520002E2E08D12046E16888477F1C0646022FE0
:1025300045F02005C4DBA069002803DA404245F0DD
:102540000105A061E80701D025F01005B6B1A6F19C
:102550004100192802D8203645F400654A46314624
:10256000204625604D46FFF74DFE58B1012806D0A4
:10257000ED1D25F0070000F1080989E704E005F1E9
:10258000040985E730468AE7206ABDE8F087000045
:10259000014A00F0EBBC00002411002030B50546D4
:1025A0000B462A4613F8014B12F8010B08B1A04262
:1025B000F8D01CB1002802D06D1CF1E7284630BDD0
:1025C00040EA010310B59B070FD1042A0DD310C8B0
:1025D00008C9121F9C42F8D020BA19BA884201D902
:1025E000012010BD4FF0FF3010BD1AB1D30703D04A
:1025F000521C07E0002010BD10F8013B11F8014B00
:102600001B1B07D110F8013B11F8014B1B1B01D11B
:10261000921EF1D1184610BD10B5431C02E010F80F
:10262000011B71B18107FAD14FF0013202C88C1A37
:102630008C4314EAC211F9D0C01A0A0603D0C01E96
:1026400010BDC01A10BD0A0401D0801E10BD0902C1
:10265000FCD0401E10BD421E12F8013F002BFBD1E2
:1026600011F8013B002B02F8013BF9D17047032A16
:1026700040F2308010F0030C00F0158011F8013B9F
:10268000BCF1020F624498BF11F801CB00F8013B86
:1026900038BF11F8013BA2F1040298BF00F801CB4A
:1026A00038BF00F8013B11F0030300F02580083A21
:1026B000C0F0088051F8043B083A51F804CBA0E878
:1026C0000810F5E7121D5CBF51F8043B40F8043BCD
:1026D000AFF30080D20724BF11F8013B11F801CB02
:1026E00048BF11F8012B24BF00F8013B00F801CBD3
:1026F00048BF00F8012B704710B5203AC0F00B809E
:10270000B1E81850203AA0E81850B1E81850A0E8F5
:102710001850BFF4F5AF5FEA027C24BFB1E818504F
:10272000A0E8185044BF18C918C0BDE810405FEABF
:10273000827C24BF51F8043B40F8043B08BF70473B
:10274000D20728BF31F8023B48BF11F8012B28BF40
:1027500020F8023B48BF00F8012B704702F0FF034E
:1027600043EA032242EA024200F002B84FF00002BC
:102770000429C0F0128010F0030C00F01B80CCF193
:10278000040CBCF1020F18BF00F8012BA8BF20F801
:10279000022BA1EB0C0100F00DB85FEAC17C24BF55
:1027A00000F8012B00F8012B48BF00F8012B7047FF
:1027B0004FF0000200B5134694469646203922BFDA
:1027C000A0E80C50A0E80C50B1F12001BFF4F7AF25
:1027D000090728BFA0E80C5048BF0CC05DF804EB07
:1027E000890028BF40F8042B08BF704748BF20F875
:1027F000022B11F0804F18BF00F8012B704700002A
:102800004FF0013C50F8042B51F8043B9A4221D17F
:10281000A2EB0C03934313EACC1317D150F8042B0B
:1028200051F8043B9A4215D1A2EB0C03934313EAEF
:10283000CC130BD150F8042B51F8043B9A4209D128
:10284000A2EB0C03934313EACC13DBD04FF0000050
:10285000704700BFD01A01BAB1FA81F101F0180136
:1028600022FA01F0CB40C1F12001DBB2C0B2C01AA4
:102870002CFA01F3D11A914311EAC311E6D1704742
:10288000704770477047000070B5064C7C44064D99
:102890007D4403E0206820448047241DAC42F9D1E8
:1028A00070BD000078A70200ACA702000048704786
:1028B000D88B002070B5064600F07EFB056806F157
:1028C0000B0020F00704B4429CBF002070BD2B46D3
:1028D0006A68BAB11068A04210D304F108018842B6
:1028E0003CBF5068586007D35168101941601168A7
:1028F000091B016058601460101D70BD13465268BA
:10290000002AE7D12146284600F066FB0028DED1E8
:1029100070BD70B50446051F00F04EFB0068002C2A
:1029200014BF446870BD002C18BFAC423CBF2046A9
:102930006468F8D301680A18AA4218BF456003D139
:102940002A6805461144016028684119A1421CBF4C
:102950006C6070BD6168696021680844286070BD62
:1029600053EA020C00F069802DE9F04B4FF00006AD
:10297000002B1FBFB3FA83F503FA05F424FA05F61A
:102980005E4012BF1643B2FA82F502FA05F4C5F1B1
:1029900020051EBF22FA05FC44EA0C04203556EA45
:1029A000044C4FEA144418BF641C4FF000084FF069
:1029B0000009904271EB030C39D3002919BFB1FA19
:1029C00081F701FA07F6B0FA80F700FA07F6C7F1C7
:1029D00020071EBF20FA07FC46EA0C062037B6FB8C
:1029E000F4FCA7EB0507103F07F01F0BCBF1200607
:1029F0000CFA0BFB2CFA06F644BFB3460026202F38
:102A0000A4BF5E464FF0000B5BEA060C08BF4FF018
:102A1000010B19EB0B09ABFB027C48EB0608C01B52
:102A200006FB02CC0BFB03CC71EB0C01C1E70B46A0
:102A3000024641464846BDE8F08B13B54FF0000012
:102A40004FF00001AFF30080BDE81C40704710B5A7
:102A500000F0BAFA006810BD10B5044600F0B4FAF0
:102A6000046010BD2DE9F0470D4699469246044694
:102A700000F124080168880604D5E06921F01001FE
:102A8000216000E00120A84201DD471B00E0002793
:102A9000A1697A1902EB0900081AA0612078C00622
:102AA00002D42046FFF798FC002608E0D4E9012173
:102AB0001AF806009047206A401C761C20624E459A
:102AC000F4DB2078C0060AD52046FFF785FC06E037
:102AD000D4E9012130209047206A401C2062381E32
:102AE000A7F10107F4DC07E0D4E9012118F805009B
:102AF0009047206A401C2062281EA5F10105F3DCE6
:102B00002046FFF77FFC2078000602D50220BDE8B2
:102B1000F0870120FBE770472DE9FF4F0C461E466A
:102B20004FF0FF378BB0D2E90001DDF860800A90EA
:102B30008A46C1F30A5505B93D46002108464FF0C3
:102B40000000BAF1000F00F4400005DA00EB80004D
:102B50004FF4400101EA50004FEA9059B9F1010FDA
:102B600000DDB9460A9850EA4A000ED044F61050EB
:102B7000A5F2FF3545432F14B8F1000F1ED0754262
:102B8000291E1EDDC9F100021CE0B8F1010F4FF053
:102B9000000001D0302103E0F24305E02154401C45
:102BA000B042FBDB30460022002121540B99C1F8D2
:102BB0000880C1E900200FB0BDE8F08FBD1B6D1C7F
:102BC000DEE74A4600DA694206A800F0D5FA06AB0D
:102BD00093E8070003AB83E8070050460A9900F02A
:102BE000F7FB8DE80700A0F500501F380090039810
:102BF000002D09DD42F21F014A46084403A9039053
:102C0000684600F056FE08E0A0F500504A461F381E
:102C100003A90390684600F060FE8DE807000004F9
:102C2000000C03D04FF0FF30410800E01046B8F12F
:102C3000000F03D00022009215461EE0751E05D439
:102C400000F014FA303262556D1EF9D5B3460122F8
:102C5000084302D000227F1C04E02078302801D1F4
:102C600000227F1E002A099786D01DE0112D07DA69
:102C700000F0FCF9303262556D1C50EA0102F5D1CA
:102C8000084302D00098C8B10EE00021681E05E09C
:102C9000235C625C63542254401E491C8142F7DB72
:102CA000AB46A81B401E0990002004F80B000B98AF
:102CB000099AC0F80880C0E9002B7CE711264FF084
:102CC000000859E72DE9F04F88460446D21D22F04E
:102CD000070191B0D1E90001CDE90A0124F088FF94
:102CE00002460B98C00F01D02D2007E02068810715
:102CF00001D52B2002E0202101EAC000032A09901F
:102D000001D0072A05DB03464146204600F0F4F9CE
:102D10000BE12078800601D5E06900E00620B8F1DB
:102D2000650F814606D0B8F1660F18D0B8F1670F6D
:102D300070D131E00020B9F1110F009001DB1123B7
:102D400001E009F101030AAA01A90CA8FFF7E4FEBA
:102D5000DDE90C70002609F10105834647E00120FA
:102D60004B4600904FF000470AAA01A90CA8FFF7B4
:102D7000D3FEDDE90DB00C995D46002610B909F1CE
:102D800001000D18B9EB050003D4C0F1FF3609F1BD
:102D90000105A5EB09002BE0B9F1010F01DA4FF0B5
:102DA00001090020B9F1110F0090484601DD1123FF
:102DB00000E003460AAA01A90CA8FFF7ADFEDDE971
:102DC0000C704D4600268346207800070AD4AB4598
:102DD00000DA5D4601A8012D04DD411911F8011C3E
:102DE000302907D04F4502DA17F1040F04DA012029
:102DF00082460FE06D1EEEE7002F02DCED1B3E4425
:102E000003E0781CA84200DD7D1CB81B00F1010A1C
:102E10004FF000472078000703D4AA4501DB4FF0AC
:102E2000FF3A0021B7F1004F0DF143088DF8431030
:102E300024D002202B23002F01DA7F422D230A21E8
:102E4000021EA0F1010000DC5FB197FBF1FC97FBD3
:102E5000F1F201FB1C7C17460CF1300C08F801CD97
:102E6000EEE7A8F1010003702188090501D545218D
:102E700000E06521A0F1010800F8011C09980FA9E4
:102E8000A1EB0807FF1D00B10120411901EBEA7019
:102E9000A1693844081A401EA0612078C00602D4F7
:102EA0002046FFF799FA099828B1D4E90121904703
:102EB000206A401C20622078C00622D52046FFF7F9
:102EC0008BFA1EE0002E04DBB34502DD01A8805D15
:102ED00000E03020D4E901219047206A401C2062A4
:102EE000761CAAF101005FEA000A0AD100F068F836
:102EF000C0680168405CD4E901219047206A401C09
:102F00002062281EA5F10105DCDC07E0D4E90121DF
:102F100018F8010B9047206A401C2062381EA7F168
:102F20000107F3DC2046FFF76DFA032011B043E6FA
:102F300001694A1C02610878704700B58FB0CDE97D
:102F400001310021059105497944CDE9031011466D
:102F50006846FFF795FA0FB000BD0000E5FFFFFFE0
:102F60000A6802F8010B0A60704700002DE9F04181
:102F700015460E46040002D12C6804B90BA4204665
:102F800000F078F90444207870B12746314638467D
:102F900000F060F90444207810B1002004F8010B1F
:102FA00038462C60BDE8F0810027F9E700000000FA
:102FB00000487047A08B002000487047A88B002075
:102FC00000487047C08B002000487047A08B00204D
:102FD000704770477047704738B504460A4600206E
:102FE0006946AFF30080002808BF38BD024600994B
:102FF000204600F072F9012038BD012000F08DB9A3
:10300000F8B5AFF30080054600200C46102000BF45
:103010000646A819A0420DD9324669460020AFF3F2
:103020000080070008BF00F078F90098A04218BFA0
:103030000546C419FFF7C0FF05600746F01D20F0E4
:1030400007004619284600F00AF8B44208BFF8BD48
:10305000A21B31463868BDE8F84000F03EB90021B7
:103060000160C0E9011070471020704730B5B0F121
:103070000A024FEA900E71F100034EEA817EB0EB36
:103080000E0061EB91014FEA101E4EEA017E10EB3B
:103090000E0041EB11114FEA102E4EEA016E10EBBB
:1030A0000E0041EB11214FEA104E4EEA014E10EB9B
:1030B0000E0041EB1141401841F100014FEAD000F0
:1030C00040EA41704FEAD10110EB80054FEA8104DC
:1030D00044EA907444EB01046D1944EB0404521B60
:1030E000A3414FF0000348BF0A3200D530BD401C59
:1030F00041F1000130BD00002DE9F0411F460446BA
:1031000003260168072A01F4006004DB08B116A554
:1031100005E016A503E008B115A500E015A521F00E
:1031200010002060A069C01EA0610FB1401EA06108
:103130002046FFF751F94FB1D4E9012138469047B5
:10314000206A401C2062C01C206206E0206AFAE768
:10315000D4E9012115F8010B9047761EF8D22046DC
:10316000FFF750F9BDE8F0814E414E006E616E00F0
:10317000494E4600696E66002DE9F04781461646C5
:103180008AB0334878440DC88DE80D003048784443
:10319000801C03AC0DC884E80D0041F69B30084448
:1031A000372190FBF1F290FBF1F5A5F1800501FBD1
:1031B00012041B3C02D56442012000E00020DFF82D
:1031C00090A080460027FA44AAF1BE0A0DE0E0076D
:1031D00009D03246684607EB47010AEB810100F04F
:1031E0007CFB8DE8070064107F1C002CEFD1184F8A
:1031F0007F44AC3F18E0E80714D007EB04100DF152
:10320000180A90E80E008AE80E00C068F04201D16A
:1032100098190890324606A903A800F05EFB03AB9C
:1032200083E807006D10641C002DE4D13246694626
:10323000B8F1000F03A802D000F03BFB01E000F062
:103240004CFBC9E90001C9F808200AB0BDE8F087C5
:10325000F494020030B503461D781DB10A4603E020
:10326000AC4201D1181A30BD12F8014B002CF7D135
:103270005B1CF1E730B503461D783DB10A4612F8F4
:10328000014B1CB1AC42FAD15B1CF5E7181A30BDFA
:103290007546FFF78DFEAE4605006946534620F0A1
:1032A0000700854618B020B5FFF738F8BDE8204084
:1032B0004FF000064FF000074FF000084FF0000BF2
:1032C00021F00701AC46ACE8C009ACE8C009ACE8A5
:1032D000C009ACE8C0098D467047034640688C467B
:1032E000002818BF88423CBF03464068F8D31868DE
:1032F0001844884207D00CF1030020F00700001D9D
:10330000411A521A0146081D0A60FFF702BB044623
:10331000AFF300802046FEF79BFF10B500F010F8D9
:10332000BDE8104000F007B801491820ABBEFEE729
:10333000260002007047002801D0FFF7F5BF704754
:1033400010B5012805D0002103A000F021F80120CC
:1033500010BD09A1F8E7000053494752544D454DAF
:103360003A204F7574206F662068656170206D6526
:103370006D6F7279000000003A2048656170206D21
:10338000656D6F727920636F727275707465640019
:1033900070B505460C460A2000E06D1C00F011F8DF
:1033A00035B128780028F8D102E0641C00F009F853
:1033B00014B120780028F8D1BDE870400A20AFF39E
:1033C000008008B569468DF800000320ABBE08BD3B
:1033D0005FEA400C08BF91F0000F4FEA8C234FEAE0
:1033E000C12243EA51514FEA1C5018BF00F5F0408A
:1033F0004FEA300018BF41F000415FEA6C5C00F01A
:103400002980BCF1FF3F08BF40F080407047130C9B
:1034100006BF12044FF0100C4FF0000C130E04BF47
:1034200012020CF1080C130F04BF12010CF1040C72
:10343000930F04BF92000CF1020CD30F04BF520093
:103440000CF1010C11464FF00002A0F11F00A0EB9F
:103450000C00704711F0004F08BF704731F0004179
:103460003FF4D5AF0B0C06BF09044FF0100C4FF022
:10347000000C0B0E04BF09020CF1080C0B0F04BF6B
:1034800009010CF1040C8B0F04BF89000CF1020C34
:10349000CB0F04BF49000CF1010CCCF12003A0EBD1
:1034A0000C0022FA03F302FA0CF241EA030100F1E4
:1034B0000100704720F07F4C80EA030023F07F4733
:1034C000ACEB070303F57C5300F0004003F1FF036E
:1034D0002DE980494FEA154B09B44FEA144325EA18
:1034E0000B4E24EA03480FF2042606EB1327490883
:1034F0003E785FEA320203FB0667C7F5000707FB69
:1035000006F64FEA54374FEAD64606F1020607FBA5
:10351000066CCCF1005C4FEA1C472CEA074C07FB19
:1035200006F40CFB06F504EB15464FEA961634BF7D
:1035300000204FF000404FEAD13706FB07FC4FEA6E
:103540001C4C0CFB0BF7D21B03FB0CF761EB0701C8
:103550000CFB0EF7B0EB074072EB17420CFB08F7C1
:1035600034BFA2EB0742B2EB074261EB17414FEACF
:103570000C444FEA910706FB07FC4FEA1C4C0CFB7E
:103580000BF7B0EBC74072EB573203FB0CF734BFBD
:10359000A2EBC742B2EBC74261EB57310CFB0EF70F
:1035A000B0EBC70072EB57720CFB08F734BFA2EB0D
:1035B000C702B2EBC70261EB5771039F4FEA81610B
:1035C00041EA921104EBCC044FEAD1374FEA826210
:1035D00006FB07FC42EA90124FEA80604FEA1C4C5F
:1035E0000CFB0BF7D21B03FB0CF761EB07010CFB89
:1035F0000EF7B0EB074072EB17420CFB08F734BF35
:10360000A2EB0742B2EB074261EB17414FEA8C5540
:103610004FEA910704EB9C2406FB07FC4FEA1C4C85
:103620000CFB0BF7B0EBC74072EB573203FB0CF708
:1036300034BFA2EBC742B2EBC74261EB57310CFB80
:103640000EF7B0EBC70072EB57720CFB08F734BFF4
:10365000A2EBC702B2EBC70261EB577115EB4C2529
:103660004FEA816141EA92114FEA82624FEAD13713
:1036700042EA901206FB07FC44F100044FEA806026
:103680004FEA1C4C0CFB0BF7D21B03FB0CF761EB56
:1036900007010CFB0EF7B0EB074072EB17420CFB77
:1036A00008F734BFA2EB0742B2EB074261EB1741C8
:1036B00015EB1C154FEA813141EA92414FEA823203
:1036C00042EA90424FEA80304FEA0C7644F100041F
:1036D00048EA03434EEA0B484FF0000EB2EB080CE9
:1036E00071EB030724BF624639464EEB0E0E4FF0D6
:1036F000000B0018524149414BEB0B0BB2EB080C8D
:1037000071EB03077BF1000B24BF624639464EEB99
:103710000E0E4FF0000B0018524149414BEB0B0BC2
:10372000B2EB080C71EB03077BF1000B24BF624680
:1037300039464EEB0E0E51EA020718BF46F001065D
:1037400016EB0E7655F1000254F1000103D5BDE8E9
:103750008901BDE80088BDE88901BDE80048B619C7
:10376000524141EB0101A3F10103704780807F7E4C
:103770007D7C7B7A797877767675747372717170E7
:103780006F6E6E6D6C6C6B6A6A6968686766666599
:103790006464636362616160605F5F5E5E5D5D5C27
:1037A0005C5B5B5A5A595958585757565655555598
:1037B0005454535352525251515050504F4F4F4EF8
:1037C0004E4D4D4D4C4C4C4B4B4B4A4A4A49494946
:1037D0004848484747474746464645454544444488
:1037E000444343434342424242414141002B26D499
:1037F000770021D01CB54FEA370703B44FF0100013
:103800004FF010014FF000000FBCBDE810400BF16D
:10381000010BBBF1010F08BF5FEA170722BF12F1CE
:10382000010211F101014FF0004143F1000300F0EA
:10383000004043EA00007047F9D35708DAE746EA48
:10384000064613F1400F4FEA16461FDD13F1200F15
:10385000DFBF16430A46002120335B42C8D0C3F1C4
:10386000200746EA064602FA07F74FEA164646EAF6
:103870000706C3F1200722FA03F201FA07F721FA3B
:1038800003F14FF0000342EA0702B1E746EA0206FD
:1038900046EA06464FEA164646EA0106BCBF46EA35
:1038A0000646360C4FF000034FF000024FF00001C7
:1038B0009EE72DE9C048934630B491E8380007C828
:1038C00031EA400C48BF34EA430C03D5FFF7F2FD60
:1038D000FFF78CFFF0BCBDE800882DE9C048934697
:1038E00030B491E8380007C810F0804F08BF13F0DB
:1038F000804F03D100F005F8FFF778FFF0BCBDE87A
:10390000008820F07F4780EA030023F07F4C07EB1C
:103910000C03A3F57C5300F00040A3F1FE0392F0EA
:10392000000F00F0B38095F0000F00F077802DE9D4
:1039300001494FEA11404FEA144621EA004800FBD2
:1039400006FC24EA064708FB06F607FB08F800FB1E
:1039500007F718EB06484CEB164C4FEA124B18EBE6
:1039600007484FEA15464CEB174022EA0B4E0BFB7B
:1039700006FC25EA06470EFB06F607FB0EFE0BFBD0
:1039800007F71EEB064E4CEB164C4FF000061EEBF5
:10399000074E4CEB174B18EB0B0840F1000018EBEF
:1039A0000E0B58EB000840F100008F1A4FF0000199
:1039B0003CBFC943661B14BFB5EB040C00213CBFE0
:1039C000C943F61B4FEA17444EEA8E0E27EA044518
:1039D0004FEA1C4704FB07622CEA074C05FB07F77C
:1039E0000CFB05F604FB0CFC16EB074642EB1742FA
:1039F00016EB0C4642EB1C421BEB060658EB020290
:103A0000414146EA9E0601D5BDE80189B6195241F9
:103A100041EB0101A3F10103BDE801894FEA14451F
:103A20004FEA114724EA054621EA074C05FB07F453
:103A300006FB07F70CFB06F105FB0CFC11EB07413D
:103A400044EB17444FEA124711EB0C4144EB1C4482
:103A500022EA074C05FB07F206FB07F70CFB06F60C
:103A600005FB0CFC16EB074642EB174216EB0C4627
:103A700042EB1C456A1854F1000148BF7047B61963
:103A8000524141EB0101A3F10103704795F0000F92
:103A900037D04FEA11424FEA144721EA024624EA9E
:103AA000074C02FB07F106FB07F70CFB06F402FBD1
:103AB0000CFC14EB074441EB17414FEA154714EB9C
:103AC0000C4441EB1C4125EA074C02FB07F506FBC1
:103AD00007F70CFB06F602FB0CFC16EB074645EB62
:103AE000174516EB0C4645EB1C42121951F100012B
:103AF00048BF7047B619524141EB0101A3F10103E0
:103B000070474FEA14454FEA114724EA054621EA77
:103B1000074C05FB07F106FB07F70CFB06F24FF01D
:103B2000000605FB0CFC12EB074241EB174112EBC0
:103B30000C4251EB1C4148BF7047921841EB010108
:103B4000A3F101037047000010B50021014818F0EF
:103B500035FF10BD7811002010B50121014818F083
:103B60002DFF10BD7811002010B5024818F056FF47
:103B700010BD00007811002010B50021014818F098
:103B80001DFF10BD9011002010B50121014818F053
:103B900015FF10BD9011002010B5024818F03EFF2F
:103BA00010BD00009011002070B504460D4620465F
:103BB00024F050FD204625F099FD2946204624F0AA
:103BC00051FC064951F82400022124F008FE034963
:103BD00051F82400012124F002FE70BD80C30208C8
:103BE00010B512F0F1FE10BD0146CA1701EB92723A
:103BF0009210A1EB820292B9642091FBF0F200FBDB
:103C0000121050B94FF4C87091FBF0F200FB121083
:103C100008B9012070470020FCE70120FAE70020E6
:103C2000F8E7000070B500260024002526F0E2F930
:103C300006465548B6FBF0F454480088A04246D0EA
:103C400052490C8040F2B2750EE02846FFF7CCFFD7
:103C500030B1B4F5B77F02D3A4F5B77402E006E043
:103C6000A4F26D14681C85B2B4F5B67FEDD800BF20
:103C700047480580008847498880002516E0444869
:103C80000088FFF7B1FF30B1012D04D11D2C01D305
:103C90001D3C09E00CE04048405DA04203D83E488E
:103CA000405D241A00E003E0681C85B21C2CE6D2BB
:103CB00000BF681C3749096860F3995135480160B5
:103CC000601C3449096860F35541324801602E4850
:103CD000B6FBF0F100FB11644FF46160B4FBF0F14E
:103CE0002C48006861F310302A4908604FF4616085
:103CF000B4FBF0F100FB11403C21B0FBF1F1254891
:103D0000006861F38B10234908604FF46160B4FBD5
:103D1000F0F100FB11403C21B0FBF1F201FB12017C
:103D20001C48006861F305001A490860084681884C
:103D30001A48006861F31F50184908601548006868
:103D4000810D1648006861F313401449086011485A
:103D50000068410C1148006861F3CF200F490860EA
:103D60000C480068010B0D48006861F38A100B498C
:103D7000086008480068810D0848006861F3134036
:103D800006490860002070BD805101002605002012
:103D9000240500201805002038C402082005002052
:103DA0002DE9F05F06460F4690469946DDE90AABDD
:103DB000002440F2B270864203DB40F633008642B4
:103DC00002DD0120BDE8F09F40F2B2750AE028460E
:103DD000FFF70AFF10B11F48044401E01E480444E5
:103DE000681C85B2B542F2DB781EC7B2002510E030
:103DF0001A48405D40F2A321484304EBC01430460A
:103E0000FFF7F2FE18B1012D01D115480444681CDA
:103E100085B2BD42ECDBA8F1010040F2A32148438A
:103E200004EBC014C9EB4910C0EB092004EB0014EB
:103E3000CAEB0A1004EB80045C4425F0DBFC26F09E
:103E4000FBF8204626F0E0F8204626F0DDF80020BA
:103E5000B8E700000085E2018033E10138C40208C0
:103E6000805101001CB540F21B7026F073F840F23F
:103E70001C7026F06FF825F0BDFC142024F0B6FA73
:103E800045F65A2188422FD024F0E6FA4FF400601C
:103E900025F0BAFF4FF4006025F0C6FF4FF48070A4
:103EA00026F088F840F60F0026F054F826F0DEF8E9
:103EB00026F0C2F8012026F0B7F826F0BDF847F644
:103EC000FF7026F0C3F826F0B7F80B2000900346E9
:103ED00013220C21019040F2E670FFF761FF45F6D6
:103EE0005A21142024F09EFA1CBD000010B5184879
:103EF000006840F00100164908600846406815490E
:103F000008401349486008460068134908401049B2
:103F100008600846006820F4802008600846406871
:103F20000E4908400A4948600020C86208460068F7
:103F30000B490840064908604FF47F00886026F06E
:103F4000BBF9084CA4F251140748046010BD0000EE
:103F5000001002400C00FFE0FFFFF6FEFFFF00DF55
:103F6000FFFFF6EA5121000808ED00E010B501213D
:103F7000880726F090FA012852D10121800726F007
:103F800087FA28480088401C26490880264800688F
:103F900013F058F923480088642190FBF1F201FBEB
:103FA000120000283CD121480068401C1F490860CD
:103FB000002007F0F3F81B4800884FF47A7190FB5B
:103FC000F1F201FB1200F0B900201649088006F05A
:103FD000B5FF17480068401C1549086008F04AF909
:103FE0000CF0A4FB0BF044FF00F012F912F046FABB
:103FF00012F0A4FA0F480088012804D10E48008866
:10400000401C0D4908800A4800683C21B0FBF1F2D1
:1040100001FB120020B90648006808B106F0B4F9A7
:1040200010BD0000700F00202C000020000F0020A9
:10403000740F00207E0000207C00002010B5024894
:1040400023F0C0FC10BD00000812002010B502488B
:1040500023F0B8FC10BD00002012002010B502486B
:1040600023F0B0FC10BD00003812002070B50446EB
:104070000D46204626F014FB2946204626F06AFA13
:10408000204626F0B3FB044951F8240040F20531E4
:1040900026F075FB70BD000004C4020810B504468C
:1040A00040210C4825F056F80B4826F013F80A4832
:1040B00026F015F82146084826F032F800BF802186
:1040C000054826F05BF80028F9D14021014825F089
:1040D00043F810BD000801400030014010B504460F
:1040E00040210C4825F038F80B4825F0F3FF0A482A
:1040F00025F0F5FF2146084826F012F800BF802180
:10410000054826F03BF80028F9D14021014825F068
:1041100023F810BD000801400030014010B50246F0
:104120000B460AB9002010BD5BBB0C2092FBF0F4DB
:1041300000FB1420C1B211B9501EC2B20C210C20D8
:1041400092FBF0F007281AD2DFE800F004070A0D0E
:104150001013160041F01000E5E741F02000E2E7FF
:1041600041F03000DFE741F04000DCE741F0500073
:10417000D9E741F06000D6E741F07000D3E7FF20B7
:10418000D1E7012B01D11046CDE700BFCBE70146B7
:10419000302905DB392903DCA1F13000C0B27047BA
:1041A000412905DB462903DCA1F13700C0B2F6E75F
:1041B000612905DB662903DCA1F15700C0B2EEE7F7
:1041C0000020ECE770B503460C464FF6FF7111E096
:1041D00013F8010B414000250AE001F0010020B175
:1041E00049104AF20100414000E04910681CC5B284
:1041F000082DF2DB2000A4F10104E9D110888842E7
:1042000001D1002070BD11804FF0FF30FAE70000AF
:10421000002066E0C0EBC001334A02EB8101897ADD
:10422000C1F3001189B3C0EBC00102EB8101897AAF
:10423000C1F3401149BBC0EBC00102EB8101897A97
:10424000C1F3801109BBC0EBC00102EB8101C98839
:1042500000291ADD00EB4001244A02EBC101897DEF
:1042600001F00F01032910D02149095C01290CD16B
:10427000C0EBC0011C4A02EB8101C988491EC0EB9A
:10428000C002194B03EB8202D180C0EBC001164A79
:1042900002EB8101098B02290CDDC0EBC00102EBAE
:1042A0008101098B491EC0EBC0020F4B03EB820258
:1042B000118314E0C0EBC0010B4A02EB8101098BB2
:1042C00002290CD10621C0EBC002074B03EB82028E
:1042D00091820121C0EBC00203EB82021183411CD9
:1042E000C8B25E2896DB70479424002078800020B6
:1042F000DC2E002030B50446B6480088C0F3851097
:10430000B4490968C1F30431C1EB011100EB810527
:1043100004EB840000EBC400AF4901EB4000B0F9AE
:104320000200A84211DC04EB840000EBC40001EBA6
:104330004000B0F90400A84207DD0020A74908703A
:104340000021204603F0C4FB30BD04EB840000EBE9
:10435000C400A14901EB4000B0F90400A84211DCFF
:1043600004EB840000EBC40001EB4000B0F9060050
:10437000A84207DD0120994908700121204603F079
:10438000A7FBE1E704EB840000EBC400924901EBDA
:104390004000B0F90600A84211DC04EB840000EBF9
:1043A000C40001EB4000B0F90800A84207DD02207C
:1043B0008A4908700221204603F08AFBC4E704EB17
:1043C000840000EBC400844901EB4000B0F9080010
:1043D000A84211DC04EB840000EBC40001EB4000B8
:1043E000B0F90A00A84207DD03207C4908700321C8
:1043F000204603F06DFBA7E704EB840000EBC4004C
:10440000754901EB4000B0F90A00A84211DC04EB49
:10441000840000EBC40001EB4000B0F90C00A8429E
:1044200007DD04206D4908700421204603F050FB8D
:104430008AE704EB840000EBC400674901EB40000D
:10444000B0F90C00A84211DC04EB840000EBC400BE
:1044500001EB4000B0F90E00A84207DD05205F49DE
:1044600008700521204603F033FB6DE704EB840060
:1044700000EBC400584901EB4000B0F90E00A8421F
:1044800011DC04EB840000EBC40001EB4000B0F948
:104490001000A84207DD062050490870062120467A
:1044A00003F016FB50E704EB840000EBC4004A491C
:1044B00001EB4000B0F91000A84211DC04EB8400CD
:1044C00000EBC40001EB4000B0F91200A84207DD88
:1044D0000720424908700721204603F0F9FA33E724
:1044E00004EB840000EBC4003B4901EB4000B0F951
:1044F0001200A84211DC04EB840000EBC40001EBC5
:104500004000B0F91400A84207DD082033490870C4
:104510000821204603F0DCFA16E704EB840000EBE8
:10452000C4002D4901EB4000B0F91400A84211DC91
:1045300004EB840000EBC40001EB4000B0F916006E
:10454000A84207DD0920254908700921204603F00B
:10455000BFFAF9E604EB840000EBC4001E4901EB4E
:104560004000B0F91600A84211DC04EB840000EB17
:10457000C40001EB4000B0F91800A84207DD0A2092
:10458000164908700A21204603F0A2FADCE604EB83
:10459000840000EBC400104901EB4000B0F91800A2
:1045A000A84202DCB5F5B46F0ADB04EB840000EB33
:1045B000C400094901EB4000B0F90200A84207DD40
:1045C0000B20064908700B21204603F081FABBE658
:1045D0000020B9E6180500201A0100206C0F002009
:1045E0000146302905DB392903DCA1F13000C0B2D6
:1045F0007047412905DB5A2903DCA1F13700C0B21D
:10460000F6E7612905DB7A2903DCA1F15700C0B286
:10461000EEE70020ECE7000010B502460020012381
:104620009340034C2488234003B1084610BD00008A
:10463000A20E002010B5044669480078082802DC64
:104640006748007810B9012065490870644800780F
:1046500009306449087062480078401E6249087059
:104660006248097800EB011061490860207E617E94
:104670000844C0EBC000616801EB40004068584945
:10468000884207D15B480078012867D1002059494A
:10469000087063E0207E617E0844C0EBC000616862
:1046A00001EB40004168544800680830814222D143
:1046B0004FF4FA72C82150480068083007F0C8FD6E
:1046C0004C480078012849D14C4908704A48006894
:1046D00000894B49444A127821F822000846424A90
:1046E000127800EB82014748006814F035FE002084
:1046F0004049087032E0207E617E0844C0EBC00073
:10470000616801EB400041683B4800680A30814223
:1047100024D14FF44872C821374800680A3007F0A6
:1047200097FD34480078012818D1022033490870D9
:1047300031480068418932482B4A127800EB8200E8
:1047400041802F48284A127800EB8200811C2D48B6
:10475000006814F001FE002026490870207C032820
:104760003CD0234800680078234909680870204835
:10477000006840782049096848701D4800688088B2
:104780001D49096848801A480068C0881A490968A4
:10479000888017480068008917490968C88014484C
:1047A0000068408914490968A1F8110010480068A0
:1047B00080891149096808810D480068C0890E493F
:1047C00009684881104800880B490968A1F80D0064
:1047D0000E48008808490968A1F80F0010BD0000C4
:1047E0008F0600204F0E0020500E00205C2300207A
:1047F000600600206C050020580600204E0E0020A8
:10480000F8020020380500209E0F00209C0F002099
:104810002DE9F05F83463248007832490968087014
:1048200031480078012805D1304800782D490968C1
:10483000487006E02C48007818B90020294909681A
:1048400048702B4800782749096888702948007803
:1048500024490968C8702848007822490968087105
:1048600020480068441D25490968488927F038FB1D
:104870000646234927F0EAF960602248008827F0BD
:104880002FFB81461D490968888927F029FB82464C
:104890001D4927F06DFB80461C4927F0D7F90746D4
:1048A000494627F065FB0646616827F0CFF9A0600E
:1048B0000C48006800F10D051549A06827F024FB9D
:1048C00008D20F49A06827F053FB064627F0D0FA1C
:1048D000288002E04FF461502880BDE8F09F00007E
:1048E00064030020580600201C03002076030020EB
:1048F0001D0300205E0000207703002068030020D5
:1049000000002041B80000200000704200401C461A
:104910000000B44430B5034600221F4C2468A4783C
:104920002CB91D4C2468E4781B4D2D68AC701A4CD2
:104930002468A478184D2D68ED78AC4203DD01247D
:10494000154D2D68AC70002100200DE0134C245C47
:10495000002C07DD4C1CE1B20F4C2468A4788C427B
:1049600000D103E0441CE0B25E28EFDB00BF5E280C
:1049700000D130BD0A4C246834F81040064D2D6833
:10498000AC80074CE46954F82040034D2D68C5F80D
:10499000064000BFEDE7000058060020088A00200E
:1049A000E017002010B50446002305E0591CC8B2EA
:1049B0000CF046FB581CC3B2A342F7DB10BD00004D
:1049C0002DE9F0418AB006460F4690461D46BDF8D7
:1049D000240066F30400ADF82400BDF8240020F0A4
:1049E0002000ADF82400BDF8240067F38B10ADF86B
:1049F0002400BDF8240068F30F30ADF82400A8B2FD
:104A0000ADF82600002409E04548006850F824006D
:104A10000999884200D105E0601CC4B24148007881
:104A2000A042F1DC00BF3F480078A04202D10AB0AA
:104A3000BDE8F0810AE03A480168601C51F82000A6
:104A40003749096841F82400601CC4B23548007831
:104A5000A042F0DC33488078401E32498870084616
:104A60000078401E08700846807848700020089042
:104A7000BDF8240020F020002030ADF824000020F4
:104A8000059006900790284903C9CDE905010998CA
:104A900080B2ADF81A000795244AD2E90010926856
:104AA000CDE90302029101204FF4FA6302AAC10288
:104AB00000901F48006813F09FFA0890BDF820008E
:104AC00000EB4000800000F6040081B20C2305AA30
:104AD0001748006814F05EFCBDF82000401C80B24E
:104AE0000890BDF82000B0F5FA6F01DB00200890B7
:104AF000022308AA40F602010D48006814F04AFC9F
:104B00000848807850B90B48007820F02000094907
:104B100008700846007840F00800087000BF86E77B
:104B20008C030020C50E002018050020A4C4020834
:104B300038050020110F002010B503460A46104624
:104B4000FFF725FB04461846FFF721FB44EA001057
:104B5000C0B210BD10B502460B460020002104E093
:104B6000545C0444A0B24C1CA1B29942F8DBC1438E
:104B7000491C88B210BD00001A4909680978042947
:104B800004DC184909680978012903D10121154A73
:104B900012681170134909680978491E01EB8101F7
:104BA000114A32F821100F4A126851800D490968E4
:104BB0000978491E01EB81010B4A02EB810149880A
:104BC000084A12689180074909680978491E01EB73
:104BD0008101054A02EB81018968024A1268C2F824
:104BE0000610704758060020988A00202DE9F04FE3
:104BF000A3B0F748007810B923B0BDE8F08F0024C7
:104C0000B8E001250026F3480068408A05FA04F15F
:104C1000084000B10126F04830F81400C0F3C1107C
:104C2000022834D105FA04F0EC490988084068B339
:104C3000E94B13F8143003F07F03E94FFA5CE64BBD
:104C400033F81430C3F34221E34B13F8143003F06C
:104C50007F0303F114000023FFF7B2FEDE4810F8D3
:104C6000140000F07F00DF49095C01208840DE4A23
:104C7000D2E9003223EA00000021DB4A03C205FA30
:104C800004F0D64909888143D448018070E0D248B5
:104C900030F81400C0F3C110B04234D105FA04F06A
:104CA000CE4909880840002861D1CB4B13F8143055
:104CB00003F07F03CA4FFA5CC74B33F81430C3F3D9
:104CC0004221C54B13F8143003F07F0303F11400A5
:104CD000002311F0C9FAC04810F8140000F07F005A
:104CE000C049095C01208840BF4AD2E9003218431C
:104CF0001146BD4A03C205FA04F0B84909880843C1
:104D0000B649088033E005FA04F0B4490988084040
:104D100068B3B14B13F8143003F07F03B04FFA5C63
:104D2000AD4B33F81430C3F34221AB4B13F81430BE
:104D300003F07F0303F114000023FFF741FEA648B0
:104D400010F8140000F07F00A649095C012088409B
:104D5000A54AD2E9003223EA00000021A24A03C298
:104D600005FA04F09D49098881439C48018000BFF1
:104D7000601CC4B20C2CFFF644AF00209B490870A5
:104D80009B48006800889B49098888421ADD9A4838
:104D9000006800680121084028B900230222194652
:104DA000012011F061FA012293480068D0E9001057
:104DB00062F30001904A1268C2E9001002208B4998
:104DC00008701EE08A48006801888A4800880A380E
:104DD000814216DA884800680068012108400128ED
:104DE00004D1002302221946FFF7EAFD002282487F
:104DF0000068D0E9001062F300017F4A1268C2E93E
:104E0000001000207D49087048708870C8707C4888
:104E1000006800887B49098888421ADD7648006866
:104E20000078C0F3401028B900230222194603205D
:104E300011F01AFA012270480068D0E9001062F3FC
:104E400045116D4A1268C2E9001002206B490870D2
:104E50001DE06B48006801886A480088C8388142B4
:104E600015DA654800680078C0F34010012805D1C4
:104E70000023022219460320FFF7A2FD00225E480C
:104E8000016803C962F345105B4A126803C25C48BB
:104E9000006880885B49098888421ADD56480068A6
:104EA0000078C0F3C01028B900230222194605205B
:104EB00011F0DAF9012250480068D0E9001062F3DD
:104EC000C7114D4A1268C2E9001002204B49887090
:104ED0001FE04B48006881884A480088C8388142F2
:104EE00017DA454800680078C0F3C010012805D1E2
:104EF0000023022219460520FFF762FD00223E48EA
:104F00000068D0E9001062F3C7113B4A1268C2E999
:104F100000103B48006840883A490988884218DDFB
:104F2000354800680078C0F3801028B900230222B9
:104F30001946042011F098F901222F48016803C98D
:104F400062F386102C4A126803C202202B49487073
:104F50001FE02B48006841882A480088C8388142F1
:104F600017DA254800680078C0F38010012805D1C1
:104F70000023022219460420FFF722FD00221E48CA
:104F80000068D0E9001062F386111B4A1268C2E97A
:104F900000101B480068808A1B490988884235DD5B
:104FA000154800680088C0F3C02028B900230222F9
:104FB0000121062011F058F901220F480068D0E9BC
:104FC000001062F3CB210C4A1268C2E9001033E0F2
:104FD000780300203805002000010020A20E0020E8
:104FE000E50E0020F10E002080030020D00E0020EE
:104FF00068030020CA000020A40E0020C80E002074
:1050000088030020C4000020C6000020FA48006881
:105010000088C0F3C020012805D10023022201210D
:105020000620FFF7CDFC0022F348016803C962F3B4
:10503000CB20F14A126803C2F0480068C08AF049E8
:105040000988884215DDEC4800680088C0F300300C
:1050500028B9002302221146062011F005F9012289
:10506000E548016803C962F30C30E34A126803C2E1
:1050700017E0E14800680088C0F30030012805D13E
:105080000023022211460620FFF79AFC0022DA488C
:105090000068D0E9001062F30C31D74A1268C2E907
:1050A0000010D6480068008BD5490988884217DD72
:1050B000D14800680088C0F3403028B9002302229C
:1050C0000321062011F0D0F80122CB480068D0E976
:1050D000001062F34D31C84A1268C2E9001017E0AF
:1050E000C54800680088C0F34030012805D100237E
:1050F000022203210620FFF763FC0022BE4800685D
:10510000D0E9001062F34D31BB4A1268C2E90010C9
:10511000BC48007800287DD1BB48007870B90120D8
:10512000B9490870E020B949C8710220B84908702F
:105130000023082219461A2011F096F8B548006895
:105140000088B549098888421ADAAB4800680078B7
:10515000C0F3400028B900230A221946132011F099
:1051600083F80122A4480068D0E9001062F34101ED
:10517000A14A1268C2E900100120A84908701FE086
:10518000A44800680188A44800880A30814217DDDD
:10519000994800680078C0F34000012805D1002339
:1051A0000A2219461320FFF70BFC002292480068E0
:1051B000D0E9001062F341018F4A1268C2E9001081
:1051C0008D4800680078C0F38000012804D10023D6
:1051D0000A221946FFF7F4FB002287480068D0E94D
:1051E000001062F38201844A1268C2E9001082480A
:1051F00000680088C0F3C030012805D100230122D7
:1052000019460920FFF7DCFB00227B480068D0E943
:10521000001000E0A6E062F3CF31774A1268C2E9DD
:105220000010754800680088C0F38030012805D15F
:105230000023022219460920FFF7C2FB00226E4814
:10524000016803C962F38E306B4A126803C26A4870
:1052500000680088C0F30020012805D10023012246
:1052600019460320FFF7ACFB00226348016803C91D
:1052700062F30820604A126803C25F480068008831
:10528000C0F34020012805D1002301221946042043
:10529000FFF796FB00225848016803C962F34920D2
:1052A000554A126803C2544800680088C0F3802041
:1052B000012805D10023012219460520FFF780FBB4
:1052C00000224D48016803C962F38A204A4A1268E5
:1052D00003C2494800680068C0F30040012805D1B6
:1052E00000231A4619460A20FFF76AFB00224248AB
:1052F0000068D0E9001062F310413F4A1268C2E929
:1053000000103D4800680068C0F34040012805D106
:1053100000231A4619460B20FFF752FB002236489D
:105320000068D0E9001062F35141334A1268C2E9C3
:105330000010314800680068C0F38040012805D1A2
:1053400000231A4619460C20FFF73AFB00222A4890
:105350000068D0E9001062F39241274A1268C2E95E
:105360000010F0E22848007801280DD100202649DD
:1053700008700023082219461A20FFF721FB00209D
:105380002249C871224908701B4800680078C0F3A0
:105390004000012805D100230A2219461320FFF7F7
:1053A0000FFB00221448016803C962F34100124A4E
:1053B000126803C2174800680088194909888842A2
:1053C00030DA0D4800680078C0F3800028B9002367
:1053D0000A221946012010F047FF01220648006802
:1053E000D0E9001062F38201034A1268C2E900109A
:1053F00001200A49087032E0A40E00208803002032
:10540000C600002075030020D10E0020C80E002029
:10541000D20E002068030020C8000020D00E00201B
:1054200052020020FE4800680188FE4800880A30C9
:10543000814214DDFC4800680078C0F38000012838
:1054400004D100230A221946FFF7BAFA0022F648CF
:10545000016803C962F38200F34A126803C2F34889
:105460000068008841F2883188421EDAF0480078EE
:1054700000F00400042818D1EB4800680068C0F36D
:10548000004028B900231A4619460A2010F0ECFE05
:105490000122E548016803C962F31040E24A12683C
:1054A00003C20320E349087015E0DF480068006884
:1054B000C0F30040012805D100231A4619460A20EE
:1054C000FFF77EFA0022D848016803C962F3104052
:1054D000D54A126803C2D54800680088D6490988B1
:1054E000884226DAD04800680068C0F3004000BB5C
:1054F000CF48007800F0040004281AD1CA48006898
:105500000088C0F3002028B9002301221946032097
:1055100010F0AAFE0122C4480068D0E9001062F32E
:105520000821C14A1268C2E900100120C14908706F
:105530001FE0BE4800680188BF480088C83081422B
:1055400017DDB94800680088C0F30020012805D1A4
:105550000023012219460320FFF732FA0022B24845
:105560000068D0E9001062F30821AF4A1268C2E96E
:105570000010AE480068408841F2883188421EDA47
:10558000AB48007800F00200022818D1A648006855
:105590000068C0F3404028B900231A4619460B2082
:1055A00010F062FE0122A048016803C962F3514075
:1055B0009D4A126803C203209E49487015E09A482C
:1055C00000680068C0F34040012805D100231A4656
:1055D00019460B20FFF7F4F900229348016803C92C
:1055E00062F35140904A126803C2904800684088B4
:1055F00091490988884226DA8B4800680068C0F320
:10560000404000BB8A48007800F0020002281AD10E
:10561000854800680088C0F3402028B90023012293
:105620001946042010F020FE01227F480068D0E9CE
:10563000001062F349217C4A1268C2E9001001207F
:105640007C4948701FE07948006841887A480088A2
:10565000C830814217DD744800680088C0F34020DC
:10566000012805D10023012219460420FFF7A8F9DB
:1056700000226D480068D0E9001062F349216A4AAF
:105680001268C2E9001069480068808841F28831D8
:1056900088421DDA6648007800F00100C0B1624817
:1056A00000680068C0F3804028B900231A461946F4
:1056B0000C2010F0D9FD01225B48016803C962F398
:1056C0009240594A126803C203205A49887015E073
:1056D000554800680068C0F38040012805D10023C8
:1056E0001A4619460C20FFF76BF900224E48016854
:1056F00003C962F392404C4A126803C24B480068E7
:1057000080884D490988884223DA47480068006844
:10571000C0F38040E8B94648007800F00100C0B10D
:10572000414800680088C0F3802028B90023012286
:105730001946052010F098FD01223B48016803C975
:1057400062F38A20384A126803C2012039498870FE
:105750001FE036480068818837480088C830814299
:1057600017DD314800680088C0F38020012805D18A
:105770000023012219460520FFF722F900222A48BA
:105780000068D0E9001062F38A21274A1268C2E952
:10579000001000202749C8702548007800F0070055
:1057A000E0B3264800880A2190FBF1F01F49096800
:1057B000C988884218DA02201E49C8701A48006851
:1057C0000088C0F3803028B900230222194609203E
:1057D00010F04AFD01221448016803C962F38E30BB
:1057E000114A126803C235E0144800880A2190FB70
:1057F000F1F0401F0D490968C98888422ADD0A482E
:1058000000680088C0F38030012805D100230222FF
:1058100019460920FFF7D4F8002211E063E00000E8
:105820006803002052020020A40E002088030020FC
:105830002A030020C80E0020C2000020CC00002057
:10584000FB480068D0E9001062F38E31F84A126814
:10585000C2E90010F74800880A2190FBF1F0F649F0
:105860000968C98888421ADD0120F449C870F048E7
:1058700000680088C0F3C03028B90023012219460F
:10588000092010F0F1FC0122E9480068D0E900107D
:1058900062F3CF31E64A1268C2E9001053E0E548EE
:1058A00000880A2190FBF1F0401DE3490968C9888E
:1058B000884248DCDE4800680088C0F3C030012818
:1058C00005D10023012219460920FFF779F80022AB
:1058D000D7480068D0E9001062F3CF31D44A12688B
:1058E000C2E900102FE0D24800680088C0F3803081
:1058F000012805D10023022219460920FFF760F88C
:105900000022CB480068D0E9001062F38E31C84A0B
:105910001268C2E90010C64800680088C0F3C030B1
:10592000012805D10023012219460920FFF748F874
:105930000022BF480068D0E9001062F3CF31BC4AB2
:105940001268C2E900100521BD48006820F0B2FAD3
:1059500007460921BA48006820F0ACFA064601243F
:10596000B848007888BB00257FE0705D032190FB7C
:10597000F1F201FB1200012806D1B348007800F0D3
:10598000010008B164006EE0705D032190FBF1F24C
:1059900001FB1200022807D1AB48007800F002009A
:1059A000022801D164005EE0705D032190FBF1F2FA
:1059B00001FB120050B9705D40B1A348007800F0BF
:1059C0000400042802D164004DE053E0785D00F04B
:1059D000010080B19D480068204030B9681CC1B208
:1059E000002306220F2010F03FFC98480068204357
:1059F000964908600FE095480068204030B1681C67
:105A0000C1B2002306220F20FEF7DAFF8F4800689C
:105A1000A0438E4908608E4800684069204080B9E4
:105A20008C480068204030B9681CC1B200230722AE
:105A30000F2010F019FC8748006820438549086052
:105A40000FE084480068204030B1681CC1B20023D8
:105A500007220F20FEF7B4FF7E480068A0437D496F
:105A60000860640000BF681CC5B27B488078A8420B
:105A70003FF77BAF79480068B0F92600784909887C
:105A800088421ADD6A4800680068C0F3406040B987
:105A9000002302221946102010F0E6FB80207149F5
:105AA0000870012262480068D0E9001062F3596171
:105AB0005F4A1268C2E9001022E068480068B0F945
:105AC000261067480088A0F59670814218DA584879
:105AD00000680068C0F34060012808D1002302225A
:105AE00019461020FEF76CFF00205E490870002266
:105AF0004F48016803C962F359604D4A126803C2F6
:105B000056480068B0F926005749098809B288420A
:105B10001FDA52480068B0F926005449884218DD5F
:105B2000434800680068C0F3006040B900230122C8
:105B30001946102010F098FB80204A490870012275
:105B40003B48016803C962F31860394A126803C20E
:105B500023E042480068B0F926104348008800B2AC
:105B600000F59670814218DD314800680068C0F386
:105B70000060012808D10023012219461020FEF7F9
:105B80001FFF00203749087000222948016803C917
:105B900062F31860264A126803C230480068B0F900
:105BA0002B0010F10F0F17DA214800680078C0F3BE
:105BB000001028B900231A461946132010F054FB90
:105BC00001221B480068D0E9001062F30411184A52
:105BD0001268C2E900101BE020480068B0F92B00F1
:105BE000002815DB124800680078C0F30010012877
:105BF00005D100231A4619461320FEF7E1FE0022C4
:105C00000B48016803C962F30410094A126803C211
:105C10001748007880BB1748007870BB0023062225
:105C20001946132010F020FB01201249087032E0C1
:105C3000A40E0020CE00002088030020C80E002003
:105C40006C030020D10E00207E030020D80E00201F
:105C5000380E0020E00E0020240E002068030020F3
:105C6000D0000020D30E0020D2000020ACF4FFFFB3
:105C700058000020D50E002000E00CE0FE4800781F
:105C8000012808D10023062219461320FEF798FEAA
:105C90000020F94908700021029101910020F74984
:105CA0000870EAE3F548007840286FDAF448F349D1
:105CB0000978405C00286ADDF248C068EF4909783D
:105CC000405C00F00100D0B3EC48027801240025CC
:105CD00020462946FCF734FBEB4B0CCB1040194017
:105CE00000235840594008436ED1E448007800EB47
:105CF0004000E64901EBC000C07D7B2808D0DF48AA
:105D000003785B1C05220E20029910F0ADFA07E023
:105D1000DA4803785B1C05221220029910F0A4FADD
:105D2000D64802780126002730463946FCF708FBA2
:105D3000D54B0CCB10431943D34A03C244E0FFE7D1
:105D4000CE4802784FF001084FF00009404649461E
:105D5000FCF7F6FACC4B0CCB10401940002358400E
:105D60005940084330D0C548007800EB4000C7498F
:105D700001EBC000C07D7B280AD0C04803785B1CC3
:105D800005220E200299FEF71BFE09E0EFE1B6E1C5
:105D9000BA4803785B1C052212200299FEF710FE18
:105DA000B64802784FF0010A4FF0000B50465946B2
:105DB000FCF7C6FA0A46C143D043B34B0CCB1140A3
:105DC0001840B14AC2E90010AE48C068AB49097832
:105DD000405C00F0400040283ED1A84802780121F4
:105DE0000020CDE9030108460399FCF7A9FAA84B66
:105DF0000CCB10401940002358405940084370D143
:105E00009E48007800EB4000A04901EBC000C07D37
:105E10007B2808D0994803785B1C04220E20029945
:105E200010F022FA07E0954803785B1C04221D203D
:105E3000029910F019FA9148027801210020CDE969
:105E4000050108460599FCF77BFA914B0CCB1043F2
:105E500019438F4A03C244E0884802780121002098
:105E6000CDE9070108460799FCF76AFA884B0CCB85
:105E700010401940002358405940084331D07F4812
:105E8000007800EB4000814901EBC000C07D7B2819
:105E900008D07A4803785B1C04220E200299FEF792
:105EA0008FFD07E0754803785B1C04221D200299D2
:105EB000FEF786FD7148027801210020CDE9090135
:105EC00008460999FCF73CFA0A46C143D043704B97
:105ED000D3E9002C1346194000EA0C006C4AC2E9D1
:105EE00000106848C06865490978405C00F0080007
:105EF00008282BD16148027801210020CDE90B014F
:105F000008460B99FCF71CFA624B0CCB1040194069
:105F1000002358405940084348D1584803785B1C37
:105F200009220E20029910F09FF9544803780122AB
:105F30000021CDE90D121A460E98FCF701FA554BD7
:105F40000CCB10431943534A03C22FE04B4802784D
:105F500001210020CDE90F0108460F99FCF7F0F967
:105F60004C4B0CCB1040194000235840594008437B
:105F70001CD0424803785B1C09220E200299FEF7D0
:105F80001FFD3E48027801210020CDE9110108469D
:105F90001199FCF7D5F90A46C143D0433D4AD2E9ED
:105FA0000032194010403B4AC2E900103548C06831
:105FB00032490978405C00F0800080282BD12F48BE
:105FC000027801210020CDE9130108461399FCF75E
:105FD000B7F9314B0CCB10401940002358405940C1
:105FE000084348D1254803785B1C06220E200299FD
:105FF00010F03AF92148027801210020CDE915017D
:1060000008461599FCF79CF9234B0CCB1043194318
:10601000214A03C22FE01948027801210020CDE96E
:10602000170108461799FCF78BF91B4B0CCB104056
:10603000194000235840594008431CD00F480378AA
:106040005B1C06220E200299FEF7BAFC0B48027870
:1060500001210020CDE9190108461999FCF770F9D2
:106060000A46C143D0430C4AD2E9003219401040DD
:10607000094AC2E9001011E0D50E0020A00E002050
:10608000088A0020E0170020580E002078800020A9
:10609000600E0020680E0020700E0020F748F849BE
:1060A0000978405C01282BD1F548027801210020B5
:1060B000CDE91B0108461B99FCF742F9F14B0CCBCB
:1060C00010401940002358405940084317D1EC486C
:1060D000027801210020CDE91D0108461D99FCF739
:1060E0002FF9E84B0CCB10431943E64A03C2E448AE
:1060F00003785B1C07220E20029910F0B5F8F4E13A
:10610000DE48DF490978405C0128F8DDDC48027888
:1061100001210020CDE91F0108461F99FCF710F965
:10612000D84B0CCB1040194000235840594008432D
:10613000E5D0D348027801210020CDE921010846AD
:106140002199FCF7FDF80A46C143D043CD4AD2E974
:10615000003219401040CB4AC2E90010C848037809
:106160005B1C07220E200299FEF72AFCBDE1C44801
:1061700000784028C3DBC148C1490978405C002849
:10618000BDDDC148C068BE490978405C00F001002F
:1061900080B3BB4800784038012101FA00F0BB49C8
:1061A0000968084028BBB648007800EB4000B849B1
:1061B00001EBC000C07D7B2808D0B14803785B1C90
:1061C00005220E20029910F04FF807E0AC48037842
:1061D0005B1C05221220029910F046F8A8480078AE
:1061E0004038012101FA00F0A84909680843A7498D
:1061F00008602FE0FFE7A24800784038012101FA4B
:1062000000F0A2490968084020B39D48007800EBDF
:1062100040009F4901EBC000C07D7B2808D0984812
:1062200003785B1C05220E200299FEF7C9FB07E0EC
:10623000934803785B1C052212200299FEF7C0FBED
:106240008F48007840380121814090480068884399
:106250008E4908608C48C06889490978405C00F024
:106260004000402830D1864800784038012101FAAA
:1062700000F088490968084028BB8148007800EB95
:106280004000834901EBC000C07D7B2808D07C48DA
:1062900003785B1C04220E2002990FF0E5FF07E053
:1062A000774803785B1C04221D2002990FF0DCFF65
:1062B000734800784038012101FA00F075490968F7
:1062C0000843744908602EE06D4800784038012189
:1062D00001FA00F06F490968084020B36848007867
:1062E00000EB40006A4901EBC000C07D7B2808D06C
:1062F000634803785B1C04220E200299FEF760FBC2
:1063000007E05F4803785B1C04221D200299FEF71A
:1063100057FB5B4800784038012181405D480068A8
:1063200088435C4908605848C06855490978405C12
:1063300000F0080008281DD151480078403801219C
:1063400001FA00F054490968084078BB4C480378CA
:106350005B1C09220E2002990FF086FF4848007846
:106360004038012101FA00F04B49096808434A49C5
:1063700008601BE0424800784038012101FA00F033
:1063800045490968084088B13D4803785B1C0922EB
:106390000E200299FEF714FB39480078403801219D
:1063A00081403D48006888433B4908603648C068E2
:1063B00033490978405C00F0800080281DD13048C6
:1063C00000784038012101FA00F03449096808409A
:1063D00078BB2B4803785B1C06220E2002990FF035
:1063E00043FF274800784038012101FA00F02B498B
:1063F00009680843294908601BE0214800784038B3
:10640000012101FA00F025490968084088B11C48BB
:1064100003785B1C06220E200299FEF7D1FA184879
:1064200000784038012181401C48006888431B499E
:106430000860124812490978405C012833D110489D
:1064400000784038012101FA00F015490968084038
:1064500040BB0B4800784038012101FA00F0104998
:10646000096808430E490860054803785B1C072249
:106470000E2002990FF0F8FE37E03BE0088A00207A
:10648000A00E0020780E0020E0170020800E0020D3
:1064900078800020840E0020880E00208C0E0020C2
:1064A000900E002021E0C248C2490978405C0128D2
:1064B0001BDDC04800784038012101FA00F0BE49D8
:1064C0000968084088B1BB48007840380121814004
:1064D000B94800688843B8490860B64803785B1C2F
:1064E00007220E200299FEF76BFAB2480078401C92
:1064F000B0490870AF4800785E28FFF6D3AB00249F
:1065000098E004EB8400AD4901EB8000C07BA8B1AA
:10651000AB48005D00F0010048B9601CC1B2002327
:10652000042207200FF0A0FE0320A6490870A4480B
:10653000005D40F00100A249085514E0A048005D4C
:1065400000F0010048B1601CC1B200230422072002
:10655000FEF736FA00209B4908709948005D00F06C
:10656000FE009749085504EB8400944901EB800034
:10657000807B90B19248005D00F0800030B9601CD3
:10658000C1B200230B2207200FF06EFE8C48005D85
:1065900040F080008A49085511E08948005D00F00C
:1065A000800030B1601CC1B200230B220720FEF72F
:1065B00007FA8348005D00F07F008149085504EB2D
:1065C00084007E4901EB8000407C01281ED17C487C
:1065D000005D00F0400090B9601CC1B200230722AA
:1065E00010460FF041FE002004EB8401734A02EBD9
:1065F0008101488004EB840102EB810188807048AE
:10660000005D40F040006E49085511E06C48005DA7
:1066100000F0400030B1601CC1B2002307221046D8
:10662000FEF7CEF96648005D00F0BF0064490855EA
:10663000601CC4B2042CFFF664AF03F0ADFC6248EA
:10664000D0E90010614B1940002041404040014317
:1066500003D001205E49087002E000205C49087008
:106660005948D0E90010172319400020414040400C
:10667000014303D001205649487002E000205449EC
:1066800048705448006854490968084053490968EB
:10669000514A12681140084318B101204C498870D2
:1066A00002E000204A4988704748D0E900104FF0C6
:1066B00060431940002041404040014303D0012085
:1066C0004349C87002E000204149C8703E4903C9EF
:1066D0004FF078631840002148404940084303D0F8
:1066E00001203B49087102E000203949087138480F
:1066F000007837494978084435498978084434494D
:10670000C9780844324909790844002803DD01208A
:106710002F49487102E000202D4948713048007827
:1067200018B101202A49887202E0002028498872A5
:106730002548D0E90010082319400020414040407E
:10674000014303D001202249C87202E00020204901
:10675000C872002427E0234830F81400000B0028FA
:1067600018DD204830F814000121C1EB1030184921
:10677000085C38B1C4F10D00C1B21B48006812F0CA
:1067800015F90EE0C4F10D00C1B21748006812F00F
:1067900005F906E0C4F10D00C1B21348006812F01B
:1067A000FDF8601CC4B2092CD5DB00BFFEF724BA8B
:1067B000088A0020A00E0020900E0020988A002059
:1067C000940E0020980E002080030020E0FF7F0040
:1067D00044240020D80E0020E0100020E00E00200D
:1067E000D60E002000010020380500202DE9F047DA
:1067F0000746884691460024A2460020A9F80000DA
:10680000B8F1000F1BD1012F01D0032F3AD1284836
:10681000FBF702FFC6B206F11600C5B2254C2946A9
:106820002046FBF7A3FF2448016821608088A080F0
:1068300032461F4904F11300FBF719FF22E01F48FD
:10684000FBF7EAFEC6B24046FBF7E6FE00F0FF0AA1
:1068500006F113005044C01CC5B2164C2946204610
:10686000FBF784FF1448016821608088A0803246CD
:10687000124904F11300FBF7FAFE414604F113003C
:10688000FBF7E9FE0120E0802772A4F8095006F129
:10689000130050440219E91E2046FDF793FC0D2118
:1068A000681E2152A9F800502046BDE8F08700007C
:1068B000C7C40208781A0020BCC40208D6C4020863
:1068C00025E0FDF7AFF91248026812480168124846
:1068D000006812F0B7FE1148006814F00EFE104870
:1068E000007848B90D48006813F032F90D48007877
:1068F00010B901200B4908700848006815F0BAFE6D
:106900000648006802F0FCF8C82024F04FF8D8E7E9
:106910006C030020F0100020380E002070050020CD
:106920000B1100200C11002010B50446207E617E62
:106930000844C0EBC000616801EB400081689F48DB
:1069400000680930814210D19D48007801280CD19F
:106950009A480068407A9B4908709B48006812F08A
:10696000FBFC002096490870FAE0207E617E084416
:10697000C0EBC000616801EB400040688F490968C6
:10698000884219D1B92201218C48006807F0F4FA35
:106990008B4800780128E7D18C4800788C4948431F
:1069A0008C490968086389498748006812F0D4FC5B
:1069B000002083490870D3E0207E617E0844C0EB4C
:1069C000C000616801EB400041687C480068C01D60
:1069D000814217D11222012178480068C01D07F0BA
:1069E000CBFA774800780128BED174480068C07996
:1069F000794908707448006812F0AEFC00207049B4
:106A00000870ADE0207E617E0844C0EBC000616884
:106A100001EB400080687149884213D16422002153
:106A200066480068C01C05F013FC65480078012822
:106A30009AD16A496448006812F08EFC00206049CF
:106A400008708DE0207E617E0844C0EBC000616864
:106A500001EB400080686249884213D16422002122
:106A600056480068401D05F0F3FB554800780128A2
:106A700076D15B495448006812F06EFC0020504902
:106A800008706DE0207E617E0844C0EBC000616844
:106A900001EB400080685349884217D1B42200219D
:106AA00046480068401C07F067FA4548007801280E
:106AB00056D14248006840784A49088042480068F8
:106AC00012F04AFC00203E49087049E0207E617EB9
:106AD0000844C0EBC000616801EB40008068424997
:106AE000884218D14FF416720121344800680C30E6
:106AF00005F0AEFB32480078012831D12F480068FC
:106B00008089394908803048006812F025FC00204F
:106B10002B49087024E0207E617E0844C0EBC00051
:106B2000616801EB40004168244800680A308142F6
:106B300016D163220021214800680A3007F01CFAB0
:106B40001F480078012808D11C480068807A27492E
:106B500008701D48006812F0FFFB002018490870FB
:106B6000207C032829D01948007814490968087046
:106B70001C4800781149096848701B4800780F4983
:106B800009688870154800880C490968A1F8030055
:106B90001348008809490968A1F805000E480078E3
:106BA00006490968C87107480078044909684872AD
:106BB0000E48007801490968887210BD5806002007
:106BC0006C05002018030020380500202703002052
:106BD00080510100640000202C030020BA00002036
:106BE000BC000020BE000020C00000205003002098
:106BF00010B50446207E617E0844C0EBC000616889
:106C000001EB400081681E4800680E3081420FD1C0
:106C10001C48007801280BD100201A490870012077
:106C2000194908701949164800680E3003F0BAFC7B
:106C3000207E617E0844C0EBC000616801EB40002B
:106C400041680F4800681E30814218D10D48007815
:106C5000012814D100200B49087002200A4908704D
:106C600007480068807F002809DD05480068807FAC
:106C7000192804DA02480068807F0549087010BDB1
:106C8000580600206C050020510E0020B3030020A0
:106C9000EE1000202DE9F0410446FE48006800781F
:106CA000052803DD0120FB4909680870F9480068E0
:106CB00040780C2803DD0120F64909684870F54842
:106CC0000068007818B90520F24909680870F14891
:106CD0000068407818B90C20EE4909684870ED4802
:106CE00000680078EC490870EA4800684078EB4991
:106CF0000870207E617E0844C0EBC000616801EB33
:106D000040004168E3480068801C814244D1E1486A
:106D1000006880780C2803DD0C20DE490968887043
:106D2000DC480068807818B90120DA490968887061
:106D3000D8480068C0781F2803DD1F20D54909689E
:106D4000C870D4480068C07818B90120D1490968D2
:106D5000C870D348007801281ED10020D04908709F
:106D6000CC4B1B68DA78CB4B1B689978C94B1B68F6
:106D70001B785B1ED8B201F033FBC6480068007870
:106D8000401E00EB800202EBC000C64A02EB40014D
:106D9000C548006812F0E0FA207E617E0844C0EB2E
:106DA000C000616801EB40004168BA480068801D7E
:106DB00081425CD1B74800688079182808DDB54861
:106DC00000688079802803DA1720B2490968887141
:106DD000B04800688079802803DD0020AD4909684B
:106DE0008871AC480068C0793B2808DDA948006874
:106DF0008079802803DA3B20A6490968C871A54834
:106E00000068C079802803DD0020A2490968C871A4
:106E1000A04D2D68EB799F4D2D68AA799D4D2D6869
:106E20006D786D1EE9B29B4D2D682D786D1EE8B210
:106E300003F076FA9A480078012818D10020984982
:106E40000870944800680078401E00EB800202EB56
:106E5000C000944A02EB4000801C8E4A12685278AF
:106E6000521E00EB42019048006812F075FA207E35
:106E7000617E0844C0EBC000616801EB400081689E
:106E8000844800680A3081422AD185480078012868
:106E900026D10020824908707E4B1B689A7A7D4B70
:106EA0001B685B785B1ED9B27A4B1B681B785B1E34
:106EB000D8B201F0E3FB774800684078451E05EB47
:106EC000D5704210734800680078401E00EB400007
:106ED00002EB4000754A81187348006812F03CFAD2
:106EE000207E617E0844C0EBC000616801EB400079
:106EF0008168684800680B3081425AD16848007840
:106F0000012856D100206649087062480068C07A9E
:106F100088B94FF0FF315F4800680078401E00EBF1
:106F20004000634A02EBC0025A4800684078401EA5
:106F300022F810102AE057480068C07A012810D1C2
:106F40000021544800680078401E00EB4000584A79
:106F500002EBC0024F4800684078401E22F8101033
:106F600014E04C480068C07A02280FD11421494827
:106F700000680078401E00EB40004D4A02EBC00262
:106F8000444800684078401E22F8101041480068CC
:106F90000078401E00EB4000454A02EBC0023D482D
:106FA00000684078401E02EB40013F48006812F044
:106FB000D3F9207E617E0844C0EBC000616801EB1C
:106FC00040004168334800680C30814233D1344876
:106FD000007801282FD10020314908702D48006821
:106FE000B0F90C00002825DD2A480068808901B22C
:106FF000284800680078401E00EB40002C4A02EB55
:10700000C002244800684078401E22F81010214831
:1070100000680078401E00EB4000254A02EBC002E9
:107020001C4800684078401E02EB40011E48006882
:1070300012F092F9B9E0207C032805D1207C0328C6
:10704000F8D1607E0028F5D1124800680578681EE6
:1070500000EB800101EBC000124931F8100087B24B
:1070600000220C480168891C384602F075F9052D8C
:1070700000D1002505EB850000EBC500094931F87A
:107080001070781E87B2002202480168091D384638
:1070900010E0000058060020400E0020410E0020A5
:1070A0006C0500201A010020380500202E03002066
:1070B0008002002002F050F9012807D00C203C4942
:1070C000096808711F203A49096848713848006802
:1070D0004578374800680078401E00EB800101EBDE
:1070E000C000344901EB4000801C691E30F81100DB
:1070F00087B200222E480168891D384600F002FD43
:107100000C2D00D100252A4800680078401E00EBB5
:10711000800101EBC000274901EB4000801C30F8E2
:107120001570781E87B20022214801680831384660
:1071300000F0E8FC1E4A12685278521ED1B21C4A76
:1071400012681278521ED0B200F0C2FC18490968C9
:107150008872174800680078401E00EB400016490E
:1071600001EBC001124800684078401E31F9106000
:10717000002E07DA00200E490968C8720C49096818
:10718000888111E03EB9012009490968C87208499F
:1071900009688E8108E0002E06DD02200449096896
:1071A000C872034909688E8100BFBDE8F081000004
:1071B000580600201A010020800200207CB50446F9
:1071C00049480078002874D1207C032828D04748FB
:1071D000808847490968088044480068C0F38350A4
:1071E00043490968488041480068C0F34440404929
:1071F000096888803D480068C0F304303C4909684C
:10720000C8803A480088C0F3851039490968088168
:107210003648007800F03F0035490968488161E050
:10722000207E617E0844C0EBC000616801EB400035
:1072300040682F490968884216D140F6320240F270
:10724000E5712B48006805F003F80C22012128485D
:107250000068801C04F0FCFF1F2201212448006804
:10726000001D04F0F5FF3DE0207E617E0844C0EB88
:10727000C000616801EB400041681D480068801D46
:1072800081422FD11722002119480068801D04F087
:10729000DFFF3B22002116480068083004F0D8FFC9
:1072A0003B220021124800680A3004F0D1FF19E0A7
:1072B000FFE70F480068807A0D490968097A0C4D8C
:1072C000CDE900102D68AB79094D2D682A79084D5C
:1072D0002D68A978064D2D682888FCF761FD0020EF
:1072E000014908707CBD00006C05002018050020D5
:1072F000580600202DE9F041804600BF00BF31480C
:1073000000688078012803DA06202E490968887011
:107310002C4800688078062803DD01202949096887
:1073200088702948806827490968897830F81100F1
:107330002449096888802448006A224909688978B4
:1073400050F821001F490968C1F806001D4800686F
:107350008078401E1D4951F820001A490968C1F87B
:107360000A00002425461848006A164909688978E9
:1073700050F82100642100FB01F60027012008E0FD
:107380001149096A51F820100C1945F10005411CFA
:10739000C8B20728F4DB00210846091BA8410ADA15
:1073A00022462B4630463946FAF7DDFF06460549A8
:1073B00009680E8003E00020024909680880BDE8E2
:1073C000F081000058060020E0170020188B0020F4
:1073D000204909680978012903DA04211D4A126845
:1073E00011701C4909680978042903DD0121194A33
:1073F00012681170174909680978491E164A1170F8
:10740000017C032924D01146097801EB8101134A3C
:1074100032F921100A2291FBF2F109B20D4A1268E9
:1074200051800D49097801EB81010C4A02EB810181
:107430004988084A126891800749097801EB81015F
:10744000064A02EB81018968024A1268C2F80610F6
:10745000704700005806002093060020988A0020FC
:1074600070B5564805785648007800287ED0554AB1
:107470001268C2F34441534A1268C2F3835001F0C8
:10748000E3FA84B25048B0F90000A0420CDC4E4848
:10749000B0F91A00A04207DD00204C490870FCF743
:1074A00029FF4649087058E04748B0F91A00A04241
:1074B0000CDC4548B0F93400A04207DD0120434907
:1074C0000870FCF717FF3D49087046E03E48B0F9E8
:1074D0003400A0420CDC3C48B0F94E00A04207DD6D
:1074E00002203A490870FCF705FF3449087034E07F
:1074F0003548B0F94E00A0420CDC3348B0F96800C2
:10750000A04207DD032031490870FCF7F3FE2B4948
:10751000087022E02C48B0F96800A04205DCB4F500
:10752000B77F09DBB4F5B77F06DD2748B0F9000067
:10753000A04209DD012C07DB042024490870FCF778
:10754000D9FE1E49087008E00520204908700C206B
:107550001F4908700020194908701C480078052848
:1075600013DA1B4800780C280FDA00E011E0174806
:10757000007800EB4000174901EBC000144909787E
:1075800030F811001449088002E0002012490880F8
:1075900002E00020094908700848007885420CD0B4
:1075A0000E48057001200E49087000200D49096839
:1075B00081F823000B490968C88070BD760300205C
:1075C0001C030020180500201A0100206B0F00206A
:1075D0006C0F002080020020680F00206D0F00203B
:1075E0006E0F0020640000202DE9F04705460F468D
:1075F00090460026EC1D0A20A049087060780128FA
:107600006CD105F11309484600F076F9401C10B919
:107610000020BDE8F0879A48006808B90020F8E724
:1076200098A197480068FBF7EBF838B902210020D1
:1076300001F00CFE95489649086019E095A1904824
:107640000068FBF7DDF818B99448914908600FE02D
:1076500093A18B480068FBF7D3F838B992488C495E
:1076600008600221002001F0F1FD01E00020D0E7D8
:107670008E48006808B90020CBE78D498B48006828
:10768000FBF7BEF8002801DC0020C2E7894800684B
:1076900008B90020BDE788A186480068FBF7B0F86C
:1076A000A8B9874880F8008040F2164085490880D4
:1076B0003A4600210120FFF799F80646002082494A
:1076C000087001208149088021F07EFC05E03A46DF
:1076D0007F490120FFF78AF80646CDE0607802284E
:1076E00003D1774800780028F7DC607803285CD164
:1076F00073480078002858DD05F213424FF480618A
:1077000005F11300FCF75EFD90BB20896F490988E5
:1077100088421FD105F113016C48008803F01CF862
:1077200001206C4908703A4600210320FFF75EF8FB
:107730000646002064490870A08864490988884288
:1077400002D116205F49088060480088401C5F49CC
:10775000088091E05C480078401C5B49087008464E
:1077600000780A2805DD00F08BF90020307083E0F6
:1077700006E03A4658490320FFF738F806467BE012
:1077800051480078401C50490870084600780A2883
:1077900004DD00F075F9002030706DE03A464F4985
:1077A0000120FFF723F8064666E0607804284CD1F4
:1077B00043480078002848DD44480088401EA188DE
:1077C000884259D141480088401E810205F11302C8
:1077D0002F480068FCF7F6FCB0BB21F069FB0020E5
:1077E000374908702A4800682849884211D145F66F
:1077F0005A21152020F016FEA188162020F012FE36
:107800000021012001F022FD01F00AFB0FF0DCF85D
:1078100032E01F480068244988422DD10088304951
:107820000880214808302F4908602F482F490860F8
:107830001D48C0881C4908442D49086000210120CA
:1078400001F004FD01F0ECFA16E06078052813D190
:107850001D480078401C1C490870084600780A281A
:1078600004DD00F00DF90020307005E03A462149B2
:107870000120FEF7BBFF06463046CAE6900F002007
:10788000780F0020436F64650000000000000808C6
:10789000840F002048544D4C0000000000500408A4
:1078A000466F6E7400000000000004087C0F00208A
:1078B000C3C40208800F00205570677261646500C0
:1078C000890F00208C0F00208E0F00208A0F0020CF
:1078D00029C502088F0F002011C50208EFC4020855
:1078E0001C000020200000205F030408240000206A
:1078F0002800002001C5020870B50546002417A124
:107900002846FAF74BFE044614B94FF0FF3070BD1D
:1079100014A12846FAF742FE044615A12046FAF7BC
:1079200037FE14A10020FAF733FE1449086011A1B4
:107930000020FAF72DFE0FA10020FAF729FE1049CA
:1079400008600CA10020FAF723FE0AA10020FAF734
:107950001FFE0C4908600020D9E70000483532437B
:1079600030000000446174615F547970650000006C
:107970003A2200003A222C2000000000780F00205C
:107980007C0F0020800F0020017E427E1144C1EB5D
:10799000C101426802EB41014A6812498A4206D19C
:1079A00011490978012902D100210F4A1170017E85
:1079B000427E1144C1EBC101426802EB41018A6879
:1079C0000A4909680C318A420AD107490978012914
:1079D00006D10021044A11700121044A1268517332
:1079E00070470000280E00206C050020580600207B
:1079F00070B504460E4620480078012807D10122C0
:107A000031462046FFF7F0FD0546284670BD207838
:107A10007E280DD12146194817F092FD10B917485C
:107A20004069F3E7154817F023FF14484069EDE774
:107A300020784D281DD160784E281AD1A07843288F
:107A400017D1E0782D2814D12079452811D16079FB
:107A50004E280ED10848007838B901223146204618
:107A6000FFF7C2FD05462846D0E7002028702846CB
:107A7000CCE70020CAE70000890F0020888B002097
:107A800010B508480078012801D121F011FA012130
:107A9000084601F0DBFB01F0C3F900200249087041
:107AA00010BD00008F0F0020890F0020014609291A
:107AB00003DC01F13000C0B270470A2905DB0F2951
:107AC00003DC01F13700C0B2F6E70020F4E7000064
:107AD00030B5024600240A48062303FB0205084687
