:020000040800F2
:1020000070BD00200123000809230008893B000857
:102010000D2300080F230008112300080000000012
:102020000000000000000000000000005D22000829
:102030001523000800000000A1220008E17E02082C
:102040001B2300081B2300081B2300081B23000878
:102050001B2300081B2300081B2300081B23000868
:102060001B2300081B2300081B2300081B23000858
:102070001B2300081B2300081B2300081B23000848
:102080001B2300081B2300081B230008113B00082A
:10209000F13A0008013B00081B2300081B2300083D
:1020A0001B2300081B2300081B2300081B23000818
:1020B000153F00081B2300081B2300081B230008F2
:1020C0001B2300081B2300081B2300081B230008F8
:1020D0001B230008C13F00081B230008D13F000854
:1020E0001B2300081B2300081B2300081B230008D8
:1020F0001B2300081B2300081B230008000000000E
:102100001B230008000000001B2300081B230008FD
:10211000B13F00081B2300081B2300081B230008F5
:102120001B2300081B2300081B2300081B23000897
:102130001B2300081B2300081B230008413B000849
:10214000213B0008313B00081B2300081B2300082B
:1021500000F002F800F073F80AA090E8000C824446
:102160008344AAF10107DA4501D100F068F8AFF223
:10217000090EBAE80F0013F0010F18BFFB1A43F065
:102180000103184760800200808002000A444FF07B
:10219000000C10F8013B13F0070408BF10F8014BC6
:1021A0001D1108BF10F8015B641E05D010F8016B0B
:1021B000641E01F8016BF9D113F0080F1EBF10F86F
:1021C000014BAD1C0C1B09D16D1E58BF01F801CB92
:1021D000FAD505E014F8016B01F8016B6D1EF9D515
:1021E0009142D6D37047000000230024002500262A
:1021F000103A28BF78C1FBD8520728BF30C148BF6A
:102200000B607047662927F02C82782900F00C813A
:10221000002070471FB59DE8030000F0C5FE00F0E8
:10222000A3FE04000020002125F0EEFFE06000F096
:10223000FFFA1FBD10B5002022F001FF10BD00F015
:10224000FBFF1146FFF7E6FF24F0D0FB01F033F867
:1022500003B4FFF7EFFF03BC01F03AF8204B196815
:102260000868B0E8F00F80F30988BFF36F8F4FF074
:10227000000080F311884EF00D0E70470000000042
:1022800006480068006880F3088862B661B6BFF34C
:102290004F8FBFF36F8F00DF00BF00BF08ED00E07E
:1022A000EFF30980BFF36F8F0D4B1A6820E9F00F31
:1022B000106008B54FF0BF0080F3118825F0C6FD0F
:1022C0004FF0000080F31188BDE8084019680868E5
:1022D000B0E8F00F80F30988BFF36F8F704700BF3D
:1022E000040E0020EFF311804FF0BF0181F311883D
:1022F000704780F311887047EFF305807047000046
:102300000948804709480047FEE7FEE7FEE7FEE789
:10231000FEE7FEE7FEE7FEE7FEE7FEE704480549C5
:10232000054A064B70470000953E00085121000801
:10233000707D002070BD0020709D0020709D0020E9
:10234000B2F120030AD5C2F1200301FA02F120FA0A
:1023500003F300FA02F041EA0301704700FA03F1C7
:102360004FF00000704710B54C1084EA530404D5B8
:102370004042C1F1000138BF491E1B4204D5524200
:10238000C3F1000338BF5B1E00F0BEFA14F0804FAB
:1023900004D04042C1F1000138BF491E14F0004F83
:1023A00004D05242C3F1000338BF5B1E10BD0000D1
:1023B0000FB41CB5074B06AA7B44694600900598EC
:1023C00000F08FFD0020694600F09EFD1CBC5DF80A
:1023D00014FB00004D0B000070B5044685690068D1
:1023E000C10601D5302600E02026C00707D070BD09
:1023F000D4E9012130469047206A401C20626D1EBE
:10240000F6D570BD70B5044685690078C00707D160
:1024100070BDD4E9012120209047206A401C206231
:102420006D1EF6D570BD000070B504460D46214600
:102430001068AFF300802188090502D50F4A7A445D
:1024400002E00E4A7A440E32002104F1240305E032
:1024500000F00F060009965D5E54491C0028F7D174
:1024600020780023000704D5702D02D009B1022383
:1024700011322046BDE8704000F0C8BA4A7502002B
:102480002DE9F0474FF0000A89460446C0F820A025
:102490002046E1688847002876D0252806D0D4E970
:1024A00001219047206A401C2062F1E7E168204644
:1024B00000258847C4F81CA006460027C4F818A0C9
:1024C0002A2E09D0304622F0B5FF38B304EB870836
:1024D000303EC8F8186019E059F8041B204604EB98
:1024E00087029161E1688847012F064618D1E069AB
:1024F000002820DA25F020051DE0D8F8180000EBB0
:10250000800006EB40003038C8F818002046E1682B
:102510008847064622F08EFF0028EED1012F0AD010
:102520002E2E08D12046E16888477F1C0646022FE0
:1025300045F02005C4DBA069002803DA404245F0DD
:102540000105A061E80701D025F01005B6B1A6F19C
:102550004100192802D8203645F400654A46314624
:10256000204625604D46FFF74DFE58B1012806D0A4
:10257000ED1D25F0070000F1080989E704E005F1E9
:10258000040985E730468AE7206ABDE8F087000045
:10259000014A00F0BFBC0000E80E002030B505463F
:1025A0000B462A4613F8014B12F8010B08B1A04262
:1025B000F8D01CB1002802D06D1CF1E7284630BDD0
:1025C00010B5431C02E010F8011B71B18107FAD16C
:1025D0004FF0013202C88C1A8C4314EAC211F9D0B0
:1025E000C01A0A0603D0C01E10BDC01A10BD0A04CE
:1025F00001D0801E10BD0902FCD0401E10BD421E3D
:1026000012F8013F002BFBD111F8013B002B02F81F
:10261000013BF9D17047032A40F2308010F0030CDF
:1026200000F0158011F8013BBCF1020F624498BF25
:1026300011F801CB00F8013B38BF11F8013BA2F1C2
:10264000040298BF00F801CB38BF00F8013B11F03D
:10265000030300F02580083AC0F0088051F8043BDD
:10266000083A51F804CBA0E80810F5E7121D5CBF4A
:1026700051F8043B40F8043BAFF30080D20724BF7D
:1026800011F8013B11F801CB48BF11F8012B24BF11
:1026900000F8013B00F801CB48BF00F8012B704760
:1026A00010B5203AC0F00B80B1E81850203AA0E8ED
:1026B0001850B1E81850A0E81850BFF4F5AF5FEA21
:1026C000027C24BFB1E81850A0E8185044BF18C9D4
:1026D00018C0BDE810405FEA827C24BF51F8043B7B
:1026E00040F8043B08BF7047D20728BF31F8023BCF
:1026F00048BF11F8012B28BF20F8023B48BF00F863
:10270000012B704702F0FF0343EA032242EA024230
:1027100000F002B84FF000020429C0F0128010F05F
:10272000030C00F01B80CCF1040CBCF1020F18BFAD
:1027300000F8012BA8BF20F8022BA1EB0C0100F040
:102740000DB85FEAC17C24BF00F8012B00F8012B13
:1027500048BF00F8012B70474FF0000200B5134648
:1027600094469646203922BFA0E80C50A0E80C50B1
:10277000B1F12001BFF4F7AF090728BFA0E80C5062
:1027800048BF0CC05DF804EB890028BF40F8042B5B
:1027900008BF704748BF20F8022B11F0804F18BFC8
:1027A00000F8012B704700004FF0013C50F8042B5B
:1027B00051F8043B9A4221D1A2EB0C03934313EA54
:1027C000CC1317D150F8042B51F8043B9A4215D181
:1027D000A2EB0C03934313EACC130BD150F8042B58
:1027E00051F8043B9A4209D1A2EB0C03934313EA3C
:1027F000CC13DBD04FF00000704700BFD01A01BAF5
:10280000B1FA81F101F0180122FA01F0CB40C1F1D7
:102810002001DBB2C0B2C01A2CFA01F3D11A9143E5
:1028200011EAC311E6D17047704770477047000046
:1028300070B5064C7C44064D7D4403E0206820447E
:102840008047241DAC42F9D170BD0000E879020038
:10285000187A020000487047447D002070B5064693
:1028600000F07EFB056806F10B0020F00704B4427F
:102870009CBF002070BD2B466A68BAB11068A042A8
:1028800010D304F1080188423CBF5068586007D358
:102890005168101941601168091B0160586014608B
:1028A000101D70BD13465268002AE7D12146284604
:1028B00000F066FB0028DED170BD70B50446051F30
:1028C00000F04EFB0068002C14BF446870BD002C63
:1028D00018BFAC423CBF20466468F8D301680A18B0
:1028E000AA4218BF456003D12A6805461144016019
:1028F00028684119A1421CBF6C6070BD61686960A5
:1029000021680844286070BD53EA020C00F0698019
:102910002DE9F04B4FF00006002B1FBFB3FA83F5F3
:1029200003FA05F424FA05F65E4012BF1643B2FA24
:1029300082F502FA05F4C5F120051EBF22FA05FC56
:1029400044EA0C04203556EA044C4FEA144418BFFC
:10295000641C4FF000084FF00009904271EB030C2B
:1029600039D3002919BFB1FA81F701FA07F6B0FA95
:1029700080F700FA07F6C7F120071EBF20FA07FC10
:1029800046EA0C062037B6FBF4FCA7EB0507103F20
:1029900007F01F0BCBF120060CFA0BFB2CFA06F606
:1029A00044BFB3460026202FA4BF5E464FF0000B65
:1029B0005BEA060C08BF4FF0010B19EB0B09ABFBF0
:1029C000027C48EB0608C01B06FB02CC0BFB03CCC9
:1029D00071EB0C01C1E70B46024641464846BDE893
:1029E000F08B13B54FF000004FF00001AFF3008003
:1029F000BDE81C40704710B500F0BAFA006810BD81
:102A000010B5044600F0B4FA046010BD2DE9F0479B
:102A10000D4699469246044600F12408016888064E
:102A200004D5E06921F01001216000E00120A842F6
:102A300001DD471B00E00027A1697A1902EB0900BC
:102A4000081AA0612078C00602D42046FFF7C4FC13
:102A5000002608E0D4E901211AF806009047206A10
:102A6000401C761C20624E45F4DB2078C0060AD557
:102A70002046FFF7B1FC06E0D4E901213020904761
:102A8000206A401C2062381EA7F10107F4DC07E031
:102A9000D4E9012118F805009047206A401C206203
:102AA000281EA5F10105F3DC2046FFF7ABFC2078DA
:102AB000000602D50220BDE8F0870120FBE7704741
:102AC0002DE9FF4F0C461E464FF0FF378BB0D2E981
:102AD0000001DDF860800A908A46C1F30A5505B905
:102AE0003D46002108464FF00000BAF1000F00F407
:102AF000400005DA00EB80004FF4400101EA50008D
:102B00004FEA9059B9F1010F00DDB9460A9850EA31
:102B10004A000ED044F61050A5F2FF3545432F145D
:102B2000B8F1000F1ED07542291E1EDDC9F100024A
:102B30001CE0B8F1010F4FF0000001D0302103E09C
:102B4000F24305E02154401CB042FBDB304600223A
:102B5000002121540B99C1F80880C1E900200FB071
:102B6000BDE8F08FBD1B6D1CDEE74A4600DA694206
:102B700006A800F0D5FA06AB93E8070003AB83E89C
:102B8000070050460A9900F0F7FB8DE80700A0F512
:102B900000501F3800900398002D09DD42F21F01FC
:102BA0004A46084403A90390684600F056FE08E030
:102BB000A0F500504A461F3803A90390684600F06C
:102BC00060FE8DE807000004000C03D04FF0FF30DA
:102BD000410800E01046B8F1000F03D00022009237
:102BE00015461EE0751E05D400F014FA3032625509
:102BF0006D1EF9D5B3460122084302D000227F1C86
:102C000004E02078302801D100227F1E002A099795
:102C100086D01DE0112D07DA00F0FCF93032625544
:102C20006D1C50EA0102F5D1084302D00098C8B1EA
:102C30000EE00021681E05E0235C625C63542254B0
:102C4000401E491C8142F7DBAB46A81B401E099081
:102C5000002004F80B000B98099AC0F80880C0E91E
:102C6000002B7CE711264FF0000859E72DE9F04FC3
:102C700088460446D21D22F0070191B0D1E9000137
:102C8000CDE90A0122F0AEF902460B98C00F01D03F
:102C90002D2007E02068810701D52B2002E02021AC
:102CA00001EAC000032A099001D0072A05DB034688
:102CB0004146204600F0F4F90BE12078800601D56A
:102CC000E06900E00620B8F1650F814606D0B8F152
:102CD000660F18D0B8F1670F70D131E00020B9F15C
:102CE000110F009001DB112301E009F101030AAA91
:102CF00001A90CA8FFF7E4FEDDE90C70002609F13C
:102D00000105834647E001204B4600904FF0004705
:102D10000AAA01A90CA8FFF7D3FEDDE90DB00C99B2
:102D20005D46002610B909F101000D18B9EB050048
:102D300003D4C0F1FF3609F10105A5EB09002BE032
:102D4000B9F1010F01DA4FF001090020B9F1110FBB
:102D50000090484601DD112300E003460AAA01A9BC
:102D60000CA8FFF7ADFEDDE90C704D46002683464A
:102D7000207800070AD4AB4500DA5D4601A8012D92
:102D800004DD411911F8011C302907D04F4502DA42
:102D900017F1040F04DA012082460FE06D1EEEE702
:102DA000002F02DCED1B3E4403E0781CA84200DD4E
:102DB0007D1CB81B00F1010A4FF000472078000786
:102DC00003D4AA4501DB4FF0FF3A0021B7F1004FD1
:102DD0000DF143088DF8431024D002202B23002F3F
:102DE00001DA7F422D230A21021EA0F1010000DC3E
:102DF0005FB197FBF1FC97FBF1F201FB1C7C1746DE
:102E00000CF1300C08F801CDEEE7A8F101000370D9
:102E10002188090501D5452100E06521A0F10108BF
:102E200000F8011C09980FA9A1EB0807FF1D00B1CC
:102E30000120411901EBEA70A1693844081A401ECB
:102E4000A0612078C00602D42046FFF7C5FA099891
:102E500028B1D4E901219047206A401C20622078E3
:102E6000C00622D52046FFF7B7FA1EE0002E04DB8D
:102E7000B34502DD01A8805D00E03020D4E90121E6
:102E80009047206A401C2062761CAAF101005FEA8C
:102E9000000A0AD100F068F8C0680168405CD4E913
:102EA00001219047206A401C2062281EA5F10105DF
:102EB000DCDC07E0D4E9012118F8010B9047206A17
:102EC000401C2062381EA7F10107F3DC2046FFF703
:102ED00099FA032011B043E601694A1C026108789F
:102EE000704700B58FB0CDE901310021059105494A
:102EF0007944CDE9031011466846FFF7C1FA0FB0D7
:102F000000BD0000E5FFFFFF0A6802F8010B0A6040
:102F1000704700002DE9F04115460E46040002D12D
:102F20002C6804B90BA4204600F078F904442078FA
:102F300070B127463146384600F060F904442078E5
:102F400010B1002004F8010B38462C60BDE8F08178
:102F50000027F9E700000000004870470C7D0020C2
:102F600000487047147D0020004870472C7D0020E9
:102F7000004870470C7D00207047704770477047CD
:102F800038B504460A4600206946AFF300800028A1
:102F900008BF38BD02460099204600F072F90120B2
:102FA00038BD012000F08DB9F8B5AFF300800546BB
:102FB00000200C46102000BF0646A819A0420DD9DB
:102FC000324669460020AFF30080070008BF00F0DA
:102FD00078F90098A04218BF0546C419FFF7C0FF52
:102FE00005600746F01D20F007004619284600F04E
:102FF0000AF8B44208BFF8BDA21B31463868BDE8E4
:10300000F84000F03EB900210160C0E901107047AE
:103010001020704730B5B0F10A024FEA900E71F1FE
:1030200000034EEA817EB0EB0E0061EB91014FEAA6
:10303000101E4EEA017E10EB0E0041EB11114FEA1B
:10304000102E4EEA016E10EB0E0041EB11214FEAFB
:10305000104E4EEA014E10EB0E0041EB11414018AC
:1030600041F100014FEAD00040EA41704FEAD1013E
:1030700010EB80054FEA810444EA907444EB0104AC
:103080006D1944EB0404521BA3414FF0000348BFE9
:103090000A3200D530BD401C41F1000130BD0000B6
:1030A0002DE9F0411F46044603260168072A01F472
:1030B000006004DB08B116A505E016A503E008B121
:1030C00015A500E015A521F010002060A069C01E24
:1030D000A0610FB1401EA0612046FFF77DF94FB1FE
:1030E000D4E9012138469047206A401C2062C01C68
:1030F000206206E0206AFAE7D4E9012115F8010B05
:103100009047761EF8D22046FFF77CF9BDE8F081A3
:103110004E414E006E616E00494E4600696E66007B
:103120002DE9F047814616468AB0334878440DC8E9
:103130008DE80D0030487844801C03AC0DC884E84D
:103140000D0041F69B300844372190FBF1F290FBD3
:10315000F1F5A5F1800501FB12041B3C02D5644288
:10316000012000E00020DFF890A080460027FA440C
:10317000AAF1BE0A0DE0E00709D03246684607EB27
:1031800047010AEB810100F07CFB8DE80700641029
:103190007F1C002CEFD1184F7F44AC3F18E0E807AC
:1031A00014D007EB04100DF1180A90E80E008AE81D
:1031B0000E00C068F04201D198190890324606A965
:1031C00003A800F05EFB03AB83E807006D10641CEE
:1031D000002DE4D132466946B8F1000F03A802D0B1
:1031E00000F03BFB01E000F04CFBC9E90001C9F82D
:1031F00008200AB0BDE8F0874469020030B50346F4
:103200001D781DB10A4603E0AC4201D1181A30BD49
:1032100012F8014B002CF7D15B1CF1E730B50346E7
:103220001D783DB10A4612F8014B1CB1AC42FAD1EF
:103230005B1CF5E7181A30BD7546FFF78DFEAE46EC
:1032400005006946534620F00700854618B020B5B2
:10325000FFF764F8BDE820404FF000064FF000078C
:103260004FF000084FF0000B21F00701AC46ACE82E
:10327000C009ACE8C009ACE8C009ACE8C0098D469B
:103280007047034640688C46002818BF88423CBF00
:1032900003464068F8D318681844884207D00CF1F8
:1032A000030020F00700001D411A521A0146081DB4
:1032B0000A60FFF702BB0446AFF300802046FEF72A
:1032C000C7FF10B500F010F8BDE8104000F007B8D7
:1032D00001491820ABBEFEE7260002007047002817
:1032E00001D0FFF7F5BF704710B5012805D00021C8
:1032F00003A000F021F8012010BD09A1F8E70000AB
:1033000053494752544D454D3A204F7574206F66CE
:103310002068656170206D656D6F72790000000036
:103320003A2048656170206D656D6F727920636F1A
:10333000727275707465640070B505460C460A209B
:1033400000E06D1C00F011F835B128780028F8D1A4
:1033500002E0641C00F009F814B120780028F8D1CC
:10336000BDE870400A20AFF3008008B569468DF8CB
:1033700000000320ABBE08BD5FEA400C08BF91F01F
:10338000000F4FEA8C234FEAC12243EA51514FEA22
:103390001C5018BF00F5F0404FEA300018BF41F054
:1033A00000415FEA6C5C00F02980BCF1FF3F08BF80
:1033B00040F080407047130C06BF12044FF0100C11
:1033C0004FF0000C130E04BF12020CF1080C130F87
:1033D00004BF12010CF1040C930F04BF92000CF116
:1033E000020CD30F04BF52000CF1010C11464FF038
:1033F0000002A0F11F00A0EB0C00704711F0004F7D
:1034000008BF704731F000413FF4D5AF0B0C06BF49
:1034100009044FF0100C4FF0000C0B0E04BF090212
:103420000CF1080C0B0F04BF09010CF1040C8B0FFD
:1034300004BF89000CF1020CCB0F04BF49000CF152
:10344000010CCCF12003A0EB0C0022FA03F302FAEA
:103450000CF241EA030100F10100704720F07F4CBB
:1034600080EA030023F07F47ACEB070303F57C53AE
:1034700000F0004003F1FF032DE980494FEA154BAE
:1034800009B44FEA144325EA0B4E24EA03480FF22D
:10349000042606EB132749083E785FEA320203FB55
:1034A0000667C7F5000707FB06F64FEA54374FEAF1
:1034B000D64606F1020607FB066CCCF1005C4FEA2B
:1034C0001C472CEA074C07FB06F40CFB06F504EB43
:1034D00015464FEA961634BF00204FF000404FEAE1
:1034E000D13706FB07FC4FEA1C4C0CFB0BF7D21B39
:1034F00003FB0CF761EB07010CFB0EF7B0EB074089
:1035000072EB17420CFB08F734BFA2EB0742B2EB99
:10351000074261EB17414FEA0C444FEA910706FB63
:1035200007FC4FEA1C4C0CFB0BF7B0EBC74072EBEF
:10353000573203FB0CF734BFA2EBC742B2EBC742D2
:1035400061EB57310CFB0EF7B0EBC70072EB577213
:103550000CFB08F734BFA2EBC702B2EBC70261EB6A
:103560005771039F4FEA816141EA921104EBCC0449
:103570004FEAD1374FEA826206FB07FC42EA90121B
:103580004FEA80604FEA1C4C0CFB0BF7D21B03FB8D
:103590000CF761EB07010CFB0EF7B0EB074072EB89
:1035A00017420CFB08F734BFA2EB0742B2EB07420D
:1035B00061EB17414FEA8C554FEA910704EB9C24CD
:1035C00006FB07FC4FEA1C4C0CFB0BF7B0EBC740AB
:1035D00072EB573203FB0CF734BFA2EBC742B2EBDE
:1035E000C74261EB57310CFB0EF7B0EBC70072EB33
:1035F00057720CFB08F734BFA2EBC702B2EBC7024D
:1036000061EB577115EB4C254FEA816141EA92114C
:103610004FEA82624FEAD13742EA901206FB07FC7A
:1036200044F100044FEA80604FEA1C4C0CFB0BF79E
:10363000D21B03FB0CF761EB07010CFB0EF7B0EBA1
:10364000074072EB17420CFB08F734BFA2EB0742AE
:10365000B2EB074261EB174115EB1C154FEA8131C4
:1036600041EA92414FEA823242EA90424FEA803088
:103670004FEA0C7644F1000448EA03434EEA0B4853
:103680004FF0000EB2EB080C71EB030724BF62464B
:1036900039464EEB0E0E4FF0000B001852414941D7
:1036A0004BEB0B0BB2EB080C71EB03077BF1000B40
:1036B00024BF624639464EEB0E0E4FF0000B001849
:1036C000524149414BEB0B0BB2EB080C71EB03077A
:1036D0007BF1000B24BF624639464EEB0E0E51EAD9
:1036E000020718BF46F0010616EB0E7655F10002F0
:1036F00054F1000103D5BDE88901BDE80088BDE8AB
:103700008901BDE80048B619524141EB0101A3F11E
:103710000103704780807F7E7D7C7B7A7978777625
:1037200076757473727171706F6E6E6D6C6C6B6A9E
:103730006A6968686766666564646363626161603C
:10374000605F5F5E5E5D5D5C5C5B5B5A5A595958B9
:103750005857575656555555545453535252525123
:10376000515050504F4F4F4E4E4D4D4D4C4C4C4B79
:103770004B4B4A4A4A4949494848484747474746C0
:1037800046464545454444444443434343424242FC
:1037900042414141002B26D4770021D01CB54FEA8D
:1037A000370703B44FF010004FF010014FF0000046
:1037B0000FBCBDE810400BF1010BBBF1010F08BFBE
:1037C0005FEA170722BF12F1010211F101014FF068
:1037D000004143F1000300F0004043EA000070475D
:1037E000F9D35708DAE746EA064613F1400F4FEAE5
:1037F00016461FDD13F1200FDFBF16430A460021D6
:1038000020335B42C8D0C3F1200746EA064602FADD
:1038100007F74FEA164646EA0706C3F1200722FAE1
:1038200003F201FA07F721FA03F14FF0000342EA2D
:103830000702B1E746EA020646EA06464FEA16469E
:1038400046EA0106BCBF46EA0646360C4FF00003C6
:103850004FF000024FF000019EE72DE9C04893466B
:1038600030B491E8380007C831EA400C48BF34EA68
:10387000430C03D5FFF7F2FDFFF78CFFF0BCBDE86A
:1038800000882DE9C048934630B491E8380007C855
:1038900010F0804F08BF13F0804F03D100F005F8FF
:1038A000FFF778FFF0BCBDE8008820F07F4780EA92
:1038B000030023F07F4C07EB0C03A3F57C5300F0CF
:1038C0000040A3F1FE0392F0000F00F0B38095F0EA
:1038D000000F00F077802DE901494FEA11404FEACF
:1038E000144621EA004800FB06FC24EA064708FBD0
:1038F00006F607FB08F800FB07F718EB06484CEB49
:10390000164C4FEA124B18EB07484FEA15464CEBA2
:10391000174022EA0B4E0BFB06FC25EA06470EFB7E
:1039200006F607FB0EFE0BFB07F71EEB064E4CEBF5
:10393000164C4FF000061EEB074E4CEB174B18EBE6
:103940000B0840F1000018EB0E0B58EB000840F19B
:1039500000008F1A4FF000013CBFC943661B14BF23
:10396000B5EB040C00213CBFC943F61B4FEA1744DA
:103970004EEA8E0E27EA04454FEA1C4704FB076215
:103980002CEA074C05FB07F70CFB05F604FB0CFCC7
:1039900016EB074642EB174216EB0C4642EB1C4275
:1039A0001BEB060658EB0202414146EA9E0601D592
:1039B000BDE80189B619524141EB0101A3F10103B0
:1039C000BDE801894FEA14454FEA114724EA05464C
:1039D00021EA074C05FB07F406FB07F70CFB06F191
:1039E00005FB0CFC11EB074144EB17444FEA12476F
:1039F00011EB0C4144EB1C4422EA074C05FB07F297
:103A000006FB07F70CFB06F605FB0CFC16EB07465E
:103A100042EB174216EB0C4642EB1C456A1854F178
:103A2000000148BF7047B619524141EB0101A3F1B3
:103A30000103704795F0000F37D04FEA11424FEA6B
:103A4000144721EA024624EA074C02FB07F106FB71
:103A500007F70CFB06F402FB0CFC14EB074441EBEC
:103A600017414FEA154714EB0C4441EB1C4125EA82
:103A7000074C02FB07F506FB07F70CFB06F602FBFB
:103A80000CFC16EB074645EB174516EB0C4645EBD1
:103A90001C42121951F1000148BF7047B61952413A
:103AA00041EB0101A3F1010370474FEA14454FEACE
:103AB000114724EA054621EA074C05FB07F106FBFE
:103AC00007F70CFB06F24FF0000605FB0CFC12EBAF
:103AD000074241EB174112EB0C4251EB1C4148BF2E
:103AE0007047921841EB0101A3F1010370470000F8
:103AF00010B50021014817F0C5F810BD3C0F00209B
:103B000010B50121014817F0BDF810BD3C0F002091
:103B100010B5024817F0E6F810BD00003C0F002079
:103B200010B50021014817F0ADF810BD540F00206A
:103B300010B50121014817F0A5F810BD540F002061
:103B400010B5024817F0CEF810BD0000540F002049
:103B500070B504460D46204621F06AFF204622F04B
:103B6000B9FF2946204621F06BFE064951F8240092
:103B7000022122F022F8034951F82400012122F009
:103B80001CF870BD7897020810B510F017FF10BD33
:103B90000146CA1701EB92729210A1EB820292B910
:103BA000642091FBF0F200FB121050B94FF4C87082
:103BB00091FBF0F200FB121008B9012070470020C1
:103BC000FCE70120FAE70020F8E7000070B50026C6
:103BD0000024002523F002FC06465548B6FBF0F40D
:103BE00054480088A04246D052490C8040F2B27539
:103BF0000EE02846FFF7CCFF30B1B4F5B77F02D313
:103C0000A4F5B77402E006E0A4F26D14681C85B256
:103C1000B4F5B67FEDD800BF474805800088474916
:103C20008880002516E044480088FFF7B1FF30B1D6
:103C3000012D04D11D2C01D31D3C09E00CE04048AE
:103C4000405DA04203D83E48405D241A00E003E0F6
:103C5000681C85B21C2CE6D200BF681C3749096875
:103C600060F3995135480160601C3449096860F37C
:103C70005541324801602E48B6FBF0F100FB11645B
:103C80004FF46160B4FBF0F12C48006861F3103030
:103C90002A4908604FF46160B4FBF0F100FB114069
:103CA0003C21B0FBF1F12548006861F38B102349FA
:103CB00008604FF46160B4FBF0F100FB11403C215F
:103CC000B0FBF1F201FB12011C48006861F3050032
:103CD0001A490860084681881A48006861F31F5035
:103CE0001849086015480068810D1648006861F39E
:103CF00013401449086011480068410C11480068DD
:103D000061F3CF200F4908600C480068010B0D4893
:103D1000006861F38A100B49086008480068810D4B
:103D20000848006861F3134006490860002070BD30
:103D3000805101009204002090040020840400209F
:103D4000309802088C0400202DE9F05F06460F46EB
:103D500090469946DDE90AAB002440F2B2708642F3
:103D600003DB40F63300864202DD0120BDE8F09F10
:103D700040F2B2750AE02846FFF70AFF10B11F486B
:103D8000044401E01E480444681C85B2B542F2DBDD
:103D9000781EC7B2002510E01A48405D40F2A3210A
:103DA000484304EBC0143046FFF7F2FE18B1012D72
:103DB00001D115480444681C85B2BD42ECDBA8F172
:103DC000010040F2A321484304EBC014C9EB4910A1
:103DD000C0EB092004EB0014CAEB0A1004EB8004CA
:103DE0005C4422F0FBFE23F01BFB204623F000FB8B
:103DF000204623F0FDFA0020B8E700000085E2012C
:103E00008033E10130980208805101001CB540F276
:103E10001B7023F093FA40F21C7023F08FFA22F00B
:103E2000DDFE142021F0D0FC45F65A2188422FD027
:103E300021F000FD4FF4006023F0DAF94FF4006048
:103E400023F0E6F94FF4807023F0A8FA40F60F0053
:103E500023F074FA23F0FEFA23F0E2FA012023F0B3
:103E6000D7FA23F0DDFA47F6FF7023F0E3FA23F0E8
:103E7000D7FA0B200090034613220C21019040F248
:103E8000E670FFF761FF45F65A21142021F0B8FCD7
:103E90001CBD000010B51848006840F0010016492C
:103EA00008600846406815490840134948600846BC
:103EB000006813490840104908600846006820F46B
:103EC00080200860084640680E4908400A4948605A
:103ED0000020C862084600680B490840064908608F
:103EE0004FF47F00886023F0DBFB084CA4F25114F0
:103EF0000748046010BD0000001002400C00FFE005
:103F0000FFFFF6FEFFFF00DFFFFFF6EA512100088A
:103F100008ED00E010B50121880723F0B0FC01286E
:103F20003BD10121800723F0A7FC1C480088401CDE
:103F30001A4908801A48006811F074F91748008877
:103F4000642190FBF1F201FB120030BB002006F06F
:103F500041F9124800884FF47A7190FBF1F201FBAD
:103F60001200D0B900200D49088006F01BF80D485A
:103F70000068401C0B49086006F060FF0BF098F8E1
:103F80000AF0D2FC00F0DAF807480078012804D1E2
:103F900006480088401C0549088010BD480D0020D7
:103FA0002C0000204C0D002062000020800000202A
:103FB00010B5024820F000FF10BD0000CC0F00201B
:103FC00010B5024820F0F8FE10BD0000E40F0020FC
:103FD00010B5024820F0F0FE10BD0000FC0F0020DC
:103FE00070B504460D46204623F04EFD2946204676
:103FF00023F0A4FC204623F0EDFD044951F82400F1
:1040000040F2053123F0AFFD70BD0000FC970208BF
:1040100010B5044640210C4822F08AFA0B4823F0E0
:104020004DFA0A4823F04FFA2146084823F06CFA6B
:1040300000BF8021054823F095FA0028F9D14021DE
:10404000014822F077FA10BD00080140003001401D
:1040500010B5044640210C4822F06CFA0B4823F0BE
:104060002DFA0A4823F02FFA2146084823F04CFA8B
:1040700000BF8021054823F075FA0028F9D14021BE
:10408000014822F057FA10BD0008014000300140FD
:1040900010B502460B460AB9002010BD13BB0C2018
:1040A00092FBF0F400FB1420C1B211B9501EC2B251
:1040B0000C210C2092FBF0F030B1012807D002282F
:1040C00008D003280CD108E041F01000E5E741F0EA
:1040D0002000E2E741F03000DFE741F04000DCE79C
:1040E000FF20DAE7012B01D11046D6E700BFD4E765
:1040F00070B503460C464FF6FF7111E013F8010B43
:10410000414000250AE001F0010020B149104AF2C7
:104110000100414000E04910681CC5B2082DF2DBE7
:104120002000A4F10104E9D11088884201D10020C7
:1041300070BD11804FF0FF30FAE70000002066E00C
:10414000C0EBC001334A02EB8101897AC1F300114F
:1041500089B3C0EBC00102EB8101897AC1F3401140
:1041600049BBC0EBC00102EB8101897AC1F3801128
:1041700009BBC0EBC00102EB8101C98800291ADD2F
:1041800000EB4001244A02EBC101897D01F00F01DF
:10419000032910D02149095C01290CD1C0EBC001D1
:1041A0001C4A02EB8101C988491EC0EBC002194BB1
:1041B00003EB8202D180C0EBC001164A02EB810101
:1041C000098B02290CDDC0EBC00102EB8101098BD8
:1041D000491EC0EBC0020F4B03EB8202118314E0B7
:1041E000C0EBC0010B4A02EB8101098B02290CD103
:1041F0000621C0EBC002074B03EB82029182012132
:10420000C0EBC00203EB82021183411CC8B222281A
:1042100096DB70471823002010780020D02600205D
:1042200030B50446B6480088C0F38510B449096823
:10423000C1F30431C1EB011100EB810504EB8400F3
:1042400000EBC400AF4901EB4000B0F90200A84206
:1042500011DC04EB840000EBC40001EB4000B0F97A
:104260000400A84207DD0020A7490870002120466D
:1042700002F0ACFF30BD04EB840000EBC400A149A8
:1042800001EB4000B0F90400A84211DC04EB84000B
:1042900000EBC40001EB4000B0F90600A84207DDC6
:1042A0000120994908700121204602F08FFFE1E7C3
:1042B00004EB840000EBC400924901EB4000B0F92C
:1042C0000600A84211DC04EB840000EBC40001EB03
:1042D0004000B0F90800A84207DD02208A490870B2
:1042E0000221204602F072FFC4E704EB840000EBD9
:1042F000C400844901EB4000B0F90800A84211DC79
:1043000004EB840000EBC40001EB4000B0F90A00AC
:10431000A84207DD03207C4908700321204602F0F3
:1043200055FFA7E704EB840000EBC400754901EBDF
:104330004000B0F90A00A84211DC04EB840000EB55
:10434000C40001EB4000B0F90C00A84207DD0420D6
:104350006D4908700421204602F038FF8AE704EB1B
:10436000840000EBC400674901EB4000B0F90C0089
:10437000A84211DC04EB840000EBC40001EB400018
:10438000B0F90E00A84207DD05205F49087005213D
:10439000204602F01BFF6DE704EB840000EBC40035
:1043A000584901EB4000B0F90E00A84211DC04EBC3
:1043B000840000EBC40001EB4000B0F91000A842FB
:1043C00007DD0620504908700621204602F0FEFE57
:1043D00050E704EB840000EBC4004A4901EB4000C5
:1043E000B0F91000A84211DC04EB840000EBC4001B
:1043F00001EB4000B0F91200A84207DD0720424956
:1044000008700721204602F0E1FE33E704EB840048
:1044100000EBC4003B4901EB4000B0F91200A84298
:1044200011DC04EB840000EBC40001EB4000B0F9A8
:104430001400A84207DD08203349087008212046EF
:1044400002F0C4FE16E704EB840000EBC4002D4923
:1044500001EB4000B0F91400A84211DC04EB840029
:1044600000EBC40001EB4000B0F91600A84207DDE4
:104470000920254908700921204602F0A7FEF9E627
:1044800004EB840000EBC4001E4901EB4000B0F9CE
:104490001600A84211DC04EB840000EBC40001EB21
:1044A0004000B0F91800A84207DD0A20164908703C
:1044B0000A21204602F08AFEDCE604EB840000EBD1
:1044C000C400104901EB4000B0F91800A84202DC1A
:1044D000B5F5B46F0ADB04EB840000EBC4000949B6
:1044E00001EB4000B0F90200A84207DD0B200649AD
:1044F00008700B21204602F069FEBBE60020B9E6F9
:104500008404002012010020420D002001463029C1
:1045100005DB392903DCA1F13000C0B27047412925
:1045200005DB5A2903DCA1F13700C0B2F6E76129A7
:1045300005DB7A2903DCA1F15700C0B2EEE70020C9
:10454000ECE7000010B50246002001239340034C25
:104550002488234003B1084610BD0000BC0C002095
:104560002DE9F05F834632480078324909680870C7
:1045700031480078012805D1304800782D49096874
:10458000487006E02C48007818B9002029490968CD
:1045900048702B48007827490968887029480078B6
:1045A00024490968C87028480078224909680871B8
:1045B00020480068441D25490968488924F08CFE7C
:1045C0000646234924F03EFD60602248008824F01E
:1045D00083FE81461D490968888924F07DFE824654
:1045E0001D4924F0C1FE80461C4924F02BFD0746DE
:1045F000494624F0B9FE0646616824F023FDA06018
:104600000C48006800F10D051549A06824F078FEFB
:1046100008D20F49A06824F0A7FE064624F024FE25
:10462000288002E04FF461502880BDE8F09F000030
:10463000C8020020B805002068020020DA0200202D
:104640006902002062000020DB020020CC02002072
:1046500000002041B00000200000704200401C46D5
:104660000000B44430B5034600221F4C2468A478EF
:104670002CB91D4C2468E4781B4D2D68AC701A4C85
:104680002468A478184D2D68ED78AC4203DD012430
:10469000154D2D68AC70002100200DE0134C245CFA
:1046A000002C07DD4C1CE1B20F4C2468A4788C422E
:1046B00000D103E0441CE0B22228EFDB00BF222837
:1046C00000D130BD0A4C246834F81040064D2D68E6
:1046D000AC80074CE46954F82040034D2D68C5F8C0
:1046E000064000BFEDE70000B8050020007C002078
:1046F000A4150020F0B589B005460E461746BDF852
:10470000200065F304000890BDF8200020F0200090
:104710000890BDF8200066F38B100890BDF82000CB
:1047200067F30F30089000240AE03D48006830F835
:104730001400BDF82010884200D105E0601CC4B20E
:1047400038480078A042F0DC00BF36480078A0422C
:1047500001D109B0F0BD0AE031480168601C31F8B0
:1047600010002F49096821F81400601CC4B22D48BC
:104770000078A042F0DC2B488078401E29498870E0
:1047800008460078401E087008468078487000206F
:104790000790BDF8200020F020002030089022492A
:1047A00003C9CDE90401BDF82000ADF816001F4A89
:1047B00007CA01AB07C301204FF4FA6301AAC10283
:1047C00000901B48006811F023FC0790BDF81C0006
:1047D00000EB4000800000F6040081B20C2304AA24
:1047E0001348006812F042FFBDF81C00401C80B264
:1047F0000790BDF81C00B0F5FA6F01DB00200790B0
:10480000022307AA40F602010948006812F02EFFB1
:104810000448807810B900200649087000BF98E766
:10482000F4020020E10C0020840400209C9802087F
:10483000A4040020190D00202DE9F04FA1B0FE487E
:10484000007810B921B0BDE8F08F0024B2E0012556
:104850000026FA480068408A05FA04F1084000B1D1
:104860000126F74830F81400C0F3C110022832D1F5
:1048700005FA04F0F3490988084058B3F04B13F8DF
:10488000143003F07F03F04FFA5CED4B33F8143033
:10489000C3F34221EA4B13F8143003F07F0303F112
:1048A0001400FFF727FFE64810F8140000F07F001F
:1048B000E649095C01208840E54B0CCB22EA000068
:1048C0000021E34A03C205FA04F0DE490988814366
:1048D000DC4801806CE0DA4830F81400C0F3C11005
:1048E000B04231D105FA04F0D649098808400028C1
:1048F0005DD1D34B13F8143003F07F03D24FFA5C31
:10490000CF4B33F81430C3F34221CD4B13F814309E
:1049100003F07F0303F114000FF048FEC84810F8BD
:10492000140000F07F00C949095C01208840C84B91
:104930000CCB1043C64A09C205FA04F0C1490988E4
:104940000843C049088032E005FA04F0BD490988EF
:10495000084060B3BA4B13F8143003F07F03BA4F2A
:10496000FA5CB74B33F81430C3F34221B44B13F85D
:10497000143003F07F0303F11400FFF7BBFEB048CF
:1049800010F8140000F07F00B049095C0120884055
:10499000AF4AD2E9003223EA00000021AC4A03C248
:1049A00005FA04F0A74909888143A648018000BFA1
:1049B000601CC4B20C2CFFF64AAF0020A549087059
:1049C000A54800680088A5490988884217DDA448E1
:1049D000006800680121084020B90222002101205E
:1049E0000FF0E4FD01229E48016803C962F3000054
:1049F0009B4A126803C20220964908701DE096483F
:104A000000680188954800880A38814215DA944880
:104A10000068006801210840012803D1022200211A
:104A2000FFF768FE00228E480068D0E9001062F3AC
:104A300000018B4A1268C2E9001000208949087001
:104A400048708870C870884800680088874909885D
:104A5000884219DD824800680078C0F3401020B910
:104A60000222002103200FF0A1FD01227C480068F2
:104A7000D0E9001062F34511794A1268C2E90010CA
:104A80000220784908701EE077480068018877485E
:104A90000088C838814216DA714800680078C0F38F
:104AA0004010012804D1022200210320FFF722FE3A
:104AB00000226B480068D0E9001062F34511684A93
:104AC0001268C2E900106848006880886749098850
:104AD000884219DD624800680078C0F3C01020B930
:104AE0000222002105200FF061FD01225C480068D0
:104AF000D0E9001062F3C711594A1268C2E90010E8
:104B00000220584988701CE057480068818857483F
:104B10000088C838814214DA514800680078C0F330
:104B2000C010012804D1022200210520FFF7E2FD78
:104B300000224B48016803C962F3C710484A126853
:104B400003C249480068408848490988884219DDFD
:104B5000434800680078C0F3801020B90222002189
:104B600004200FF023FD01223D480068D0E9001029
:104B700062F386113A4A1268C2E9001002203949EC
:104B800048701EE038480068418838480088C838B6
:104B9000814216DA324800680078C0F3801001289C
:104BA00004D1022200210420FFF7A4FD00222C489A
:104BB0000068D0E9001062F38611294A1268C2E940
:104BC000001029480068808A29490988884216DD32
:104BD000234800680088C0F3C02020B902220121C8
:104BE00006200FF0E3FC01221D480068D0E9001008
:104BF00062F3CB211A4A1268C2E9001016E0184885
:104C000000680088C0F3C020012804D102220121DD
:104C10000620FFF76FFD002211480068D0E9001060
:104C200062F3CB210E4A1268C2E900100E480068F8
:104C3000C08A0F4909881DE0DC020020A40400207E
:104C4000F8000020BC0C0020010D00200D0D0020FC
:104C5000E8020020EC0C0020CC020020C200002062
:104C6000C00C0020E40C0020F0020020BC0000205A
:104C7000BE000020884216DDFE4800680088C0F3B0
:104C8000003020B90222114606200FF08FFC0122CD
:104C9000F8480068D0E9001062F30C31F54A126858
:104CA000C2E9001016E0F34800680088C0F3003045
:104CB000012804D1022211460620FFF71BFD002225
:104CC000EC480068D0E9001062F30C31E94A126840
:104CD000C2E90010E8480068008BE849098888426A
:104CE00014DDE44800680088C0F3403020B9022297
:104CF000032106200FF05AFC0122DE48016803C997
:104D000062F34D30DB4A126803C216E0D9480068EE
:104D10000088C0F34030012804D10222032106207C
:104D2000FFF7E8FC0022D3480068D0E9001062F3E6
:104D30004D31D04A1268C2E90010D14800780028ED
:104D40007ED1D048007868B90120CE490870E020B3
:104D5000CD49C8710220CD490870082200211A20CF
:104D60000FF024FCCA4800680088CA4909888842B4
:104D700017DAC04800680078C0F3400020B90A2262
:104D8000002113200FF012FC0122BA48016803C968
:104D900062F34100B74A126803C20120BE4908709D
:104DA0001EE0BB4800680188BA4800880A3081428A
:104DB00016DDB04800680078C0F34000012804D137
:104DC0000A2200211320FFF795FC0022A948006861
:104DD000D0E9001062F34101A64A1268C2E900104E
:104DE000A44800680078C0F38000012803D10A229B
:104DF0000021FFF77FFC00229E480068D0E90010E8
:104E000062F382019B4A1268C2E900109948006867
:104E10000088C0F3C030012804D1012200210920FC
:104E2000FFF768FC002293480068D0E9001062F3A5
:104E3000CF31904A1268C2E900108E48006800E045
:104E40009BE00088C0F38030012804D102220021B9
:104E50000920FFF74FFC002286480068D0E90010C7
:104E600062F38E31834A1268C2E9001081480068FB
:104E70000088C0F30020012804D101220021032072
:104E8000FFF738FC00227B480068D0E9001062F38D
:104E90000821784A1268C2E9001076480068008844
:104EA000C0F34020012804D1012200210420FFF793
:104EB00021FC00226F48016803C962F349206D4A52
:104EC000126803C26B4800680088C0F38020012884
:104ED00004D1012200210520FFF70CFC00226548C7
:104EE000016803C962F38A20624A126803C26148FA
:104EF00000680068C0F30040012804D10022114678
:104F00000A20FFF7F7FB00225A480068D0E900109A
:104F100062F31041574A1268C2E900105548006810
:104F20000068C0F34040012804D1002211460B2044
:104F3000FFF7E0FB00224F480068D0E9001062F361
:104F400051414C4A1268C2E900104A4800680068A2
:104F5000C0F38040012804D1002211460C20FFF745
:104F6000C9FB002243480068D0E9001062F3924177
:104F7000404A1268C2E90010DFE242480078012886
:104F80000CD100203F490870082200211A20FFF7A9
:104F9000B1FB00203C49C8713C49087035480068A5
:104FA0000078C0F34000012804D10A220021132018
:104FB000FFF7A0FB00222F48016803C962F34100FC
:104FC0002C4A126803C232480068008833490988B5
:104FD000884219DA274800680078C0F3800020B9B9
:104FE0000A22002101200FF0E1FA01222148006885
:104FF000D0E9001062F382011E4A1268C2E9001073
:105000000120254908701BE02148006801882348D9
:1050100000880A30814213DD164800680078C0F32A
:105020008000012803D10A220021FFF763FB002240
:105030001048016803C962F382000E4A126803C275
:105040000D480068008841F28831884238DA1448F7
:10505000007800F00400042832D106480068006897
:10506000C0F3004020B9002211460A200FF09EFA3A
:10507000012217E0C00C0020F0020020BE0000203A
:10508000D9020020ED0C0020E40C0020EE0C0020E2
:10509000CC020020C0000020EC0C0020C201002047
:1050A00076020020F7480068D0E9001062F3104152
:1050B000F44A1268C2E900100320F349087014E0B2
:1050C000F04800680068C0F30040012804D10022C5
:1050D00011460A20FFF70EFB0022EA48016803C9C7
:1050E00062F31040E74A126803C2E848006800888B
:1050F000E7490988884225DAE24800680068C0F379
:105100000040F8B9E348007800F00400042819D101
:10511000DC4800680088C0F3002020B9012200218B
:1051200003200FF043FA0122D6480068D0E90010AE
:1051300062F30821D34A1268C2E900100120D24963
:1051400008701EE0D14800680188D1480088C83046
:10515000814216DDCB4800680088C0F3002001289A
:1051600004D1012200210320FFF7C4FA0022C54820
:105170000068D0E9001062F30821C24A1268C2E94F
:105180000010C2480068408841F2883188421FDA26
:10519000C048007800F00200022819D1B948006820
:1051A0000068C0F3404020B9002211460B200FF0E8
:1051B000FDF90122B3480068D0E9001062F35141C3
:1051C000B04A1268C2E900100320AF49487016E0E7
:1051D000AC4800680068C0F34040012804D10022B8
:1051E00011460B20FFF786FA0022A6480068D0E996
:1051F000001062F35141A34A1268C2E90010A348AB
:1052000000684088A2490988884225DA9D480068DC
:105210000068C0F34040F8B99E48007800F00200F2
:10522000022819D1974800680088C0F3402020B9AF
:105230000122002104200FF0B9F9012291480068F1
:10524000D0E9001062F349218E4A1268C2E90010C9
:1052500001208D4948701EE08C48006841888C48C8
:105260000088C830814216DD864800680088C0F397
:105270004020012804D1012200210420FFF73AFA3E
:10528000002280480068D0E9001062F349217D4A7D
:105290001268C2E900107D480068808841F28831B8
:1052A00088421CDA7B48007800F00100B8B17548EC
:1052B00000680068C0F3804020B9002211460C202D
:1052C0000FF074F901226F48016803C962F392403C
:1052D0006C4A126803C203206B49887016E0694863
:1052E00000680068C0F38040012804D10022114604
:1052F0000C20FFF7FFF9002262480068D0E9001097
:1053000062F392415F4A1268C2E900105F48006888
:1053100080885F490988884222DA5A480068006814
:10532000C0F38040E0B95B48007800F00100B8B1FC
:10533000544800680088C0F3802020B90122002171
:1053400005200FF033F901224E48016803C962F3CA
:105350008A204C4A126803C201204B4988701EE023
:105360004A48006881884A480088C830814216DD72
:10537000444800680088C0F38020012804D101223D
:1053800000210520FFF7B6F900223E480068D0E969
:10539000001062F38A213B4A1268C2E90010002023
:1053A0003949C8703B48007800F00700F0B33A482C
:1053B00000880A2190FBF1F034490968C9888842C5
:1053C00017DA02203049C8702E4800680088C0F300
:1053D000803020B90222002109200FF0E7F80122D5
:1053E0002848016803C962F38E30264A126803C256
:1053F00023E0294800880A2190FBF1F0401F23494F
:105400000968C988884218DD1E4800680088C0F312
:105410008030012804D1022200210920FFF76AF917
:10542000002218480068D0E9001000E05BE062F359
:105430008E31144A1268C2E90010184800880A2107
:1054400090FBF1F011490968C988884228DD0120E4
:105450000D49C8700B4800680088C0F3C03020B9FF
:105460000122002109200FF0A1F80122054800685F
:10547000D0E9001062F3CF31024A1268C2E900108D
:105480005BE00000C00C0020E40C0020F0020020D3
:10549000BA00002076020020C4000020C6000020D0
:1054A000FD4800880A2190FBF1F0401DFB49096886
:1054B000C988884241DCFA4800680088C0F3C030DF
:1054C000012804D1012200210920FFF713F900224D
:1054D000F3480068D0E9001062F3CF31F04A126857
:1054E000C2E9001029E0EE4800680088C0F380306F
:1054F000012804D1022200210920FFF7FBF8002235
:10550000E748016803C962F38E30E54A126803C2B6
:10551000E34800680088C0F3C030012804D10122AC
:1055200000210920FFF7E6F80022DD48016803C9E1
:1055300062F3CF30DA4A126803C20521D948006805
:105540001DF008FF07460921D64800681DF002FF3C
:1055500006460124D448007888BB00257BE0705DB6
:10556000032190FBF1F201FB1200012806D1CF4884
:10557000007800F0010008B164006AE0705D03216A
:1055800090FBF1F201FB1200022807D1C748007816
:1055900000F00200022801D164005AE0705D03218E
:1055A00090FBF1F201FB120050B9705D40B1BF48B1
:1055B000007800F00400042802D1640049E04FE0C4
:1055C000785D00F0010078B1B9480068204028B942
:1055D000681CC1B206220F200EF0E8FFB448006834
:1055E0002043B34908600EE0B1480068204028B16C
:1055F000681CC1B206220F20FFF77CF8AC48006897
:10560000A043AB490860AB4800684069204078B9C6
:10561000A9480068204028B9681CC1B207220F20A1
:105620000EF0C4FFA44800682043A34908600EE0C0
:10563000A1480068204028B1681CC1B207220F2091
:10564000FFF758F89C480068A0439B490860640035
:1056500000BF681CC5B299488078A8423FF77FAF69
:1056600097480068B0F9260096490988884219DDF4
:105670008B4800680068C0F3406038B902220021FE
:1056800010200EF093FF80208F490870012284487B
:105690000068D0E9001062F35961814A1268C2E9DA
:1056A000001021E086480068B0F92610854800887F
:1056B000A0F59670814217DA794800680068C0F357
:1056C0004060012807D1022200211020FFF712F8C4
:1056D00000207D49087000227148016803C962F307
:1056E00059606F4A126803C275480068B0F9260015
:1056F0007649098809B2884220DA71480068B0F911
:1057000026007349884219DD654800680068C0F3C7
:10571000006038B90122002110200EF047FF8020E0
:105720006949087001225E480068D0E9001062F300
:1057300018615B4A1268C2E9001024E06048006802
:10574000B0F926106148008800B200F596708142D9
:1057500019DD534800680068C0F30060012807D1D4
:10576000012200211020FEF7C5FF002056490870D5
:1057700000224B480068D0E9001062F31861484AE3
:105780001268C2E900104E480068B0F92B0010F111
:105790000F0F14DA424800680078C0F3001020B9F7
:1057A0000022114613200EF001FF01223C4801683F
:1057B00003C962F304103A4A126803C21AE040486F
:1057C0000068B0F92B00002814DB35480068007829
:1057D000C0F30010012804D1002211461320FEF767
:1057E00089FF00222E48016803C962F304102C4A85
:1057F000126803C23748007858B937480078A0B912
:105800000622002113200EF0D1FE0120324908703B
:105810000BE031480078012807D10622002113202F
:10582000FEF768FF00202C490870002000902B49EB
:10583000087056E22A4829490978405C00286EDD44
:105840000098401CC1B200912648C06823490978DD
:10585000405C00F00100F0B12048027801240025EE
:1058600020462946FCF76CFD1F4B0CCB104019401D
:10587000002358405940084350D11848007800EBA5
:1058800040001A4901EBC000C07D7B2833D00522BF
:105890000E2000992CE043E0C6000020F00200201A
:1058A000C00C0020D0020020ED0C0020E2020020FD
:1058B000F40C0020780C0020FC0C0020640C00206C
:1058C000CC020020C8000020EF0C0020CA000020FD
:1058D000ACF4FFFF58000020F10C0020BB0C0020AE
:1058E000007C0020A4150020900C002010780020DF
:1058F0000EF05CFE04E00522122000990EF056FE28
:10590000FE4802780126002730463946FCF718FD8C
:10591000FB4B0CCB10431943F94A03C23DE045E170
:10592000F64802784FF001084FF00009404649461A
:10593000FCF706FDF24B0CCB1040194000235840F9
:105940005940084329D0ED48007800EB4000ED496C
:1059500001EBC000C07D7B2805D005220E200099F8
:10596000FEF7C8FE04E0052212200099FEF7C2FEF1
:10597000E24802784FF0010A4FF0000B50465946BA
:10598000FCF7DEFC0A46C143D043DD4AD2E90032CF
:1059900019401040DA4AC2E90010DB48C068D74914
:1059A0000978405C00F04000402838D1D3480278A4
:1059B00001210020CDE9010108460199FCF7C0FC56
:1059C000D24B0CCB1040194000235840594008439B
:1059D00060D1CA48007800EB4000CA4901EBC00022
:1059E000C07D7B2805D004220E2000990EF0DEFD3C
:1059F00004E004221D2000990EF0D8FDBF48027873
:105A000001210020CDE9030108460399FCF798FC29
:105A1000BE4B0CCB10431943BC4A03C23AE0B74813
:105A2000027801210020CDE9050108460599FCF71F
:105A300087FCB64B0CCB104019400023584059400E
:105A4000084327D0AD48007800EB4000AD4901EB9A
:105A5000C000C07D7B2805D004220E200099FEF7EF
:105A600049FE04E004221D200099FEF743FEA348EE
:105A7000027801210020CDE9070108460799FCF7CB
:105A80005FFCA24AD2E9003223EA000022EA0101C7
:105A90009E4A03C29C48C06898490978405C00F05F
:105AA0000800082826D19548027801210020CDE978
:105AB000090108460999FCF743FC954B0CCB1040B3
:105AC000194000235840594008433ED109220E2076
:105AD00000990EF06BFD8948027801200021CDE984
:105AE0000B10FCF72DFC8A4B0CCB10431943884A52
:105AF00003C22AE08148027801210020CDE90D018E
:105B000008460D99FCF71CFC814B0CCB104019404A
:105B1000002358405940084317D009220E2000990D
:105B2000FEF7E8FD7548037801220021CDE90F1248
:105B30001A461098FCF704FC754AD2E9003223EAB1
:105B4000000022EA0101724A03C26F48C0686B4933
:105B50000978405C00F08000802828D167480278EE
:105B600001210020CDE9110108461199FCF7E8FB5D
:105B7000684B0CCB10401940002358405940084353
:105B800045D106220E2000990EF010FD5B480378E7
:105B900001220021CDE913121A461498FCF7D0FB1C
:105BA0005C4B0CCB104319435A4A03C22FE05348B5
:105BB000027801210020CDE9150108461599FCF76E
:105BC000BFFB544B0CCB10401940002358405940A8
:105BD00008431CD006220E200099FEF78BFD474893
:105BE000037801210022CDE917211A4608461799AA
:105BF000FCF7A6FB0A46C143D043464BD3E9002C31
:105C00001346194000EA0C00424AC2E9001042481B
:105C10003A490978405C01282BD1384802780121A3
:105C20000020CDE9190108461999FCF789FB3B4B87
:105C30000CCB1040194000235840594008434BD129
:105C40002E48027801210020CDE91B0108461B994E
:105C5000FCF776FB314B0CCB104319432F4A03C2A0
:105C600026480078401CC1B207220E200EF09EFC90
:105C700032E0294821490978405C01282CDD1F4881
:105C8000027801210020CDE91D0108461D99FCF78D
:105C900057FB224B0CCB1040194000235840594071
:105CA000084319D01548027801210020CDE91F01D1
:105CB00008461F99FCF744FB184B0CCB22EA000066
:105CC00023EA0101154A03C20C480078401CC1B206
:105CD00007220E20FEF70EFD08480078401C0749F9
:105CE0000870064800782228FFF6A4AD0C4800682A
:105CF000408C00F4807050B30A4815E0BB0C0020C3
:105D0000900C002010780020A4150020980C002092
:105D1000A00C0020A80C0020007C0020B00C00206B
:105D2000CC020020B80C0020007800F0010038B947
:105D3000042201211D200EF039FC0320AB4908701C
:105D4000AB48007840F00100A949087012E0A8486B
:105D5000007800F0010038B1042201211D20FEF777
:105D6000C9FC0020A1490870A148007800F0FE009D
:105D70009F4908709F480068408C00F4007098B1FB
:105D80009B48007800F0020038B9042202211D204F
:105D90000EF00CFC0320954948709548007840F0BF
:105DA00002009349087012E09148007800F0020068
:105DB00038B1042202211D20FEF79CFC00208B49F3
:105DC00048708B48007800F0FD00894908708948C8
:105DD000006890F8220000F0800080B184480078CC
:105DE00000F0800020B90B22012107200EF0DEFB1D
:105DF0007F48007840F080007D4908700FE07C48C3
:105E0000007800F0800020B10B2201210720FEF76E
:105E100071FC7748007800F07F007549087076487B
:105E20000078012817D17248007800F0400058B976
:105E30000722012110460EF0B9FB00206D490968C8
:105E400088836C490968C8836948007840F040003D
:105E5000674908700FE06648007800F0400020B104
:105E6000072201211046FEF745FC6148007800F04A
:105E7000BF005F49087003F00DF96048D0E90010D9
:105E80005F4B1940002041404040014303D00120B6
:105E90005C49087002E000205A490870574903C95C
:105EA00017231840002148404940084303D00120EF
:105EB0005449487002E00020524948705248006836
:105EC00052490968084052490968504A126811400D
:105ED000084318B101204B49887002E0002049496D
:105EE00088704648D0E900104FF060431940002008
:105EF00041404040014303D001204249C87002E0C4
:105F000000204049C8703D4903C94FF078621040F5
:105F1000002148404940084303D001203949087115
:105F200002E0002037490871364800783549497841
:105F300008443449897808443249C97808443149C9
:105F400009790844002803DD01202E49487102E048
:105F500000202C4948712F48007818B101202949A8
:105F6000887202E00020274988722448D0E9001096
:105F700008221140002041404040014303D001204D
:105F80002049C87202E000201E49C872002427E0A0
:105F9000214830F81400000B002818DD1E4830F8A6
:105FA00014000121C1EB10301649085C38B1C4F16E
:105FB0000D00C1B21948006810F006FD0EE0C4F1F2
:105FC0000D00C1B21548006810F0F6FC06E0C4F1FF
:105FD0000D00C1B21148006810F0EEFC601CC4B2A4
:105FE000092CD5DB00BFFEF72DBC0000B90C00204A
:105FF000B80C0020CC020020D60E0020E8020020C1
:10600000E0FF7F00D0220020F40C0020A40E00202E
:10601000FC0C0020F20C0020F8000020A40400205A
:106020002DE9F0470746884691460024A246002005
:10603000A9F80000B8F1000F1BD1012F01D0032FE8
:106040003AD12848FCF7BCFAC6B206F11600C5B230
:10605000254C29462046FCF75DFB24480168216059
:106060008088A08032461F4904F11300FCF7D3FA60
:1060700022E01F48FCF7A4FAC6B24046FCF7A0FA9B
:1060800000F0FF0A06F113005044C01CC5B2164CC4
:1060900029462046FCF73EFB1448016821608088B1
:1060A000A0803246124904F11300FCF7B4FA4146CD
:1060B00004F11300FCF7A3FA0120E0802772A4F892
:1060C000095006F1130050440219E91E2046FEF75C
:1060D0000FF80D21681E2152A9F800502046BDE896
:1060E000F0870000BF98020884190020B4980208C5
:1060F000CE9802082FE0FDF769FD1748026817489F
:1061000001681748006811F009FC1648006813F090
:1061100058FB1548007870B91248006811F07CFEF1
:106120001248007860B90120104908700D2110480C
:106130000FF0C4FC04E000220D210D480FF0B6FB67
:106140000848006814F0FAFB0648006801F040FEB9
:10615000C82021F01FFECEE7D0020020B80E00209C
:10616000780C0020DC040020C60E0020C70E0020A2
:106170007804002010B50446207E617E0844C0EB00
:10618000C000616801EB400081689F4800680930E9
:10619000814210D19D48007801280CD19A480068AE
:1061A000407A9B4908709B48006811F041FA002032
:1061B00096490870FAE0207E617E0844C0EBC0007A
:1061C000616801EB400040688F490968884219D135
:1061D000B92201218C48006806F0B2FC8B48007897
:1061E0000128E7D18C4800788C4948438C490968DC
:1061F000086389498748006811F01AFA002083492A
:106200000870D3E0207E617E0844C0EBC000616866
:1062100001EB400041687C480068C01D814217D1F5
:106220001222012178480068C01D06F089FC7748D9
:1062300000780128BED174480068C0797949087097
:106240007448006811F0F4F9002070490870ADE05E
:10625000207E617E0844C0EBC000616801EB400015
:1062600080687149884213D1642200216648006821
:10627000C01C04F0D2FD6548007801289AD16A4913
:106280006448006811F0D4F90020604908708DE07E
:10629000207E617E0844C0EBC000616801EB4000D5
:1062A00080686249884213D1642200215648006800
:1062B000401D04F0B2FD55480078012876D15B49B5
:1062C0005448006811F0B4F90020504908706DE09E
:1062D000207E617E0844C0EBC000616801EB400095
:1062E00080685349884217D1B4220021464800688B
:1062F000401C06F025FC45480078012856D142484C
:10630000006840784A4908804248006811F090F9D6
:1063100000203E49087049E0207E617E0844C0EBC1
:10632000C000616801EB400080684249884218D192
:106330004FF416720121344800680C3004F06DFDF2
:1063400032480078012831D12F48006880893949C6
:1063500008803048006811F06BF900202B49087064
:1063600024E0207E617E0844C0EBC000616801EB40
:1063700040004168244800680A30814216D16322F7
:106380000021214800680A3006F0DAFB1F48007837
:10639000012808D11C480068807A274908701D48E8
:1063A000006811F045F9002018490870207C032886
:1063B00029D0194800781449096808701C480078E9
:1063C0001149096848701B4800780F4909688870AE
:1063D000154800880C490968A1F803001348008893
:1063E00009490968A1F805000E48007806490968BE
:1063F000C871074800780449096848720E48007857
:1064000001490968887210BDB8050020D804002031
:1064100064020020A40400207302002080510100C7
:106420006800002078020020B2000020B4000020A4
:10643000B6000020B8000020B402002010B50446C9
:10644000207E617E0844C0EBC000616801EB400023
:1064500081681E4800680E3081420FD11C480078C8
:1064600001280BD100201A49087001201949087031
:106470001949164800680E3003F0F8F8207E617E56
:106480000844C0EBC000616801EB400041680F4860
:1064900000681E30814218D10D480078012814D1BF
:1064A00000200B49087002200A490870074800685C
:1064B000807F002809DD05480068807F192804DAFC
:1064C00002480068807F0549087010BDB8050020AB
:1064D000D80400208C0C00201B030020B50E0020E7
:1064E0002DE9F0410446F94800680078052803DDED
:1064F0000120F64909680870F448006840780C28C3
:1065000003DD0120F14909684870F048006800780F
:1065100018B90520ED4909680870EC480068407812
:1065200018B90C20E94909684870E8480068007803
:10653000E7490870E54800684078E6490870207E21
:10654000617E0844C0EBC000616801EB4000416817
:10655000DE480068801C814244D1DC4800688078B5
:106560000C2803DD0C20D94909688870D7480068D9
:10657000807818B90120D54909688870D348006827
:10658000C0781F2803DD1F20D0490968C870CF4894
:106590000068C07818B90120CC490968C870CE4895
:1065A000007801281ED10020CB490870C74B1B681A
:1065B000DA78C64B1B689978C44B1B681B785B1E46
:1065C000D8B201F09FF9C14800680078401E00EB86
:1065D000800202EBC000C14A02EB4001C0480068E3
:1065E00011F026F8207E617E0844C0EBC00061688F
:1065F00001EB40004168B5480068801D81425CD1D4
:10660000B24800688079182808DDB04800688079B1
:10661000802803DA1720AD4909688871AB48006803
:106620008079802803DD0020A84909688871A7487F
:106630000068C0793B2808DDA4480068807980287C
:1066400003DA3B20A1490968C871A0480068C079F5
:10665000802803DD00209D490968C8719B4D2D6885
:10666000EB799A4D2D68AA79984D2D686D786D1E3D
:10667000E9B2964D2D682D786D1EE8B202F0EAFE63
:1066800095480078012818D10020934908708F4858
:1066900000680078401E00EB800202EBC0008F4AC9
:1066A00002EB4000801C894A12685278521E00EBAF
:1066B00042018B48006810F0BBFF207E617E0844D9
:1066C000C0EBC000616801EB400081687F48006852
:1066D0000A3081422AD180480078012826D1002042
:1066E0007D490870794B1B689A7A784B1B685B78F8
:1066F0005B1ED9B2754B1B681B785B1ED8B201F0CC
:106700004FFA724800684078451E05EBD57042107C
:106710006E4800680078401E00EB400002EB40002D
:10672000704A81186E48006810F082FF207E617EFA
:106730000844C0EBC000616801EB40004168634859
:1067400000680C3081422DD163480078012829D19E
:106750000020614908705D480068808901B25B488B
:1067600000680078401E00EB40005F4A02EBC00268
:10677000564800684078401E22F8101053480068C0
:106780000078401E00EB4000574A02EBC0024F4821
:1067900000684078401E02EB40015148006810F04C
:1067A00047FF90E0207C032805D1207C03287DD181
:1067B000607E00287AD1454800680578681E00EBA5
:1067C000800101EBC000454931F8100086B200227B
:1067D0003E480168891C304601F0D6FD052D00D1E8
:1067E000002505EB850000EBC5003C4931F8106041
:1067F000701E86B2002235480168091D304601F03E
:10680000C3FD012807D00C203049096808711F20FA
:106810002E49096848712D48006845782B48006862
:106820000078401E00EB800101EBC0002B4901EB1A
:106830004000801C691E30F8110086B200222348F7
:106840000168891D304600F0DBFC0C2D00D10025CD
:106850001E4800680078401E00EB800101EBC0007C
:106860001E4901EB4000801C30F81560701E86B296
:106870000022164801680831304600F0C1FC134A76
:1068800012685278521ED1B2104A12681278521E03
:10689000D0B200F09BFC0D49096888720B48006873
:1068A0000078401E00EB40000F4900E00BE001EBD8
:1068B000C001064800684078401E31F81070034956
:1068C00009688F8100BFBDE8F0810000B805002095
:1068D000800C0020810C0020D80400201201002030
:1068E000A40400207A020020EC0100207CB50446BC
:1068F00049480078002874D1207C032828D04748D4
:10690000808847490968088044480068C0F383507C
:1069100043490968488041480068C0F34440404901
:10692000096888803D480068C0F304303C49096824
:10693000C8803A480088C0F3851039490968088141
:106940003648007800F03F0035490968488161E029
:10695000207E617E0844C0EBC000616801EB40000E
:1069600040682F490968884216D140F6320240F249
:10697000E5712B48006804F050FA0C2201212848E8
:106980000068801C04F049FA1F2201212448006895
:10699000001D04F042FA3DE0207E617E0844C0EB19
:1069A000C000616801EB400041681D480068801D1F
:1069B00081422FD11722002119480068801D04F060
:1069C0002CFA3B22002116480068083004F025FA12
:1069D0003B220021124800680A3004F01EFA19E038
:1069E000FFE70F480068807A0D490968097A0C4D65
:1069F000CDE900102D68AB79094D2D682A79084D35
:106A00002D68A978064D2D682888FDF79DF900208E
:106A1000014908707CBD0000D804002084040020D7
:106A2000B80500202DE9F041804600BF00BF314885
:106A300000688078012803DA06202E4909688870EA
:106A40002C4800688078062803DD01202949096860
:106A500088702948806827490968897830F81100CA
:106A60002449096888802448006A2249096889788D
:106A700050F821001F490968C1F806001D48006848
:106A80008078401E1D4951F820001A490968C1F854
:106A90000A00002425461848006A164909688978C2
:106AA00050F82100642100FB01F60027012008E0D6
:106AB0001149096A51F820100C1945F10005411CD3
:106AC000C8B20728F4DB00210846091BA8410ADAEE
:106AD00022462B4630463946FBF745FC064605491B
:106AE00009680E8003E00020024909680880BDE8BB
:106AF000F0810000B8050020A4150020847C00204F
:106B0000144909688978012903DA0221114A1268B7
:106B10009170104909688978022903DD01210D4A25
:106B2000126891700B4909688978012906D10A49D0
:106B300009688988074A126891800AE0054909684E
:106B40008978022905D104490968C989014A12686E
:106B500091807047B8050020CC02002070B55648DF
:106B600005785648007800287ED0554A1268C2F34E
:106B70004441534A1268C2F3835001F0CDF884B205
:106B80005048B0F90000A0420CDC4E48B0F91A00A1
:106B9000A04207DD00204C490870FDF741FB464943
:106BA000087058E04748B0F91A00A0420CDC45488C
:106BB000B0F93400A04207DD012043490870FDF719
:106BC0002FFB3D49087046E03E48B0F93400A04232
:106BD0000CDC3C48B0F94E00A04207DD02203A49E7
:106BE0000870FDF71DFB3449087034E03548B0F9F2
:106BF0004E00A0420CDC3348B0F96800A04207DD2B
:106C0000032031490870FDF70BFB2B49087022E087
:106C10002C48B0F96800A04205DCB4F5B77F09DB69
:106C2000B4F5B77F06DD2748B0F90000A04209DDC2
:106C3000012C07DB042024490870FDF7F1FA1E49F6
:106C4000087008E00520204908700C201F490870D2
:106C50000020194908701C480078052813DA1B48E1
:106C600000780C280FDA00E011E01748007800EBFC
:106C70004000174901EBC0001449097830F81100B1
:106C80001449088002E000201249088002E0002038
:106C9000094908700848007885420CD00E480570F4
:106CA00001200E49087000200D49096881F8230071
:106CB0000B490968C88070BDDA0200206802002014
:106CC0008404002012010020410D0020420D00200C
:106CD000EC0100203E0D0020430D0020440D00205B
:106CE000680000202DE9F04705460F469046002633
:106CF000EC1D0A20A0490870607801286CD105F1CC
:106D00001309484600F076F9401C10B90020BDE890
:106D1000F0879A48006808B90020F8E798A19748DA
:106D20000068FBF741FD38B90221002001F0A6FA06
:106D300095489649086019E095A190480068FBF7CE
:106D400033FD18B99448914908600FE093A18B482E
:106D50000068FBF729FD38B992488C490860022188
:106D6000002001F08BFA01E00020D0E78E48006897
:106D700008B90020CBE78D498B480068FBF714FD6C
:106D8000002801DC0020C2E78948006808B900201B
:106D9000BDE788A186480068FBF706FDA8B98748CB
:106DA00080F8008040F21640854908803A4600216C
:106DB0000120FFF735F906460020824908700120BE
:106DC000814908801FF0EEFA05E03A467F4901202C
:106DD000FFF726F90646CDE06078022803D1774810
:106DE00000780028F7DC607803285CD173480078CD
:106DF000002858DD05F213424FF4806105F11300BD
:106E0000FDF776F990BB20896F49098888421FD128
:106E100005F113016C48008802F0D2FC01206C4996
:106E200008703A4600210320FFF7FAF806460020D2
:106E300064490870A08864490988884202D11620F4
:106E40005F49088060480088401C5F49088091E0E5
:106E50005C480078401C5B490870084600780A28A6
:106E600005DD00F08BF90020307083E006E03A4643
:106E700058490320FFF7D4F806467BE051480078D4
:106E8000401C50490870084600780A2804DD00F0CC
:106E900075F9002030706DE03A464F490120FFF748
:106EA000BFF8064666E0607804284CD14348007875
:106EB000002848DD44480088401EA188884259D1F6
:106EC00041480088401E810205F113022F480068E6
:106ED000FDF70EF9B0BB1FF0D9F900203749087053
:106EE0002A4800682849884211D145F65A211520C0
:106EF0001EF086FCA18816201EF082FC00210120D5
:106F000001F0BCF901F0DCF80DF058FD32E01F484B
:106F10000068244988422DD10088304908802148E2
:106F200008302F4908602F482F4908601D48C08845
:106F30001C4908442D4908600021012001F09EF9F8
:106F400001F0BEF816E06078052813D11D480078DE
:106F5000401C1C490870084600780A2804DD00F02F
:106F60000DF90020307005E03A4621490120FFF775
:106F700057F806463046CAE6680D0020500D00203E
:106F8000436F646500000000000008085C0D0020ED
:106F900048544D4C0000000000500408466F6E74C9
:106FA0000000000000000408540D0020BB980208F7
:106FB000580D00205570677261646500610D0020F6
:106FC000640D0020660D0020620D0020219902084A
:106FD000670D002009990208E79802081C000020AC
:106FE000200000205F030408240000202800002067
:106FF000F998020870B50546002417A12846FBF74A
:10700000CDFA044614B94FF0FF3070BD14A12846E4
:10701000FBF7C4FA044615A12046FBF7B9FA14A100
:107020000020FBF7B5FA1449086011A10020FBF716
:10703000AFFA0FA10020FBF7ABFA104908600CA1D2
:107040000020FBF7A5FA0AA10020FBF7A1FA0C49E2
:1070500008600020D9E700004835324330000000C6
:10706000446174615F547970650000003A22000049
:107070003A222C2000000000500D0020540D00206A
:10708000580D0020017E427E1144C1EBC1014268CF
:1070900002EB41014A6812498A4206D11149097836
:1070A000012902D100210F4A1170017E427E114454
:1070B000C1EBC101426802EB41018A680A490968D3
:1070C0000C318A420AD107490978012906D10021E9
:1070D000044A11700121044A12685173704700007C
:1070E000680C0020D8040020B805002070B50446C4
:1070F0000E4620480078012807D10122314620465B
:10710000FFF7F0FD0546284670BD20787E280DD19A
:107110002146194816F010F910B917484069F3E7ED
:10712000154816F0A1FA14484069EDE720784D287B
:107130001DD160784E281AD1A078432817D1E07865
:107140002D2814D12079452811D160794E280ED1EF
:107150000848007838B9012231462046FFF7C2FDC1
:1071600005462846D0E7002028702846CCE70020B6
:10717000CAE70000610D0020F47C002010B508482B
:107180000078012801D11FF081F80121084601F0A3
:1071900075F800F095FF00200249087010BD00004E
:1071A000670D0020610D00200146092903DC01F173
:1071B0003000C0B270470A2905DB0F2903DC01F15A
:1071C0003700C0B2F6E70020F4E7000030B5024611
:1071D00000240A48062303FB0205084601EBD0738E
:1071E0005B10EC5C0B4601EBD3704010A1EB400050
:1071F000800044FA00F000F00F0030BD7A02002059
:1072000030B50346B3F5B46F05DB18240C700024C9
:107210004C70601E0AE03C2493FBF4F40C703C2498
:1072200093FBF4F504FB15344C700120012A04D1C2
:107230000C784D780D704C7000BF012030BD0000FF
:1072400070B503460024002018E00E4D15F81050CC
:1072500005F07F06A3F11405AE420DD1094D35F8B6
:107260001050C5F34225954206D101258540064EB2
:107270003688354005B10C46451CE8B20C28E4DBE5
:10728000204670BDF8000020BC0C002010B5002185
:10729000FF202F4A1278002A50D14CE04A1CD1B26C
:1072A0002C4A1278521C2B4B1A701A461278232A39
:1072B00001DD01221A70274A1278222A38DC254A79
:1072C0001278521EC2EBC202234B03EB82021289D8
:1072D000322A02DA1F4A10782FE01E4A1278521E14
:1072E000C2EBC2021C4B03EB8202927AC2F3400251
:1072F0000AB3184A1278521EC2EBC20203EB820292
:10730000528922F00203134A1278521EC2EBC202C3
:10731000114C04EB8202538100230E4A1278521E54
:10732000C2EBC20204EB820293800A4A107804E0A6
:10733000084A107801E02329B0DB08E0044A1278FB
:10734000222A04DC024A10780022014B1A7010BD78
:107350006D0D0020760D0020182300200AE006485D
:1073600001680648006813F01DFDFFF7F7FB642075
:1073700020F010FDF3E70000B80E002068000020A8
:1073800010B50446207E617E0844C0EBC0006168F1
:1073900001EB40008068AB4988420BD1AA480078D5
:1073A000012806D1A948006810F042F90020A6493A
:1073B000087011E1207E617E0844C0EBC000616866
:1073C00001EB40008068A24988420BD19E480078BA
:1073D0000128EED19D48006810F02AF900209A4952
:1073E0000870F9E0207E617E0844C0EBC00061684F
:1073F00001EB400080689749884214D147F230522F
:10740000002195480068001D03F007FD8E480078B4
:107410000128CED18F498D48006810F009F900206D
:1074200089490870D8E0207E617E0844C0EBC00026
:10743000616801EB400080688849884215D141F2BB
:10744000B44241F2680184480068801D03F0E5FC05
:107450007D4800780128ACD180497C48006810F054
:10746000E7F8002078490870B6E0207E617E084485
:10747000C0EBC000616801EB400080687849884239
:1074800015D141F2B44241F26801734800681230EC
:1074900003F0C3FC6C48007801288AD170496B481E
:1074A000006810F0C5F800206749087094E0207E5D
:1074B000617E0844C0EBC000616801EB4000806859
:1074C0006849884215D141F2D4724FF4AF516248F5
:1074D0000068083003F0A1FC5B48007801287BD1EC
:1074E00060495A48006810F0A3F800205649087017
:1074F00072E0207E617E0844C0EBC000616801EB51
:10750000400080685849884215D141F658324FF4FE
:107510007A61514800680A3003F07FFC4A480078DD
:10752000012859D150494948006810F081F80020DD
:107530004549087050E0207E617E0844C0EBC000E1
:10754000616801EB400080684849884215D141F2EA
:1075500088324FF47A61404800680C3003F05DFCDB
:1075600039480078012837D140493848006810F080
:107570005FF80020344908702EE0207E617E0844C8
:10758000C0EBC000616801EB400080683849884268
:107590000BD12D48007801281ED12C48006810F02E
:1075A00047F800202849087016E0207E617E0844D4
:1075B000C0EBC000616801EB400080682D49884243
:1075C0000AD121480078012806D12048006810F02F
:1075D0002FF800201C490870207C032831D019485E
:1075E00000881D4909680880194800881A490968F7
:1075F000488018480088184909688880174800881A
:1076000015490968C8801748008813490968088126
:1076100015480088104909684881144800880E49B7
:1076200009688881124800880B490968C881114897
:1076300000880949096808820948008806490968DC
:10764000488210BDBA000020D8040020A404002005
:10765000BC000020BE000020B8050020C0000020B3
:10766000C2010020C2000020C4000020C60000208B
:10767000C8000020CA00002010B5044688480078E1
:10768000082802DC8648007810B901208449087077
:10769000207E617E0844C0EBC000616801EB4000C1
:1076A00040688049096888421FD141F270724FF4E6
:1076B0007A617C48006803F0B0FB7B4800780128C1
:1076C00012D1784800210268012001F08BFE754834
:1076D0000068008875498880091D754800680FF0AA
:1076E000A7FF002070490870D9E0207E617E084421
:1076F000C0EBC000616801EB400041686948006868
:10770000801C814220D142F6E06200216548006879
:10771000801C03F082FB644800780128E4D16148B2
:107720000268921C0021022001F05CFE5D480068A6
:1077300040885E49C880891D5D4800680FF078FF69
:10774000002059490870AAE0207E617E0844C0EB01
:10775000C000616801EB4000816852480068001D6C
:10776000814229D1504800780128BDD14D48006898
:10777000007920B955204B490968087107E049484C
:1077800000680079012802D1464909680871454816
:107790000268121D0021032001F024FE4148006808
:1077A0008088424908810831414800680FF040FF55
:1077B00000203D49087072E0207E617E0844C0EBE5
:1077C000C000616801EB4000816836480068801D98
:1077D000814229D134480078012860D131480068BD
:1077E000807920B955202F490968887107E02D4814
:1077F00000688079012802D12A49096888712948DE
:107800000268921D0021042001F0ECFD254800686B
:10781000C088264948810A31254800680FF008FFD2
:107820000020214908703AE000201F4908701C48D8
:107830000078401E00EB4001C1EB40101D4901EBF8
:107840008000808A17490968088015480078401E22
:1078500000EB4001C1EB4010164901EB8000808B2A
:107860001049096848800E480078401E00EB40012E
:10787000C1EB40100F4901EB8000008B09490968FA
:10788000888007480078401E00EB4001C1EB4010A3
:10789000084901EB8000408B02490968C88010BD8F
:1078A000D60D0020B8050020D8040020E0010020FB
:1078B000A4040020E415002070B588B004460D46ED
:1078C00016461C220E4901A8FAF7EAFE0CB908B0C8
:1078D00070BD2C7200200AE001A911F81410314487
:1078E0000B5C811C05F108025354411CC8B201A96C
:1078F00001EB440149788142EEDC00BFE7E700007C
:10790000649902082DE9F04104460E461746002509
:107910003946304600F000FA0546002D03DC4FF0F2
:10792000FF30BDE8F081002C0CDD601E00EB800113
:1079300001EBC000084931F91000A84202DB4FF00A
:10794000FF30EEE704EB840000EBC400024921F8AD
:1079500010500120E5E700001201002010B5044698
:10796000207E617E0844C0EBC000616801EB4000EE
:10797000806880490968884210D17F4800780128D2
:107980000CD100207C4908707A48006800787B4957
:1079900008707B4800680FF04BFEC2E0207E617EDD
:1079A0000844C0EBC000616801EB40008168714889
:1079B0000068401C81420CD16F480078012808D132
:1079C00000206D4908706B48006840786D49087068
:1079D000A7E0207E617E0844C0EBC000616801EB37
:1079E000400080686849884213D11E220121614805
:1079F0000068801C05F0A4F85F4800780128CCD10D
:107A000000205D49087060495D4800680FF010FE75
:107A100087E0207E617E0844C0EBC000616801EB16
:107A2000400080685949884213D146220A215148B2
:107A30000068C01C05F084F84F480078012870D118
:107A400000204D49087051494D4800680FF0F0FD85
:107A500067E0207E617E0844C0EBC000616801EBF6
:107A6000400080684A49884213D15A220F21414878
:107A70000068001D05F064F83F480078012850D1E7
:107A800000203D49087042493D4800680FF0D0FD94
:107A900047E0207E617E0844C0EBC000616801EBD6
:107AA000400080683B4988421BD14822012131486F
:107AB0000068401D05F044F82F480078012830D1B7
:107AC00000202D490870334800784FF46161484325
:107AD0003149096888632F49294800680FF0A8FDDB
